{
	"contracts/CollegePollingSystem.sol": {
		"CollegePollingSystem": {
			"abi": [
				{
					"anonymous": false,
					"inputs": [
						{
							"indexed": false,
							"internalType": "uint256",
							"name": "pollIndex",
							"type": "uint256"
						},
						{
							"indexed": false,
							"internalType": "string",
							"name": "question",
							"type": "string"
						},
						{
							"indexed": false,
							"internalType": "string[]",
							"name": "options",
							"type": "string[]"
						}
					],
					"name": "PollCreated",
					"type": "event"
				},
				{
					"anonymous": false,
					"inputs": [
						{
							"indexed": false,
							"internalType": "address",
							"name": "voter",
							"type": "address"
						},
						{
							"indexed": false,
							"internalType": "uint256",
							"name": "pollIndex",
							"type": "uint256"
						},
						{
							"indexed": false,
							"internalType": "string",
							"name": "option",
							"type": "string"
						}
					],
					"name": "VoteSubmitted",
					"type": "event"
				},
				{
					"inputs": [
						{
							"internalType": "string",
							"name": "question",
							"type": "string"
						},
						{
							"internalType": "string[]",
							"name": "options",
							"type": "string[]"
						}
					],
					"name": "createPoll",
					"outputs": [],
					"stateMutability": "nonpayable",
					"type": "function"
				},
				{
					"inputs": [
						{
							"internalType": "uint256",
							"name": "pollIndex",
							"type": "uint256"
						},
						{
							"internalType": "string",
							"name": "option",
							"type": "string"
						}
					],
					"name": "getVotes",
					"outputs": [
						{
							"internalType": "uint256",
							"name": "",
							"type": "uint256"
						}
					],
					"stateMutability": "view",
					"type": "function"
				},
				{
					"inputs": [
						{
							"internalType": "uint256",
							"name": "pollIndex",
							"type": "uint256"
						},
						{
							"internalType": "string",
							"name": "option",
							"type": "string"
						}
					],
					"name": "isOptionValid",
					"outputs": [
						{
							"internalType": "bool",
							"name": "",
							"type": "bool"
						}
					],
					"stateMutability": "view",
					"type": "function"
				},
				{
					"inputs": [],
					"name": "numPolls",
					"outputs": [
						{
							"internalType": "uint256",
							"name": "",
							"type": "uint256"
						}
					],
					"stateMutability": "view",
					"type": "function"
				},
				{
					"inputs": [
						{
							"internalType": "uint256",
							"name": "",
							"type": "uint256"
						}
					],
					"name": "polls",
					"outputs": [
						{
							"internalType": "string",
							"name": "question",
							"type": "string"
						},
						{
							"internalType": "bool",
							"name": "active",
							"type": "bool"
						}
					],
					"stateMutability": "view",
					"type": "function"
				},
				{
					"inputs": [
						{
							"internalType": "uint256",
							"name": "pollIndex",
							"type": "uint256"
						},
						{
							"internalType": "string",
							"name": "option",
							"type": "string"
						}
					],
					"name": "vote",
					"outputs": [],
					"stateMutability": "nonpayable",
					"type": "function"
				},
				{
					"inputs": [
						{
							"internalType": "address",
							"name": "",
							"type": "address"
						}
					],
					"name": "voters",
					"outputs": [
						{
							"internalType": "bool",
							"name": "voted",
							"type": "bool"
						},
						{
							"internalType": "uint256",
							"name": "pollIndex",
							"type": "uint256"
						}
					],
					"stateMutability": "view",
					"type": "function"
				}
			],
			"devdoc": {
				"kind": "dev",
				"methods": {},
				"version": 1
			},
			"evm": {
				"assembly": "    /* \"contracts/CollegePollingSystem.sol\":24:2566  contract CollegePollingSystem {... */\n  mstore(0x40, 0x80)\n  callvalue\n  dup1\n  iszero\n  tag_1\n  jumpi\n  0x00\n  dup1\n  revert\ntag_1:\n  pop\n  dataSize(sub_0)\n  dup1\n  dataOffset(sub_0)\n  0x00\n  codecopy\n  0x00\n  return\nstop\n\nsub_0: assembly {\n        /* \"contracts/CollegePollingSystem.sol\":24:2566  contract CollegePollingSystem {... */\n      mstore(0x40, 0x80)\n      callvalue\n      dup1\n      iszero\n      tag_1\n      jumpi\n      0x00\n      dup1\n      revert\n    tag_1:\n      pop\n      jumpi(tag_2, lt(calldatasize, 0x04))\n      shr(0xe0, calldataload(0x00))\n      dup1\n      0x842ff2bd\n      gt\n      tag_10\n      jumpi\n      dup1\n      0x842ff2bd\n      eq\n      tag_6\n      jumpi\n      dup1\n      0xa3ec138d\n      eq\n      tag_7\n      jumpi\n      dup1\n      0xac2f0074\n      eq\n      tag_8\n      jumpi\n      dup1\n      0xe76d28ad\n      eq\n      tag_9\n      jumpi\n      jump(tag_2)\n    tag_10:\n      dup1\n      0x24108475\n      eq\n      tag_3\n      jumpi\n      dup1\n      0x2d957d34\n      eq\n      tag_4\n      jumpi\n      dup1\n      0x7e3d71c3\n      eq\n      tag_5\n      jumpi\n    tag_2:\n      0x00\n      dup1\n      revert\n        /* \"contracts/CollegePollingSystem.sol\":1133:1813  function vote(uint pollIndex, string memory option) public {... */\n    tag_3:\n      tag_11\n      0x04\n      dup1\n      calldatasize\n      sub\n      dup2\n      add\n      swap1\n      tag_12\n      swap2\n      swap1\n      tag_13\n      jump\t// in\n    tag_12:\n      tag_14\n      jump\t// in\n    tag_11:\n      stop\n        /* \"contracts/CollegePollingSystem.sol\":1854:2186  function isOptionValid(uint pollIndex, string memory option) public view returns (bool) {... */\n    tag_4:\n      tag_15\n      0x04\n      dup1\n      calldatasize\n      sub\n      dup2\n      add\n      swap1\n      tag_16\n      swap2\n      swap1\n      tag_13\n      jump\t// in\n    tag_16:\n      tag_17\n      jump\t// in\n    tag_15:\n      mload(0x40)\n      tag_18\n      swap2\n      swap1\n      tag_19\n      jump\t// in\n    tag_18:\n      mload(0x40)\n      dup1\n      swap2\n      sub\n      swap1\n      return\n        /* \"contracts/CollegePollingSystem.sol\":819:1105  function createPoll(string memory question, string[] memory options) public {... */\n    tag_5:\n      tag_20\n      0x04\n      dup1\n      calldatasize\n      sub\n      dup2\n      add\n      swap1\n      tag_21\n      swap2\n      swap1\n      tag_22\n      jump\t// in\n    tag_21:\n      tag_23\n      jump\t// in\n    tag_20:\n      stop\n        /* \"contracts/CollegePollingSystem.sol\":325:345  uint public numPolls */\n    tag_6:\n      tag_24\n      tag_25\n      jump\t// in\n    tag_24:\n      mload(0x40)\n      tag_26\n      swap2\n      swap1\n      tag_27\n      jump\t// in\n    tag_26:\n      mload(0x40)\n      dup1\n      swap2\n      sub\n      swap1\n      return\n        /* \"contracts/CollegePollingSystem.sol\":510:550  mapping (address => Voter) public voters */\n    tag_7:\n      tag_28\n      0x04\n      dup1\n      calldatasize\n      sub\n      dup2\n      add\n      swap1\n      tag_29\n      swap2\n      swap1\n      tag_30\n      jump\t// in\n    tag_29:\n      tag_31\n      jump\t// in\n    tag_28:\n      mload(0x40)\n      tag_32\n      swap3\n      swap2\n      swap1\n      tag_33\n      jump\t// in\n    tag_32:\n      mload(0x40)\n      dup1\n      swap2\n      sub\n      swap1\n      return\n        /* \"contracts/CollegePollingSystem.sol\":284:319  mapping (uint => Poll) public polls */\n    tag_8:\n      tag_34\n      0x04\n      dup1\n      calldatasize\n      sub\n      dup2\n      add\n      swap1\n      tag_35\n      swap2\n      swap1\n      tag_36\n      jump\t// in\n    tag_35:\n      tag_37\n      jump\t// in\n    tag_34:\n      mload(0x40)\n      tag_38\n      swap3\n      swap2\n      swap1\n      tag_39\n      jump\t// in\n    tag_38:\n      mload(0x40)\n      dup1\n      swap2\n      sub\n      swap1\n      return\n        /* \"contracts/CollegePollingSystem.sol\":2237:2564  function getVotes(uint pollIndex, string memory option) public view returns (uint) {... */\n    tag_9:\n      tag_40\n      0x04\n      dup1\n      calldatasize\n      sub\n      dup2\n      add\n      swap1\n      tag_41\n      swap2\n      swap1\n      tag_13\n      jump\t// in\n    tag_41:\n      tag_42\n      jump\t// in\n    tag_40:\n      mload(0x40)\n      tag_43\n      swap2\n      swap1\n      tag_27\n      jump\t// in\n    tag_43:\n      mload(0x40)\n      dup1\n      swap2\n      sub\n      swap1\n      return\n        /* \"contracts/CollegePollingSystem.sol\":1133:1813  function vote(uint pollIndex, string memory option) public {... */\n    tag_14:\n        /* \"contracts/CollegePollingSystem.sol\":1269:1277  numPolls */\n      sload(0x01)\n        /* \"contracts/CollegePollingSystem.sol\":1256:1265  pollIndex */\n      dup3\n        /* \"contracts/CollegePollingSystem.sol\":1256:1277  pollIndex <= numPolls */\n      gt\n      iszero\n        /* \"contracts/CollegePollingSystem.sol\":1256:1312  pollIndex <= numPolls && polls[pollIndex].active == true */\n      dup1\n      iszero\n      tag_45\n      jumpi\n      pop\n        /* \"contracts/CollegePollingSystem.sol\":1308:1312  true */\n      0x01\n        /* \"contracts/CollegePollingSystem.sol\":1281:1312  polls[pollIndex].active == true */\n      iszero\n      iszero\n        /* \"contracts/CollegePollingSystem.sol\":1281:1286  polls */\n      0x00\n        /* \"contracts/CollegePollingSystem.sol\":1281:1297  polls[pollIndex] */\n      dup1\n        /* \"contracts/CollegePollingSystem.sol\":1287:1296  pollIndex */\n      dup5\n        /* \"contracts/CollegePollingSystem.sol\":1281:1297  polls[pollIndex] */\n      dup2\n      mstore\n      0x20\n      add\n      swap1\n      dup2\n      mstore\n      0x20\n      add\n      0x00\n      keccak256\n        /* \"contracts/CollegePollingSystem.sol\":1281:1304  polls[pollIndex].active */\n      0x03\n      add\n      0x00\n      swap1\n      sload\n      swap1\n      0x0100\n      exp\n      swap1\n      div\n      0xff\n      and\n        /* \"contracts/CollegePollingSystem.sol\":1281:1312  polls[pollIndex].active == true */\n      iszero\n      iszero\n      eq\n        /* \"contracts/CollegePollingSystem.sol\":1256:1312  pollIndex <= numPolls && polls[pollIndex].active == true */\n    tag_45:\n        /* \"contracts/CollegePollingSystem.sol\":1248:1351  require(pollIndex <= numPolls && polls[pollIndex].active == true, \"Poll does not exist or is inactive\") */\n      tag_46\n      jumpi\n      mload(0x40)\n      0x08c379a000000000000000000000000000000000000000000000000000000000\n      dup2\n      mstore\n      0x04\n      add\n      tag_47\n      swap1\n      tag_48\n      jump\t// in\n    tag_47:\n      mload(0x40)\n      dup1\n      swap2\n      sub\n      swap1\n      revert\n    tag_46:\n        /* \"contracts/CollegePollingSystem.sol\":1442:1447  false */\n      0x00\n        /* \"contracts/CollegePollingSystem.sol\":1414:1447  voters[msg.sender].voted == false */\n      iszero\n      iszero\n        /* \"contracts/CollegePollingSystem.sol\":1414:1420  voters */\n      0x02\n        /* \"contracts/CollegePollingSystem.sol\":1414:1432  voters[msg.sender] */\n      0x00\n        /* \"contracts/CollegePollingSystem.sol\":1421:1431  msg.sender */\n      caller\n        /* \"contracts/CollegePollingSystem.sol\":1414:1432  voters[msg.sender] */\n      0xffffffffffffffffffffffffffffffffffffffff\n      and\n      0xffffffffffffffffffffffffffffffffffffffff\n      and\n      dup2\n      mstore\n      0x20\n      add\n      swap1\n      dup2\n      mstore\n      0x20\n      add\n      0x00\n      keccak256\n        /* \"contracts/CollegePollingSystem.sol\":1414:1438  voters[msg.sender].voted */\n      0x00\n      add\n      0x00\n      swap1\n      sload\n      swap1\n      0x0100\n      exp\n      swap1\n      div\n      0xff\n      and\n        /* \"contracts/CollegePollingSystem.sol\":1414:1447  voters[msg.sender].voted == false */\n      iszero\n      iszero\n      eq\n        /* \"contracts/CollegePollingSystem.sol\":1406:1475  require(voters[msg.sender].voted == false, \"Voter has already voted\") */\n      tag_49\n      jumpi\n      mload(0x40)\n      0x08c379a000000000000000000000000000000000000000000000000000000000\n      dup2\n      mstore\n      0x04\n      add\n      tag_50\n      swap1\n      tag_51\n      jump\t// in\n    tag_50:\n      mload(0x40)\n      dup1\n      swap2\n      sub\n      swap1\n      revert\n    tag_49:\n        /* \"contracts/CollegePollingSystem.sol\":1566:1570  true */\n      0x01\n        /* \"contracts/CollegePollingSystem.sol\":1530:1570  isOptionValid(pollIndex, option) == true */\n      iszero\n      iszero\n        /* \"contracts/CollegePollingSystem.sol\":1530:1562  isOptionValid(pollIndex, option) */\n      tag_52\n        /* \"contracts/CollegePollingSystem.sol\":1544:1553  pollIndex */\n      dup4\n        /* \"contracts/CollegePollingSystem.sol\":1555:1561  option */\n      dup4\n        /* \"contracts/CollegePollingSystem.sol\":1530:1543  isOptionValid */\n      tag_17\n        /* \"contracts/CollegePollingSystem.sol\":1530:1562  isOptionValid(pollIndex, option) */\n      jump\t// in\n    tag_52:\n        /* \"contracts/CollegePollingSystem.sol\":1530:1570  isOptionValid(pollIndex, option) == true */\n      iszero\n      iszero\n      eq\n        /* \"contracts/CollegePollingSystem.sol\":1522:1589  require(isOptionValid(pollIndex, option) == true, \"Invalid option\") */\n      tag_53\n      jumpi\n      mload(0x40)\n      0x08c379a000000000000000000000000000000000000000000000000000000000\n      dup2\n      mstore\n      0x04\n      add\n      tag_54\n      swap1\n      tag_55\n      jump\t// in\n    tag_54:\n      mload(0x40)\n      dup1\n      swap2\n      sub\n      swap1\n      revert\n    tag_53:\n        /* \"contracts/CollegePollingSystem.sol\":1623:1628  polls */\n      0x00\n        /* \"contracts/CollegePollingSystem.sol\":1623:1639  polls[pollIndex] */\n      dup1\n        /* \"contracts/CollegePollingSystem.sol\":1629:1638  pollIndex */\n      dup4\n        /* \"contracts/CollegePollingSystem.sol\":1623:1639  polls[pollIndex] */\n      dup2\n      mstore\n      0x20\n      add\n      swap1\n      dup2\n      mstore\n      0x20\n      add\n      0x00\n      keccak256\n        /* \"contracts/CollegePollingSystem.sol\":1623:1645  polls[pollIndex].votes */\n      0x02\n      add\n        /* \"contracts/CollegePollingSystem.sol\":1646:1652  option */\n      dup2\n        /* \"contracts/CollegePollingSystem.sol\":1623:1653  polls[pollIndex].votes[option] */\n      mload(0x40)\n      tag_56\n      swap2\n      swap1\n      tag_57\n      jump\t// in\n    tag_56:\n      swap1\n      dup2\n      mstore\n      0x20\n      add\n      mload(0x40)\n      dup1\n      swap2\n      sub\n      swap1\n      keccak256\n      0x00\n        /* \"contracts/CollegePollingSystem.sol\":1623:1655  polls[pollIndex].votes[option]++ */\n      dup2\n      sload\n      dup1\n      swap3\n      swap2\n      swap1\n      tag_58\n      swap1\n      tag_59\n      jump\t// in\n    tag_58:\n      swap2\n      swap1\n      pop\n      sstore\n      pop\n        /* \"contracts/CollegePollingSystem.sol\":1692:1696  true */\n      0x01\n        /* \"contracts/CollegePollingSystem.sol\":1665:1671  voters */\n      0x02\n        /* \"contracts/CollegePollingSystem.sol\":1665:1683  voters[msg.sender] */\n      0x00\n        /* \"contracts/CollegePollingSystem.sol\":1672:1682  msg.sender */\n      caller\n        /* \"contracts/CollegePollingSystem.sol\":1665:1683  voters[msg.sender] */\n      0xffffffffffffffffffffffffffffffffffffffff\n      and\n      0xffffffffffffffffffffffffffffffffffffffff\n      and\n      dup2\n      mstore\n      0x20\n      add\n      swap1\n      dup2\n      mstore\n      0x20\n      add\n      0x00\n      keccak256\n        /* \"contracts/CollegePollingSystem.sol\":1665:1689  voters[msg.sender].voted */\n      0x00\n      add\n      0x00\n        /* \"contracts/CollegePollingSystem.sol\":1665:1696  voters[msg.sender].voted = true */\n      0x0100\n      exp\n      dup2\n      sload\n      dup2\n      0xff\n      mul\n      not\n      and\n      swap1\n      dup4\n      iszero\n      iszero\n      mul\n      or\n      swap1\n      sstore\n      pop\n        /* \"contracts/CollegePollingSystem.sol\":1737:1746  pollIndex */\n      dup2\n        /* \"contracts/CollegePollingSystem.sol\":1706:1712  voters */\n      0x02\n        /* \"contracts/CollegePollingSystem.sol\":1706:1724  voters[msg.sender] */\n      0x00\n        /* \"contracts/CollegePollingSystem.sol\":1713:1723  msg.sender */\n      caller\n        /* \"contracts/CollegePollingSystem.sol\":1706:1724  voters[msg.sender] */\n      0xffffffffffffffffffffffffffffffffffffffff\n      and\n      0xffffffffffffffffffffffffffffffffffffffff\n      and\n      dup2\n      mstore\n      0x20\n      add\n      swap1\n      dup2\n      mstore\n      0x20\n      add\n      0x00\n      keccak256\n        /* \"contracts/CollegePollingSystem.sol\":1706:1734  voters[msg.sender].pollIndex */\n      0x01\n      add\n        /* \"contracts/CollegePollingSystem.sol\":1706:1746  voters[msg.sender].pollIndex = pollIndex */\n      dup2\n      swap1\n      sstore\n      pop\n        /* \"contracts/CollegePollingSystem.sol\":1762:1806  VoteSubmitted(msg.sender, pollIndex, option) */\n      0xd84a1de55e5258fa81e1531bee8ef292ee5b61ae20b274cce4006b79fa4b642e\n        /* \"contracts/CollegePollingSystem.sol\":1776:1786  msg.sender */\n      caller\n        /* \"contracts/CollegePollingSystem.sol\":1788:1797  pollIndex */\n      dup4\n        /* \"contracts/CollegePollingSystem.sol\":1799:1805  option */\n      dup4\n        /* \"contracts/CollegePollingSystem.sol\":1762:1806  VoteSubmitted(msg.sender, pollIndex, option) */\n      mload(0x40)\n      tag_60\n      swap4\n      swap3\n      swap2\n      swap1\n      tag_61\n      jump\t// in\n    tag_60:\n      mload(0x40)\n      dup1\n      swap2\n      sub\n      swap1\n      log1\n        /* \"contracts/CollegePollingSystem.sol\":1133:1813  function vote(uint pollIndex, string memory option) public {... */\n      pop\n      pop\n      jump\t// out\n        /* \"contracts/CollegePollingSystem.sol\":1854:2186  function isOptionValid(uint pollIndex, string memory option) public view returns (bool) {... */\n    tag_17:\n        /* \"contracts/CollegePollingSystem.sol\":1936:1940  bool */\n      0x00\n        /* \"contracts/CollegePollingSystem.sol\":1957:1963  uint i */\n      dup1\n        /* \"contracts/CollegePollingSystem.sol\":1966:1967  0 */\n      0x00\n        /* \"contracts/CollegePollingSystem.sol\":1957:1967  uint i = 0 */\n      swap1\n      pop\n        /* \"contracts/CollegePollingSystem.sol\":1952:2158  for (uint i = 0; i < polls[pollIndex].options.length; i++) {... */\n    tag_63:\n        /* \"contracts/CollegePollingSystem.sol\":1973:1978  polls */\n      0x00\n        /* \"contracts/CollegePollingSystem.sol\":1973:1989  polls[pollIndex] */\n      dup1\n        /* \"contracts/CollegePollingSystem.sol\":1979:1988  pollIndex */\n      dup6\n        /* \"contracts/CollegePollingSystem.sol\":1973:1989  polls[pollIndex] */\n      dup2\n      mstore\n      0x20\n      add\n      swap1\n      dup2\n      mstore\n      0x20\n      add\n      0x00\n      keccak256\n        /* \"contracts/CollegePollingSystem.sol\":1973:1997  polls[pollIndex].options */\n      0x01\n      add\n        /* \"contracts/CollegePollingSystem.sol\":1973:2004  polls[pollIndex].options.length */\n      dup1\n      sload\n      swap1\n      pop\n        /* \"contracts/CollegePollingSystem.sol\":1969:1970  i */\n      dup2\n        /* \"contracts/CollegePollingSystem.sol\":1969:2004  i < polls[pollIndex].options.length */\n      lt\n        /* \"contracts/CollegePollingSystem.sol\":1952:2158  for (uint i = 0; i < polls[pollIndex].options.length; i++) {... */\n      iszero\n      tag_64\n      jumpi\n        /* \"contracts/CollegePollingSystem.sol\":2094:2100  option */\n      dup3\n        /* \"contracts/CollegePollingSystem.sol\":2078:2102  keccak256(bytes(option)) */\n      dup1\n      mload\n      swap1\n      0x20\n      add\n      keccak256\n        /* \"contracts/CollegePollingSystem.sol\":2045:2050  polls */\n      0x00\n        /* \"contracts/CollegePollingSystem.sol\":2045:2061  polls[pollIndex] */\n      dup1\n        /* \"contracts/CollegePollingSystem.sol\":2051:2060  pollIndex */\n      dup7\n        /* \"contracts/CollegePollingSystem.sol\":2045:2061  polls[pollIndex] */\n      dup2\n      mstore\n      0x20\n      add\n      swap1\n      dup2\n      mstore\n      0x20\n      add\n      0x00\n      keccak256\n        /* \"contracts/CollegePollingSystem.sol\":2045:2069  polls[pollIndex].options */\n      0x01\n      add\n        /* \"contracts/CollegePollingSystem.sol\":2070:2071  i */\n      dup3\n        /* \"contracts/CollegePollingSystem.sol\":2045:2072  polls[pollIndex].options[i] */\n      dup2\n      sload\n      dup2\n      lt\n      tag_66\n      jumpi\n      tag_67\n      tag_68\n      jump\t// in\n    tag_67:\n    tag_66:\n      swap1\n      0x00\n      mstore\n      keccak256(0x00, 0x20)\n      add\n        /* \"contracts/CollegePollingSystem.sol\":2029:2074  keccak256(bytes(polls[pollIndex].options[i])) */\n      mload(0x40)\n      tag_70\n      swap2\n      swap1\n      tag_71\n      jump\t// in\n    tag_70:\n      mload(0x40)\n      dup1\n      swap2\n      sub\n      swap1\n      keccak256\n        /* \"contracts/CollegePollingSystem.sol\":2029:2102  keccak256(bytes(polls[pollIndex].options[i])) == keccak256(bytes(option)) */\n      sub\n        /* \"contracts/CollegePollingSystem.sol\":2025:2148  if (keccak256(bytes(polls[pollIndex].options[i])) == keccak256(bytes(option))) {... */\n      tag_72\n      jumpi\n        /* \"contracts/CollegePollingSystem.sol\":2129:2133  true */\n      0x01\n        /* \"contracts/CollegePollingSystem.sol\":2122:2133  return true */\n      swap2\n      pop\n      pop\n      jump(tag_62)\n        /* \"contracts/CollegePollingSystem.sol\":2025:2148  if (keccak256(bytes(polls[pollIndex].options[i])) == keccak256(bytes(option))) {... */\n    tag_72:\n        /* \"contracts/CollegePollingSystem.sol\":2006:2009  i++ */\n      dup1\n      dup1\n      tag_73\n      swap1\n      tag_59\n      jump\t// in\n    tag_73:\n      swap2\n      pop\n      pop\n        /* \"contracts/CollegePollingSystem.sol\":1952:2158  for (uint i = 0; i < polls[pollIndex].options.length; i++) {... */\n      jump(tag_63)\n    tag_64:\n      pop\n        /* \"contracts/CollegePollingSystem.sol\":2174:2179  false */\n      0x00\n        /* \"contracts/CollegePollingSystem.sol\":2167:2179  return false */\n      swap1\n      pop\n        /* \"contracts/CollegePollingSystem.sol\":1854:2186  function isOptionValid(uint pollIndex, string memory option) public view returns (bool) {... */\n    tag_62:\n      swap3\n      swap2\n      pop\n      pop\n      jump\t// out\n        /* \"contracts/CollegePollingSystem.sol\":819:1105  function createPoll(string memory question, string[] memory options) public {... */\n    tag_23:\n        /* \"contracts/CollegePollingSystem.sol\":905:913  numPolls */\n      0x01\n      0x00\n        /* \"contracts/CollegePollingSystem.sol\":905:915  numPolls++ */\n      dup2\n      sload\n      dup1\n      swap3\n      swap2\n      swap1\n      tag_75\n      swap1\n      tag_59\n      jump\t// in\n    tag_75:\n      swap2\n      swap1\n      pop\n      sstore\n      pop\n        /* \"contracts/CollegePollingSystem.sol\":952:960  question */\n      dup2\n        /* \"contracts/CollegePollingSystem.sol\":925:930  polls */\n      0x00\n        /* \"contracts/CollegePollingSystem.sol\":925:940  polls[numPolls] */\n      dup1\n        /* \"contracts/CollegePollingSystem.sol\":931:939  numPolls */\n      sload(0x01)\n        /* \"contracts/CollegePollingSystem.sol\":925:940  polls[numPolls] */\n      dup2\n      mstore\n      0x20\n      add\n      swap1\n      dup2\n      mstore\n      0x20\n      add\n      0x00\n      keccak256\n        /* \"contracts/CollegePollingSystem.sol\":925:949  polls[numPolls].question */\n      0x00\n      add\n        /* \"contracts/CollegePollingSystem.sol\":925:960  polls[numPolls].question = question */\n      swap1\n      dup2\n      tag_76\n      swap2\n      swap1\n      tag_77\n      jump\t// in\n    tag_76:\n      pop\n        /* \"contracts/CollegePollingSystem.sol\":996:1003  options */\n      dup1\n        /* \"contracts/CollegePollingSystem.sol\":970:975  polls */\n      0x00\n        /* \"contracts/CollegePollingSystem.sol\":970:985  polls[numPolls] */\n      dup1\n        /* \"contracts/CollegePollingSystem.sol\":976:984  numPolls */\n      sload(0x01)\n        /* \"contracts/CollegePollingSystem.sol\":970:985  polls[numPolls] */\n      dup2\n      mstore\n      0x20\n      add\n      swap1\n      dup2\n      mstore\n      0x20\n      add\n      0x00\n      keccak256\n        /* \"contracts/CollegePollingSystem.sol\":970:993  polls[numPolls].options */\n      0x01\n      add\n        /* \"contracts/CollegePollingSystem.sol\":970:1003  polls[numPolls].options = options */\n      swap1\n      dup1\n      mload\n      swap1\n      0x20\n      add\n      swap1\n      tag_78\n      swap3\n      swap2\n      swap1\n      tag_79\n      jump\t// in\n    tag_78:\n      pop\n        /* \"contracts/CollegePollingSystem.sol\":1038:1042  true */\n      0x01\n        /* \"contracts/CollegePollingSystem.sol\":1013:1018  polls */\n      0x00\n        /* \"contracts/CollegePollingSystem.sol\":1013:1028  polls[numPolls] */\n      dup1\n        /* \"contracts/CollegePollingSystem.sol\":1019:1027  numPolls */\n      sload(0x01)\n        /* \"contracts/CollegePollingSystem.sol\":1013:1028  polls[numPolls] */\n      dup2\n      mstore\n      0x20\n      add\n      swap1\n      dup2\n      mstore\n      0x20\n      add\n      0x00\n      keccak256\n        /* \"contracts/CollegePollingSystem.sol\":1013:1035  polls[numPolls].active */\n      0x03\n      add\n      0x00\n        /* \"contracts/CollegePollingSystem.sol\":1013:1042  polls[numPolls].active = true */\n      0x0100\n      exp\n      dup2\n      sload\n      dup2\n      0xff\n      mul\n      not\n      and\n      swap1\n      dup4\n      iszero\n      iszero\n      mul\n      or\n      swap1\n      sstore\n      pop\n        /* \"contracts/CollegePollingSystem.sol\":1058:1098  PollCreated(numPolls, question, options) */\n      0x4be3f505bf50604bde92e6940e2df40c36f90cb362640413d520080ca12eabb2\n        /* \"contracts/CollegePollingSystem.sol\":1070:1078  numPolls */\n      sload(0x01)\n        /* \"contracts/CollegePollingSystem.sol\":1080:1088  question */\n      dup4\n        /* \"contracts/CollegePollingSystem.sol\":1090:1097  options */\n      dup4\n        /* \"contracts/CollegePollingSystem.sol\":1058:1098  PollCreated(numPolls, question, options) */\n      mload(0x40)\n      tag_80\n      swap4\n      swap3\n      swap2\n      swap1\n      tag_81\n      jump\t// in\n    tag_80:\n      mload(0x40)\n      dup1\n      swap2\n      sub\n      swap1\n      log1\n        /* \"contracts/CollegePollingSystem.sol\":819:1105  function createPoll(string memory question, string[] memory options) public {... */\n      pop\n      pop\n      jump\t// out\n        /* \"contracts/CollegePollingSystem.sol\":325:345  uint public numPolls */\n    tag_25:\n      sload(0x01)\n      dup2\n      jump\t// out\n        /* \"contracts/CollegePollingSystem.sol\":510:550  mapping (address => Voter) public voters */\n    tag_31:\n      mstore(0x20, 0x02)\n      dup1\n      0x00\n      mstore\n      keccak256(0x00, 0x40)\n      0x00\n      swap2\n      pop\n      swap1\n      pop\n      dup1\n      0x00\n      add\n      0x00\n      swap1\n      sload\n      swap1\n      0x0100\n      exp\n      swap1\n      div\n      0xff\n      and\n      swap1\n      dup1\n      0x01\n      add\n      sload\n      swap1\n      pop\n      dup3\n      jump\t// out\n        /* \"contracts/CollegePollingSystem.sol\":284:319  mapping (uint => Poll) public polls */\n    tag_37:\n      mstore(0x20, 0x00)\n      dup1\n      0x00\n      mstore\n      keccak256(0x00, 0x40)\n      0x00\n      swap2\n      pop\n      swap1\n      pop\n      dup1\n      0x00\n      add\n      dup1\n      sload\n      tag_82\n      swap1\n      tag_83\n      jump\t// in\n    tag_82:\n      dup1\n      0x1f\n      add\n      0x20\n      dup1\n      swap2\n      div\n      mul\n      0x20\n      add\n      mload(0x40)\n      swap1\n      dup2\n      add\n      0x40\n      mstore\n      dup1\n      swap3\n      swap2\n      swap1\n      dup2\n      dup2\n      mstore\n      0x20\n      add\n      dup3\n      dup1\n      sload\n      tag_84\n      swap1\n      tag_83\n      jump\t// in\n    tag_84:\n      dup1\n      iszero\n      tag_85\n      jumpi\n      dup1\n      0x1f\n      lt\n      tag_86\n      jumpi\n      0x0100\n      dup1\n      dup4\n      sload\n      div\n      mul\n      dup4\n      mstore\n      swap2\n      0x20\n      add\n      swap2\n      jump(tag_85)\n    tag_86:\n      dup3\n      add\n      swap2\n      swap1\n      0x00\n      mstore\n      keccak256(0x00, 0x20)\n      swap1\n    tag_87:\n      dup2\n      sload\n      dup2\n      mstore\n      swap1\n      0x01\n      add\n      swap1\n      0x20\n      add\n      dup1\n      dup4\n      gt\n      tag_87\n      jumpi\n      dup3\n      swap1\n      sub\n      0x1f\n      and\n      dup3\n      add\n      swap2\n    tag_85:\n      pop\n      pop\n      pop\n      pop\n      pop\n      swap1\n      dup1\n      0x03\n      add\n      0x00\n      swap1\n      sload\n      swap1\n      0x0100\n      exp\n      swap1\n      div\n      0xff\n      and\n      swap1\n      pop\n      dup3\n      jump\t// out\n        /* \"contracts/CollegePollingSystem.sol\":2237:2564  function getVotes(uint pollIndex, string memory option) public view returns (uint) {... */\n    tag_42:\n        /* \"contracts/CollegePollingSystem.sol\":2314:2318  uint */\n      0x00\n        /* \"contracts/CollegePollingSystem.sol\":2351:2359  numPolls */\n      sload(0x01)\n        /* \"contracts/CollegePollingSystem.sol\":2338:2347  pollIndex */\n      dup4\n        /* \"contracts/CollegePollingSystem.sol\":2338:2359  pollIndex <= numPolls */\n      gt\n      iszero\n        /* \"contracts/CollegePollingSystem.sol\":2338:2395  pollIndex <= numPolls && polls[pollIndex].active == false */\n      dup1\n      iszero\n      tag_89\n      jumpi\n      pop\n        /* \"contracts/CollegePollingSystem.sol\":2390:2395  false */\n      0x00\n        /* \"contracts/CollegePollingSystem.sol\":2363:2395  polls[pollIndex].active == false */\n      iszero\n      iszero\n        /* \"contracts/CollegePollingSystem.sol\":2363:2368  polls */\n      0x00\n        /* \"contracts/CollegePollingSystem.sol\":2363:2379  polls[pollIndex] */\n      dup1\n        /* \"contracts/CollegePollingSystem.sol\":2369:2378  pollIndex */\n      dup6\n        /* \"contracts/CollegePollingSystem.sol\":2363:2379  polls[pollIndex] */\n      dup2\n      mstore\n      0x20\n      add\n      swap1\n      dup2\n      mstore\n      0x20\n      add\n      0x00\n      keccak256\n        /* \"contracts/CollegePollingSystem.sol\":2363:2386  polls[pollIndex].active */\n      0x03\n      add\n      0x00\n      swap1\n      sload\n      swap1\n      0x0100\n      exp\n      swap1\n      div\n      0xff\n      and\n        /* \"contracts/CollegePollingSystem.sol\":2363:2395  polls[pollIndex].active == false */\n      iszero\n      iszero\n      eq\n        /* \"contracts/CollegePollingSystem.sol\":2338:2395  pollIndex <= numPolls && polls[pollIndex].active == false */\n    tag_89:\n        /* \"contracts/CollegePollingSystem.sol\":2330:2432  require(pollIndex <= numPolls && polls[pollIndex].active == false, \"Poll does not exist or is active\") */\n      tag_90\n      jumpi\n      mload(0x40)\n      0x08c379a000000000000000000000000000000000000000000000000000000000\n      dup2\n      mstore\n      0x04\n      add\n      tag_91\n      swap1\n      tag_92\n      jump\t// in\n    tag_91:\n      mload(0x40)\n      dup1\n      swap2\n      sub\n      swap1\n      revert\n    tag_90:\n        /* \"contracts/CollegePollingSystem.sol\":2486:2490  true */\n      0x01\n        /* \"contracts/CollegePollingSystem.sol\":2450:2490  isOptionValid(pollIndex, option) == true */\n      iszero\n      iszero\n        /* \"contracts/CollegePollingSystem.sol\":2450:2482  isOptionValid(pollIndex, option) */\n      tag_93\n        /* \"contracts/CollegePollingSystem.sol\":2464:2473  pollIndex */\n      dup5\n        /* \"contracts/CollegePollingSystem.sol\":2475:2481  option */\n      dup5\n        /* \"contracts/CollegePollingSystem.sol\":2450:2463  isOptionValid */\n      tag_17\n        /* \"contracts/CollegePollingSystem.sol\":2450:2482  isOptionValid(pollIndex, option) */\n      jump\t// in\n    tag_93:\n        /* \"contracts/CollegePollingSystem.sol\":2450:2490  isOptionValid(pollIndex, option) == true */\n      iszero\n      iszero\n      eq\n        /* \"contracts/CollegePollingSystem.sol\":2442:2509  require(isOptionValid(pollIndex, option) == true, \"Invalid option\") */\n      tag_94\n      jumpi\n      mload(0x40)\n      0x08c379a000000000000000000000000000000000000000000000000000000000\n      dup2\n      mstore\n      0x04\n      add\n      tag_95\n      swap1\n      tag_55\n      jump\t// in\n    tag_95:\n      mload(0x40)\n      dup1\n      swap2\n      sub\n      swap1\n      revert\n    tag_94:\n        /* \"contracts/CollegePollingSystem.sol\":2527:2532  polls */\n      0x00\n        /* \"contracts/CollegePollingSystem.sol\":2527:2543  polls[pollIndex] */\n      dup1\n        /* \"contracts/CollegePollingSystem.sol\":2533:2542  pollIndex */\n      dup5\n        /* \"contracts/CollegePollingSystem.sol\":2527:2543  polls[pollIndex] */\n      dup2\n      mstore\n      0x20\n      add\n      swap1\n      dup2\n      mstore\n      0x20\n      add\n      0x00\n      keccak256\n        /* \"contracts/CollegePollingSystem.sol\":2527:2549  polls[pollIndex].votes */\n      0x02\n      add\n        /* \"contracts/CollegePollingSystem.sol\":2550:2556  option */\n      dup3\n        /* \"contracts/CollegePollingSystem.sol\":2527:2557  polls[pollIndex].votes[option] */\n      mload(0x40)\n      tag_96\n      swap2\n      swap1\n      tag_57\n      jump\t// in\n    tag_96:\n      swap1\n      dup2\n      mstore\n      0x20\n      add\n      mload(0x40)\n      dup1\n      swap2\n      sub\n      swap1\n      keccak256\n      sload\n        /* \"contracts/CollegePollingSystem.sol\":2520:2557  return polls[pollIndex].votes[option] */\n      swap1\n      pop\n        /* \"contracts/CollegePollingSystem.sol\":2237:2564  function getVotes(uint pollIndex, string memory option) public view returns (uint) {... */\n      swap3\n      swap2\n      pop\n      pop\n      jump\t// out\n    tag_79:\n      dup3\n      dup1\n      sload\n      dup3\n      dup3\n      sstore\n      swap1\n      0x00\n      mstore\n      keccak256(0x00, 0x20)\n      swap1\n      dup2\n      add\n      swap3\n      dup3\n      iszero\n      tag_97\n      jumpi\n      swap2\n      0x20\n      mul\n      dup3\n      add\n    tag_98:\n      dup3\n      dup2\n      gt\n      iszero\n      tag_99\n      jumpi\n      dup3\n      mload\n      dup3\n      swap1\n      dup2\n      tag_100\n      swap2\n      swap1\n      tag_77\n      jump\t// in\n    tag_100:\n      pop\n      swap2\n      0x20\n      add\n      swap2\n      swap1\n      0x01\n      add\n      swap1\n      jump(tag_98)\n    tag_99:\n    tag_97:\n      pop\n      swap1\n      pop\n      tag_101\n      swap2\n      swap1\n      tag_102\n      jump\t// in\n    tag_101:\n      pop\n      swap1\n      jump\t// out\n    tag_102:\n    tag_103:\n      dup1\n      dup3\n      gt\n      iszero\n      tag_104\n      jumpi\n      0x00\n      dup2\n      dup2\n      tag_105\n      swap2\n      swap1\n      tag_106\n      jump\t// in\n    tag_105:\n      pop\n      0x01\n      add\n      jump(tag_103)\n    tag_104:\n      pop\n      swap1\n      jump\t// out\n    tag_106:\n      pop\n      dup1\n      sload\n      tag_107\n      swap1\n      tag_83\n      jump\t// in\n    tag_107:\n      0x00\n      dup3\n      sstore\n      dup1\n      0x1f\n      lt\n      tag_109\n      jumpi\n      pop\n      jump(tag_108)\n    tag_109:\n      0x1f\n      add\n      0x20\n      swap1\n      div\n      swap1\n      0x00\n      mstore\n      keccak256(0x00, 0x20)\n      swap1\n      dup2\n      add\n      swap1\n      tag_110\n      swap2\n      swap1\n      tag_111\n      jump\t// in\n    tag_110:\n    tag_108:\n      pop\n      jump\t// out\n    tag_111:\n    tag_112:\n      dup1\n      dup3\n      gt\n      iszero\n      tag_113\n      jumpi\n      0x00\n      dup2\n      0x00\n      swap1\n      sstore\n      pop\n      0x01\n      add\n      jump(tag_112)\n    tag_113:\n      pop\n      swap1\n      jump\t// out\n        /* \"#utility.yul\":7:82   */\n    tag_114:\n        /* \"#utility.yul\":40:46   */\n      0x00\n        /* \"#utility.yul\":73:75   */\n      0x40\n        /* \"#utility.yul\":67:76   */\n      mload\n        /* \"#utility.yul\":57:76   */\n      swap1\n      pop\n        /* \"#utility.yul\":7:82   */\n      swap1\n      jump\t// out\n        /* \"#utility.yul\":88:205   */\n    tag_115:\n        /* \"#utility.yul\":197:198   */\n      0x00\n        /* \"#utility.yul\":194:195   */\n      dup1\n        /* \"#utility.yul\":187:199   */\n      revert\n        /* \"#utility.yul\":211:328   */\n    tag_116:\n        /* \"#utility.yul\":320:321   */\n      0x00\n        /* \"#utility.yul\":317:318   */\n      dup1\n        /* \"#utility.yul\":310:322   */\n      revert\n        /* \"#utility.yul\":334:411   */\n    tag_117:\n        /* \"#utility.yul\":371:378   */\n      0x00\n        /* \"#utility.yul\":400:405   */\n      dup2\n        /* \"#utility.yul\":389:405   */\n      swap1\n      pop\n        /* \"#utility.yul\":334:411   */\n      swap2\n      swap1\n      pop\n      jump\t// out\n        /* \"#utility.yul\":417:539   */\n    tag_118:\n        /* \"#utility.yul\":490:514   */\n      tag_190\n        /* \"#utility.yul\":508:513   */\n      dup2\n        /* \"#utility.yul\":490:514   */\n      tag_117\n      jump\t// in\n    tag_190:\n        /* \"#utility.yul\":483:488   */\n      dup2\n        /* \"#utility.yul\":480:515   */\n      eq\n        /* \"#utility.yul\":470:533   */\n      tag_191\n      jumpi\n        /* \"#utility.yul\":529:530   */\n      0x00\n        /* \"#utility.yul\":526:527   */\n      dup1\n        /* \"#utility.yul\":519:531   */\n      revert\n        /* \"#utility.yul\":470:533   */\n    tag_191:\n        /* \"#utility.yul\":417:539   */\n      pop\n      jump\t// out\n        /* \"#utility.yul\":545:684   */\n    tag_119:\n        /* \"#utility.yul\":591:596   */\n      0x00\n        /* \"#utility.yul\":629:635   */\n      dup2\n        /* \"#utility.yul\":616:636   */\n      calldataload\n        /* \"#utility.yul\":607:636   */\n      swap1\n      pop\n        /* \"#utility.yul\":645:678   */\n      tag_193\n        /* \"#utility.yul\":672:677   */\n      dup2\n        /* \"#utility.yul\":645:678   */\n      tag_118\n      jump\t// in\n    tag_193:\n        /* \"#utility.yul\":545:684   */\n      swap3\n      swap2\n      pop\n      pop\n      jump\t// out\n        /* \"#utility.yul\":690:807   */\n    tag_120:\n        /* \"#utility.yul\":799:800   */\n      0x00\n        /* \"#utility.yul\":796:797   */\n      dup1\n        /* \"#utility.yul\":789:801   */\n      revert\n        /* \"#utility.yul\":813:930   */\n    tag_121:\n        /* \"#utility.yul\":922:923   */\n      0x00\n        /* \"#utility.yul\":919:920   */\n      dup1\n        /* \"#utility.yul\":912:924   */\n      revert\n        /* \"#utility.yul\":936:1038   */\n    tag_122:\n        /* \"#utility.yul\":977:983   */\n      0x00\n        /* \"#utility.yul\":1028:1030   */\n      0x1f\n        /* \"#utility.yul\":1024:1031   */\n      not\n        /* \"#utility.yul\":1019:1021   */\n      0x1f\n        /* \"#utility.yul\":1012:1017   */\n      dup4\n        /* \"#utility.yul\":1008:1022   */\n      add\n        /* \"#utility.yul\":1004:1032   */\n      and\n        /* \"#utility.yul\":994:1032   */\n      swap1\n      pop\n        /* \"#utility.yul\":936:1038   */\n      swap2\n      swap1\n      pop\n      jump\t// out\n        /* \"#utility.yul\":1044:1224   */\n    tag_123:\n        /* \"#utility.yul\":1092:1169   */\n      0x4e487b7100000000000000000000000000000000000000000000000000000000\n        /* \"#utility.yul\":1089:1090   */\n      0x00\n        /* \"#utility.yul\":1082:1170   */\n      mstore\n        /* \"#utility.yul\":1189:1193   */\n      0x41\n        /* \"#utility.yul\":1186:1187   */\n      0x04\n        /* \"#utility.yul\":1179:1194   */\n      mstore\n        /* \"#utility.yul\":1213:1217   */\n      0x24\n        /* \"#utility.yul\":1210:1211   */\n      0x00\n        /* \"#utility.yul\":1203:1218   */\n      revert\n        /* \"#utility.yul\":1230:1511   */\n    tag_124:\n        /* \"#utility.yul\":1313:1340   */\n      tag_199\n        /* \"#utility.yul\":1335:1339   */\n      dup3\n        /* \"#utility.yul\":1313:1340   */\n      tag_122\n      jump\t// in\n    tag_199:\n        /* \"#utility.yul\":1305:1311   */\n      dup2\n        /* \"#utility.yul\":1301:1341   */\n      add\n        /* \"#utility.yul\":1443:1449   */\n      dup2\n        /* \"#utility.yul\":1431:1441   */\n      dup2\n        /* \"#utility.yul\":1428:1450   */\n      lt\n        /* \"#utility.yul\":1407:1425   */\n      0xffffffffffffffff\n        /* \"#utility.yul\":1395:1405   */\n      dup3\n        /* \"#utility.yul\":1392:1426   */\n      gt\n        /* \"#utility.yul\":1389:1451   */\n      or\n        /* \"#utility.yul\":1386:1474   */\n      iszero\n      tag_200\n      jumpi\n        /* \"#utility.yul\":1454:1472   */\n      tag_201\n      tag_123\n      jump\t// in\n    tag_201:\n        /* \"#utility.yul\":1386:1474   */\n    tag_200:\n        /* \"#utility.yul\":1494:1504   */\n      dup1\n        /* \"#utility.yul\":1490:1492   */\n      0x40\n        /* \"#utility.yul\":1483:1505   */\n      mstore\n        /* \"#utility.yul\":1273:1511   */\n      pop\n        /* \"#utility.yul\":1230:1511   */\n      pop\n      pop\n      jump\t// out\n        /* \"#utility.yul\":1517:1646   */\n    tag_125:\n        /* \"#utility.yul\":1551:1557   */\n      0x00\n        /* \"#utility.yul\":1578:1598   */\n      tag_203\n      tag_114\n      jump\t// in\n    tag_203:\n        /* \"#utility.yul\":1568:1598   */\n      swap1\n      pop\n        /* \"#utility.yul\":1607:1640   */\n      tag_204\n        /* \"#utility.yul\":1635:1639   */\n      dup3\n        /* \"#utility.yul\":1627:1633   */\n      dup3\n        /* \"#utility.yul\":1607:1640   */\n      tag_124\n      jump\t// in\n    tag_204:\n        /* \"#utility.yul\":1517:1646   */\n      swap2\n      swap1\n      pop\n      jump\t// out\n        /* \"#utility.yul\":1652:1960   */\n    tag_126:\n        /* \"#utility.yul\":1714:1718   */\n      0x00\n        /* \"#utility.yul\":1804:1822   */\n      0xffffffffffffffff\n        /* \"#utility.yul\":1796:1802   */\n      dup3\n        /* \"#utility.yul\":1793:1823   */\n      gt\n        /* \"#utility.yul\":1790:1846   */\n      iszero\n      tag_206\n      jumpi\n        /* \"#utility.yul\":1826:1844   */\n      tag_207\n      tag_123\n      jump\t// in\n    tag_207:\n        /* \"#utility.yul\":1790:1846   */\n    tag_206:\n        /* \"#utility.yul\":1864:1893   */\n      tag_208\n        /* \"#utility.yul\":1886:1892   */\n      dup3\n        /* \"#utility.yul\":1864:1893   */\n      tag_122\n      jump\t// in\n    tag_208:\n        /* \"#utility.yul\":1856:1893   */\n      swap1\n      pop\n        /* \"#utility.yul\":1948:1952   */\n      0x20\n        /* \"#utility.yul\":1942:1946   */\n      dup2\n        /* \"#utility.yul\":1938:1953   */\n      add\n        /* \"#utility.yul\":1930:1953   */\n      swap1\n      pop\n        /* \"#utility.yul\":1652:1960   */\n      swap2\n      swap1\n      pop\n      jump\t// out\n        /* \"#utility.yul\":1966:2112   */\n    tag_127:\n        /* \"#utility.yul\":2063:2069   */\n      dup3\n        /* \"#utility.yul\":2058:2061   */\n      dup2\n        /* \"#utility.yul\":2053:2056   */\n      dup4\n        /* \"#utility.yul\":2040:2070   */\n      calldatacopy\n        /* \"#utility.yul\":2104:2105   */\n      0x00\n        /* \"#utility.yul\":2095:2101   */\n      dup4\n        /* \"#utility.yul\":2090:2093   */\n      dup4\n        /* \"#utility.yul\":2086:2102   */\n      add\n        /* \"#utility.yul\":2079:2106   */\n      mstore\n        /* \"#utility.yul\":1966:2112   */\n      pop\n      pop\n      pop\n      jump\t// out\n        /* \"#utility.yul\":2118:2543   */\n    tag_128:\n        /* \"#utility.yul\":2196:2201   */\n      0x00\n        /* \"#utility.yul\":2221:2287   */\n      tag_211\n        /* \"#utility.yul\":2237:2286   */\n      tag_212\n        /* \"#utility.yul\":2279:2285   */\n      dup5\n        /* \"#utility.yul\":2237:2286   */\n      tag_126\n      jump\t// in\n    tag_212:\n        /* \"#utility.yul\":2221:2287   */\n      tag_125\n      jump\t// in\n    tag_211:\n        /* \"#utility.yul\":2212:2287   */\n      swap1\n      pop\n        /* \"#utility.yul\":2310:2316   */\n      dup3\n        /* \"#utility.yul\":2303:2308   */\n      dup2\n        /* \"#utility.yul\":2296:2317   */\n      mstore\n        /* \"#utility.yul\":2348:2352   */\n      0x20\n        /* \"#utility.yul\":2341:2346   */\n      dup2\n        /* \"#utility.yul\":2337:2353   */\n      add\n        /* \"#utility.yul\":2386:2389   */\n      dup5\n        /* \"#utility.yul\":2377:2383   */\n      dup5\n        /* \"#utility.yul\":2372:2375   */\n      dup5\n        /* \"#utility.yul\":2368:2384   */\n      add\n        /* \"#utility.yul\":2365:2390   */\n      gt\n        /* \"#utility.yul\":2362:2474   */\n      iszero\n      tag_213\n      jumpi\n        /* \"#utility.yul\":2393:2472   */\n      tag_214\n      tag_121\n      jump\t// in\n    tag_214:\n        /* \"#utility.yul\":2362:2474   */\n    tag_213:\n        /* \"#utility.yul\":2483:2537   */\n      tag_215\n        /* \"#utility.yul\":2530:2536   */\n      dup5\n        /* \"#utility.yul\":2525:2528   */\n      dup3\n        /* \"#utility.yul\":2520:2523   */\n      dup6\n        /* \"#utility.yul\":2483:2537   */\n      tag_127\n      jump\t// in\n    tag_215:\n        /* \"#utility.yul\":2202:2543   */\n      pop\n        /* \"#utility.yul\":2118:2543   */\n      swap4\n      swap3\n      pop\n      pop\n      pop\n      jump\t// out\n        /* \"#utility.yul\":2563:2903   */\n    tag_129:\n        /* \"#utility.yul\":2619:2624   */\n      0x00\n        /* \"#utility.yul\":2668:2671   */\n      dup3\n        /* \"#utility.yul\":2661:2665   */\n      0x1f\n        /* \"#utility.yul\":2653:2659   */\n      dup4\n        /* \"#utility.yul\":2649:2666   */\n      add\n        /* \"#utility.yul\":2645:2672   */\n      slt\n        /* \"#utility.yul\":2635:2757   */\n      tag_217\n      jumpi\n        /* \"#utility.yul\":2676:2755   */\n      tag_218\n      tag_120\n      jump\t// in\n    tag_218:\n        /* \"#utility.yul\":2635:2757   */\n    tag_217:\n        /* \"#utility.yul\":2793:2799   */\n      dup2\n        /* \"#utility.yul\":2780:2800   */\n      calldataload\n        /* \"#utility.yul\":2818:2897   */\n      tag_219\n        /* \"#utility.yul\":2893:2896   */\n      dup5\n        /* \"#utility.yul\":2885:2891   */\n      dup3\n        /* \"#utility.yul\":2878:2882   */\n      0x20\n        /* \"#utility.yul\":2870:2876   */\n      dup7\n        /* \"#utility.yul\":2866:2883   */\n      add\n        /* \"#utility.yul\":2818:2897   */\n      tag_128\n      jump\t// in\n    tag_219:\n        /* \"#utility.yul\":2809:2897   */\n      swap2\n      pop\n        /* \"#utility.yul\":2625:2903   */\n      pop\n        /* \"#utility.yul\":2563:2903   */\n      swap3\n      swap2\n      pop\n      pop\n      jump\t// out\n        /* \"#utility.yul\":2909:3563   */\n    tag_13:\n        /* \"#utility.yul\":2987:2993   */\n      0x00\n        /* \"#utility.yul\":2995:3001   */\n      dup1\n        /* \"#utility.yul\":3044:3046   */\n      0x40\n        /* \"#utility.yul\":3032:3041   */\n      dup4\n        /* \"#utility.yul\":3023:3030   */\n      dup6\n        /* \"#utility.yul\":3019:3042   */\n      sub\n        /* \"#utility.yul\":3015:3047   */\n      slt\n        /* \"#utility.yul\":3012:3131   */\n      iszero\n      tag_221\n      jumpi\n        /* \"#utility.yul\":3050:3129   */\n      tag_222\n      tag_115\n      jump\t// in\n    tag_222:\n        /* \"#utility.yul\":3012:3131   */\n    tag_221:\n        /* \"#utility.yul\":3170:3171   */\n      0x00\n        /* \"#utility.yul\":3195:3248   */\n      tag_223\n        /* \"#utility.yul\":3240:3247   */\n      dup6\n        /* \"#utility.yul\":3231:3237   */\n      dup3\n        /* \"#utility.yul\":3220:3229   */\n      dup7\n        /* \"#utility.yul\":3216:3238   */\n      add\n        /* \"#utility.yul\":3195:3248   */\n      tag_119\n      jump\t// in\n    tag_223:\n        /* \"#utility.yul\":3185:3248   */\n      swap3\n      pop\n        /* \"#utility.yul\":3141:3258   */\n      pop\n        /* \"#utility.yul\":3325:3327   */\n      0x20\n        /* \"#utility.yul\":3314:3323   */\n      dup4\n        /* \"#utility.yul\":3310:3328   */\n      add\n        /* \"#utility.yul\":3297:3329   */\n      calldataload\n        /* \"#utility.yul\":3356:3374   */\n      0xffffffffffffffff\n        /* \"#utility.yul\":3348:3354   */\n      dup2\n        /* \"#utility.yul\":3345:3375   */\n      gt\n        /* \"#utility.yul\":3342:3459   */\n      iszero\n      tag_224\n      jumpi\n        /* \"#utility.yul\":3378:3457   */\n      tag_225\n      tag_116\n      jump\t// in\n    tag_225:\n        /* \"#utility.yul\":3342:3459   */\n    tag_224:\n        /* \"#utility.yul\":3483:3546   */\n      tag_226\n        /* \"#utility.yul\":3538:3545   */\n      dup6\n        /* \"#utility.yul\":3529:3535   */\n      dup3\n        /* \"#utility.yul\":3518:3527   */\n      dup7\n        /* \"#utility.yul\":3514:3536   */\n      add\n        /* \"#utility.yul\":3483:3546   */\n      tag_129\n      jump\t// in\n    tag_226:\n        /* \"#utility.yul\":3473:3546   */\n      swap2\n      pop\n        /* \"#utility.yul\":3268:3556   */\n      pop\n        /* \"#utility.yul\":2909:3563   */\n      swap3\n      pop\n      swap3\n      swap1\n      pop\n      jump\t// out\n        /* \"#utility.yul\":3569:3659   */\n    tag_130:\n        /* \"#utility.yul\":3603:3610   */\n      0x00\n        /* \"#utility.yul\":3646:3651   */\n      dup2\n        /* \"#utility.yul\":3639:3652   */\n      iszero\n        /* \"#utility.yul\":3632:3653   */\n      iszero\n        /* \"#utility.yul\":3621:3653   */\n      swap1\n      pop\n        /* \"#utility.yul\":3569:3659   */\n      swap2\n      swap1\n      pop\n      jump\t// out\n        /* \"#utility.yul\":3665:3774   */\n    tag_131:\n        /* \"#utility.yul\":3746:3767   */\n      tag_229\n        /* \"#utility.yul\":3761:3766   */\n      dup2\n        /* \"#utility.yul\":3746:3767   */\n      tag_130\n      jump\t// in\n    tag_229:\n        /* \"#utility.yul\":3741:3744   */\n      dup3\n        /* \"#utility.yul\":3734:3768   */\n      mstore\n        /* \"#utility.yul\":3665:3774   */\n      pop\n      pop\n      jump\t// out\n        /* \"#utility.yul\":3780:3990   */\n    tag_19:\n        /* \"#utility.yul\":3867:3871   */\n      0x00\n        /* \"#utility.yul\":3905:3907   */\n      0x20\n        /* \"#utility.yul\":3894:3903   */\n      dup3\n        /* \"#utility.yul\":3890:3908   */\n      add\n        /* \"#utility.yul\":3882:3908   */\n      swap1\n      pop\n        /* \"#utility.yul\":3918:3983   */\n      tag_231\n        /* \"#utility.yul\":3980:3981   */\n      0x00\n        /* \"#utility.yul\":3969:3978   */\n      dup4\n        /* \"#utility.yul\":3965:3982   */\n      add\n        /* \"#utility.yul\":3956:3962   */\n      dup5\n        /* \"#utility.yul\":3918:3983   */\n      tag_131\n      jump\t// in\n    tag_231:\n        /* \"#utility.yul\":3780:3990   */\n      swap3\n      swap2\n      pop\n      pop\n      jump\t// out\n        /* \"#utility.yul\":3996:4317   */\n    tag_132:\n        /* \"#utility.yul\":4083:4087   */\n      0x00\n        /* \"#utility.yul\":4173:4191   */\n      0xffffffffffffffff\n        /* \"#utility.yul\":4165:4171   */\n      dup3\n        /* \"#utility.yul\":4162:4192   */\n      gt\n        /* \"#utility.yul\":4159:4215   */\n      iszero\n      tag_233\n      jumpi\n        /* \"#utility.yul\":4195:4213   */\n      tag_234\n      tag_123\n      jump\t// in\n    tag_234:\n        /* \"#utility.yul\":4159:4215   */\n    tag_233:\n        /* \"#utility.yul\":4245:4249   */\n      0x20\n        /* \"#utility.yul\":4237:4243   */\n      dup3\n        /* \"#utility.yul\":4233:4250   */\n      mul\n        /* \"#utility.yul\":4225:4250   */\n      swap1\n      pop\n        /* \"#utility.yul\":4305:4309   */\n      0x20\n        /* \"#utility.yul\":4299:4303   */\n      dup2\n        /* \"#utility.yul\":4295:4310   */\n      add\n        /* \"#utility.yul\":4287:4310   */\n      swap1\n      pop\n        /* \"#utility.yul\":3996:4317   */\n      swap2\n      swap1\n      pop\n      jump\t// out\n        /* \"#utility.yul\":4323:4440   */\n    tag_133:\n        /* \"#utility.yul\":4432:4433   */\n      0x00\n        /* \"#utility.yul\":4429:4430   */\n      dup1\n        /* \"#utility.yul\":4422:4434   */\n      revert\n        /* \"#utility.yul\":4462:5407   */\n    tag_134:\n        /* \"#utility.yul\":4568:4573   */\n      0x00\n        /* \"#utility.yul\":4593:4684   */\n      tag_237\n        /* \"#utility.yul\":4609:4683   */\n      tag_238\n        /* \"#utility.yul\":4676:4682   */\n      dup5\n        /* \"#utility.yul\":4609:4683   */\n      tag_132\n      jump\t// in\n    tag_238:\n        /* \"#utility.yul\":4593:4684   */\n      tag_125\n      jump\t// in\n    tag_237:\n        /* \"#utility.yul\":4584:4684   */\n      swap1\n      pop\n        /* \"#utility.yul\":4704:4709   */\n      dup1\n        /* \"#utility.yul\":4733:4739   */\n      dup4\n        /* \"#utility.yul\":4726:4731   */\n      dup3\n        /* \"#utility.yul\":4719:4740   */\n      mstore\n        /* \"#utility.yul\":4767:4771   */\n      0x20\n        /* \"#utility.yul\":4760:4765   */\n      dup3\n        /* \"#utility.yul\":4756:4772   */\n      add\n        /* \"#utility.yul\":4749:4772   */\n      swap1\n      pop\n        /* \"#utility.yul\":4820:4824   */\n      0x20\n        /* \"#utility.yul\":4812:4818   */\n      dup5\n        /* \"#utility.yul\":4808:4825   */\n      mul\n        /* \"#utility.yul\":4800:4806   */\n      dup4\n        /* \"#utility.yul\":4796:4826   */\n      add\n        /* \"#utility.yul\":4849:4852   */\n      dup6\n        /* \"#utility.yul\":4841:4847   */\n      dup2\n        /* \"#utility.yul\":4838:4853   */\n      gt\n        /* \"#utility.yul\":4835:4957   */\n      iszero\n      tag_239\n      jumpi\n        /* \"#utility.yul\":4868:4947   */\n      tag_240\n      tag_133\n      jump\t// in\n    tag_240:\n        /* \"#utility.yul\":4835:4957   */\n    tag_239:\n        /* \"#utility.yul\":4983:4989   */\n      dup4\n        /* \"#utility.yul\":4966:5401   */\n    tag_241:\n        /* \"#utility.yul\":5000:5006   */\n      dup2\n        /* \"#utility.yul\":4995:4998   */\n      dup2\n        /* \"#utility.yul\":4992:5007   */\n      lt\n        /* \"#utility.yul\":4966:5401   */\n      iszero\n      tag_243\n      jumpi\n        /* \"#utility.yul\":5089:5092   */\n      dup1\n        /* \"#utility.yul\":5076:5093   */\n      calldataload\n        /* \"#utility.yul\":5125:5143   */\n      0xffffffffffffffff\n        /* \"#utility.yul\":5112:5123   */\n      dup2\n        /* \"#utility.yul\":5109:5144   */\n      gt\n        /* \"#utility.yul\":5106:5228   */\n      iszero\n      tag_244\n      jumpi\n        /* \"#utility.yul\":5147:5226   */\n      tag_245\n      tag_120\n      jump\t// in\n    tag_245:\n        /* \"#utility.yul\":5106:5228   */\n    tag_244:\n        /* \"#utility.yul\":5271:5282   */\n      dup1\n        /* \"#utility.yul\":5263:5269   */\n      dup7\n        /* \"#utility.yul\":5259:5283   */\n      add\n        /* \"#utility.yul\":5309:5356   */\n      tag_246\n        /* \"#utility.yul\":5352:5355   */\n      dup10\n        /* \"#utility.yul\":5340:5350   */\n      dup3\n        /* \"#utility.yul\":5309:5356   */\n      tag_129\n      jump\t// in\n    tag_246:\n        /* \"#utility.yul\":5304:5307   */\n      dup6\n        /* \"#utility.yul\":5297:5357   */\n      mstore\n        /* \"#utility.yul\":5386:5390   */\n      0x20\n        /* \"#utility.yul\":5381:5384   */\n      dup6\n        /* \"#utility.yul\":5377:5391   */\n      add\n        /* \"#utility.yul\":5370:5391   */\n      swap5\n      pop\n        /* \"#utility.yul\":5042:5401   */\n      pop\n      pop\n        /* \"#utility.yul\":5026:5030   */\n      0x20\n        /* \"#utility.yul\":5021:5024   */\n      dup2\n        /* \"#utility.yul\":5017:5031   */\n      add\n        /* \"#utility.yul\":5010:5031   */\n      swap1\n      pop\n        /* \"#utility.yul\":4966:5401   */\n      jump(tag_241)\n    tag_243:\n        /* \"#utility.yul\":4970:4991   */\n      pop\n        /* \"#utility.yul\":4574:5407   */\n      pop\n      pop\n        /* \"#utility.yul\":4462:5407   */\n      swap4\n      swap3\n      pop\n      pop\n      pop\n      jump\t// out\n        /* \"#utility.yul\":5429:5819   */\n    tag_135:\n        /* \"#utility.yul\":5510:5515   */\n      0x00\n        /* \"#utility.yul\":5559:5562   */\n      dup3\n        /* \"#utility.yul\":5552:5556   */\n      0x1f\n        /* \"#utility.yul\":5544:5550   */\n      dup4\n        /* \"#utility.yul\":5540:5557   */\n      add\n        /* \"#utility.yul\":5536:5563   */\n      slt\n        /* \"#utility.yul\":5526:5648   */\n      tag_248\n      jumpi\n        /* \"#utility.yul\":5567:5646   */\n      tag_249\n      tag_120\n      jump\t// in\n    tag_249:\n        /* \"#utility.yul\":5526:5648   */\n    tag_248:\n        /* \"#utility.yul\":5684:5690   */\n      dup2\n        /* \"#utility.yul\":5671:5691   */\n      calldataload\n        /* \"#utility.yul\":5709:5813   */\n      tag_250\n        /* \"#utility.yul\":5809:5812   */\n      dup5\n        /* \"#utility.yul\":5801:5807   */\n      dup3\n        /* \"#utility.yul\":5794:5798   */\n      0x20\n        /* \"#utility.yul\":5786:5792   */\n      dup7\n        /* \"#utility.yul\":5782:5799   */\n      add\n        /* \"#utility.yul\":5709:5813   */\n      tag_134\n      jump\t// in\n    tag_250:\n        /* \"#utility.yul\":5700:5813   */\n      swap2\n      pop\n        /* \"#utility.yul\":5516:5819   */\n      pop\n        /* \"#utility.yul\":5429:5819   */\n      swap3\n      swap2\n      pop\n      pop\n      jump\t// out\n        /* \"#utility.yul\":5825:6709   */\n    tag_22:\n        /* \"#utility.yul\":5938:5944   */\n      0x00\n        /* \"#utility.yul\":5946:5952   */\n      dup1\n        /* \"#utility.yul\":5995:5997   */\n      0x40\n        /* \"#utility.yul\":5983:5992   */\n      dup4\n        /* \"#utility.yul\":5974:5981   */\n      dup6\n        /* \"#utility.yul\":5970:5993   */\n      sub\n        /* \"#utility.yul\":5966:5998   */\n      slt\n        /* \"#utility.yul\":5963:6082   */\n      iszero\n      tag_252\n      jumpi\n        /* \"#utility.yul\":6001:6080   */\n      tag_253\n      tag_115\n      jump\t// in\n    tag_253:\n        /* \"#utility.yul\":5963:6082   */\n    tag_252:\n        /* \"#utility.yul\":6149:6150   */\n      0x00\n        /* \"#utility.yul\":6138:6147   */\n      dup4\n        /* \"#utility.yul\":6134:6151   */\n      add\n        /* \"#utility.yul\":6121:6152   */\n      calldataload\n        /* \"#utility.yul\":6179:6197   */\n      0xffffffffffffffff\n        /* \"#utility.yul\":6171:6177   */\n      dup2\n        /* \"#utility.yul\":6168:6198   */\n      gt\n        /* \"#utility.yul\":6165:6282   */\n      iszero\n      tag_254\n      jumpi\n        /* \"#utility.yul\":6201:6280   */\n      tag_255\n      tag_116\n      jump\t// in\n    tag_255:\n        /* \"#utility.yul\":6165:6282   */\n    tag_254:\n        /* \"#utility.yul\":6306:6369   */\n      tag_256\n        /* \"#utility.yul\":6361:6368   */\n      dup6\n        /* \"#utility.yul\":6352:6358   */\n      dup3\n        /* \"#utility.yul\":6341:6350   */\n      dup7\n        /* \"#utility.yul\":6337:6359   */\n      add\n        /* \"#utility.yul\":6306:6369   */\n      tag_129\n      jump\t// in\n    tag_256:\n        /* \"#utility.yul\":6296:6369   */\n      swap3\n      pop\n        /* \"#utility.yul\":6092:6379   */\n      pop\n        /* \"#utility.yul\":6446:6448   */\n      0x20\n        /* \"#utility.yul\":6435:6444   */\n      dup4\n        /* \"#utility.yul\":6431:6449   */\n      add\n        /* \"#utility.yul\":6418:6450   */\n      calldataload\n        /* \"#utility.yul\":6477:6495   */\n      0xffffffffffffffff\n        /* \"#utility.yul\":6469:6475   */\n      dup2\n        /* \"#utility.yul\":6466:6496   */\n      gt\n        /* \"#utility.yul\":6463:6580   */\n      iszero\n      tag_257\n      jumpi\n        /* \"#utility.yul\":6499:6578   */\n      tag_258\n      tag_116\n      jump\t// in\n    tag_258:\n        /* \"#utility.yul\":6463:6580   */\n    tag_257:\n        /* \"#utility.yul\":6604:6692   */\n      tag_259\n        /* \"#utility.yul\":6684:6691   */\n      dup6\n        /* \"#utility.yul\":6675:6681   */\n      dup3\n        /* \"#utility.yul\":6664:6673   */\n      dup7\n        /* \"#utility.yul\":6660:6682   */\n      add\n        /* \"#utility.yul\":6604:6692   */\n      tag_135\n      jump\t// in\n    tag_259:\n        /* \"#utility.yul\":6594:6692   */\n      swap2\n      pop\n        /* \"#utility.yul\":6389:6702   */\n      pop\n        /* \"#utility.yul\":5825:6709   */\n      swap3\n      pop\n      swap3\n      swap1\n      pop\n      jump\t// out\n        /* \"#utility.yul\":6715:6833   */\n    tag_136:\n        /* \"#utility.yul\":6802:6826   */\n      tag_261\n        /* \"#utility.yul\":6820:6825   */\n      dup2\n        /* \"#utility.yul\":6802:6826   */\n      tag_117\n      jump\t// in\n    tag_261:\n        /* \"#utility.yul\":6797:6800   */\n      dup3\n        /* \"#utility.yul\":6790:6827   */\n      mstore\n        /* \"#utility.yul\":6715:6833   */\n      pop\n      pop\n      jump\t// out\n        /* \"#utility.yul\":6839:7061   */\n    tag_27:\n        /* \"#utility.yul\":6932:6936   */\n      0x00\n        /* \"#utility.yul\":6970:6972   */\n      0x20\n        /* \"#utility.yul\":6959:6968   */\n      dup3\n        /* \"#utility.yul\":6955:6973   */\n      add\n        /* \"#utility.yul\":6947:6973   */\n      swap1\n      pop\n        /* \"#utility.yul\":6983:7054   */\n      tag_263\n        /* \"#utility.yul\":7051:7052   */\n      0x00\n        /* \"#utility.yul\":7040:7049   */\n      dup4\n        /* \"#utility.yul\":7036:7053   */\n      add\n        /* \"#utility.yul\":7027:7033   */\n      dup5\n        /* \"#utility.yul\":6983:7054   */\n      tag_136\n      jump\t// in\n    tag_263:\n        /* \"#utility.yul\":6839:7061   */\n      swap3\n      swap2\n      pop\n      pop\n      jump\t// out\n        /* \"#utility.yul\":7067:7193   */\n    tag_137:\n        /* \"#utility.yul\":7104:7111   */\n      0x00\n        /* \"#utility.yul\":7144:7186   */\n      0xffffffffffffffffffffffffffffffffffffffff\n        /* \"#utility.yul\":7137:7142   */\n      dup3\n        /* \"#utility.yul\":7133:7187   */\n      and\n        /* \"#utility.yul\":7122:7187   */\n      swap1\n      pop\n        /* \"#utility.yul\":7067:7193   */\n      swap2\n      swap1\n      pop\n      jump\t// out\n        /* \"#utility.yul\":7199:7295   */\n    tag_138:\n        /* \"#utility.yul\":7236:7243   */\n      0x00\n        /* \"#utility.yul\":7265:7289   */\n      tag_266\n        /* \"#utility.yul\":7283:7288   */\n      dup3\n        /* \"#utility.yul\":7265:7289   */\n      tag_137\n      jump\t// in\n    tag_266:\n        /* \"#utility.yul\":7254:7289   */\n      swap1\n      pop\n        /* \"#utility.yul\":7199:7295   */\n      swap2\n      swap1\n      pop\n      jump\t// out\n        /* \"#utility.yul\":7301:7423   */\n    tag_139:\n        /* \"#utility.yul\":7374:7398   */\n      tag_268\n        /* \"#utility.yul\":7392:7397   */\n      dup2\n        /* \"#utility.yul\":7374:7398   */\n      tag_138\n      jump\t// in\n    tag_268:\n        /* \"#utility.yul\":7367:7372   */\n      dup2\n        /* \"#utility.yul\":7364:7399   */\n      eq\n        /* \"#utility.yul\":7354:7417   */\n      tag_269\n      jumpi\n        /* \"#utility.yul\":7413:7414   */\n      0x00\n        /* \"#utility.yul\":7410:7411   */\n      dup1\n        /* \"#utility.yul\":7403:7415   */\n      revert\n        /* \"#utility.yul\":7354:7417   */\n    tag_269:\n        /* \"#utility.yul\":7301:7423   */\n      pop\n      jump\t// out\n        /* \"#utility.yul\":7429:7568   */\n    tag_140:\n        /* \"#utility.yul\":7475:7480   */\n      0x00\n        /* \"#utility.yul\":7513:7519   */\n      dup2\n        /* \"#utility.yul\":7500:7520   */\n      calldataload\n        /* \"#utility.yul\":7491:7520   */\n      swap1\n      pop\n        /* \"#utility.yul\":7529:7562   */\n      tag_271\n        /* \"#utility.yul\":7556:7561   */\n      dup2\n        /* \"#utility.yul\":7529:7562   */\n      tag_139\n      jump\t// in\n    tag_271:\n        /* \"#utility.yul\":7429:7568   */\n      swap3\n      swap2\n      pop\n      pop\n      jump\t// out\n        /* \"#utility.yul\":7574:7903   */\n    tag_30:\n        /* \"#utility.yul\":7633:7639   */\n      0x00\n        /* \"#utility.yul\":7682:7684   */\n      0x20\n        /* \"#utility.yul\":7670:7679   */\n      dup3\n        /* \"#utility.yul\":7661:7668   */\n      dup5\n        /* \"#utility.yul\":7657:7680   */\n      sub\n        /* \"#utility.yul\":7653:7685   */\n      slt\n        /* \"#utility.yul\":7650:7769   */\n      iszero\n      tag_273\n      jumpi\n        /* \"#utility.yul\":7688:7767   */\n      tag_274\n      tag_115\n      jump\t// in\n    tag_274:\n        /* \"#utility.yul\":7650:7769   */\n    tag_273:\n        /* \"#utility.yul\":7808:7809   */\n      0x00\n        /* \"#utility.yul\":7833:7886   */\n      tag_275\n        /* \"#utility.yul\":7878:7885   */\n      dup5\n        /* \"#utility.yul\":7869:7875   */\n      dup3\n        /* \"#utility.yul\":7858:7867   */\n      dup6\n        /* \"#utility.yul\":7854:7876   */\n      add\n        /* \"#utility.yul\":7833:7886   */\n      tag_140\n      jump\t// in\n    tag_275:\n        /* \"#utility.yul\":7823:7886   */\n      swap2\n      pop\n        /* \"#utility.yul\":7779:7896   */\n      pop\n        /* \"#utility.yul\":7574:7903   */\n      swap3\n      swap2\n      pop\n      pop\n      jump\t// out\n        /* \"#utility.yul\":7909:8229   */\n    tag_33:\n        /* \"#utility.yul\":8024:8028   */\n      0x00\n        /* \"#utility.yul\":8062:8064   */\n      0x40\n        /* \"#utility.yul\":8051:8060   */\n      dup3\n        /* \"#utility.yul\":8047:8065   */\n      add\n        /* \"#utility.yul\":8039:8065   */\n      swap1\n      pop\n        /* \"#utility.yul\":8075:8140   */\n      tag_277\n        /* \"#utility.yul\":8137:8138   */\n      0x00\n        /* \"#utility.yul\":8126:8135   */\n      dup4\n        /* \"#utility.yul\":8122:8139   */\n      add\n        /* \"#utility.yul\":8113:8119   */\n      dup6\n        /* \"#utility.yul\":8075:8140   */\n      tag_131\n      jump\t// in\n    tag_277:\n        /* \"#utility.yul\":8150:8222   */\n      tag_278\n        /* \"#utility.yul\":8218:8220   */\n      0x20\n        /* \"#utility.yul\":8207:8216   */\n      dup4\n        /* \"#utility.yul\":8203:8221   */\n      add\n        /* \"#utility.yul\":8194:8200   */\n      dup5\n        /* \"#utility.yul\":8150:8222   */\n      tag_136\n      jump\t// in\n    tag_278:\n        /* \"#utility.yul\":7909:8229   */\n      swap4\n      swap3\n      pop\n      pop\n      pop\n      jump\t// out\n        /* \"#utility.yul\":8235:8564   */\n    tag_36:\n        /* \"#utility.yul\":8294:8300   */\n      0x00\n        /* \"#utility.yul\":8343:8345   */\n      0x20\n        /* \"#utility.yul\":8331:8340   */\n      dup3\n        /* \"#utility.yul\":8322:8329   */\n      dup5\n        /* \"#utility.yul\":8318:8341   */\n      sub\n        /* \"#utility.yul\":8314:8346   */\n      slt\n        /* \"#utility.yul\":8311:8430   */\n      iszero\n      tag_280\n      jumpi\n        /* \"#utility.yul\":8349:8428   */\n      tag_281\n      tag_115\n      jump\t// in\n    tag_281:\n        /* \"#utility.yul\":8311:8430   */\n    tag_280:\n        /* \"#utility.yul\":8469:8470   */\n      0x00\n        /* \"#utility.yul\":8494:8547   */\n      tag_282\n        /* \"#utility.yul\":8539:8546   */\n      dup5\n        /* \"#utility.yul\":8530:8536   */\n      dup3\n        /* \"#utility.yul\":8519:8528   */\n      dup6\n        /* \"#utility.yul\":8515:8537   */\n      add\n        /* \"#utility.yul\":8494:8547   */\n      tag_119\n      jump\t// in\n    tag_282:\n        /* \"#utility.yul\":8484:8547   */\n      swap2\n      pop\n        /* \"#utility.yul\":8440:8557   */\n      pop\n        /* \"#utility.yul\":8235:8564   */\n      swap3\n      swap2\n      pop\n      pop\n      jump\t// out\n        /* \"#utility.yul\":8570:8669   */\n    tag_141:\n        /* \"#utility.yul\":8622:8628   */\n      0x00\n        /* \"#utility.yul\":8656:8661   */\n      dup2\n        /* \"#utility.yul\":8650:8662   */\n      mload\n        /* \"#utility.yul\":8640:8662   */\n      swap1\n      pop\n        /* \"#utility.yul\":8570:8669   */\n      swap2\n      swap1\n      pop\n      jump\t// out\n        /* \"#utility.yul\":8675:8844   */\n    tag_142:\n        /* \"#utility.yul\":8759:8770   */\n      0x00\n        /* \"#utility.yul\":8793:8799   */\n      dup3\n        /* \"#utility.yul\":8788:8791   */\n      dup3\n        /* \"#utility.yul\":8781:8800   */\n      mstore\n        /* \"#utility.yul\":8833:8837   */\n      0x20\n        /* \"#utility.yul\":8828:8831   */\n      dup3\n        /* \"#utility.yul\":8824:8838   */\n      add\n        /* \"#utility.yul\":8809:8838   */\n      swap1\n      pop\n        /* \"#utility.yul\":8675:8844   */\n      swap3\n      swap2\n      pop\n      pop\n      jump\t// out\n        /* \"#utility.yul\":8850:9096   */\n    tag_143:\n        /* \"#utility.yul\":8931:8932   */\n      0x00\n        /* \"#utility.yul\":8941:9054   */\n    tag_286:\n        /* \"#utility.yul\":8955:8961   */\n      dup4\n        /* \"#utility.yul\":8952:8953   */\n      dup2\n        /* \"#utility.yul\":8949:8962   */\n      lt\n        /* \"#utility.yul\":8941:9054   */\n      iszero\n      tag_288\n      jumpi\n        /* \"#utility.yul\":9040:9041   */\n      dup1\n        /* \"#utility.yul\":9035:9038   */\n      dup3\n        /* \"#utility.yul\":9031:9042   */\n      add\n        /* \"#utility.yul\":9025:9043   */\n      mload\n        /* \"#utility.yul\":9021:9022   */\n      dup2\n        /* \"#utility.yul\":9016:9019   */\n      dup5\n        /* \"#utility.yul\":9012:9023   */\n      add\n        /* \"#utility.yul\":9005:9044   */\n      mstore\n        /* \"#utility.yul\":8977:8979   */\n      0x20\n        /* \"#utility.yul\":8974:8975   */\n      dup2\n        /* \"#utility.yul\":8970:8980   */\n      add\n        /* \"#utility.yul\":8965:8980   */\n      swap1\n      pop\n        /* \"#utility.yul\":8941:9054   */\n      jump(tag_286)\n    tag_288:\n        /* \"#utility.yul\":9088:9089   */\n      0x00\n        /* \"#utility.yul\":9079:9085   */\n      dup5\n        /* \"#utility.yul\":9074:9077   */\n      dup5\n        /* \"#utility.yul\":9070:9086   */\n      add\n        /* \"#utility.yul\":9063:9090   */\n      mstore\n        /* \"#utility.yul\":8912:9096   */\n      pop\n        /* \"#utility.yul\":8850:9096   */\n      pop\n      pop\n      pop\n      jump\t// out\n        /* \"#utility.yul\":9102:9479   */\n    tag_144:\n        /* \"#utility.yul\":9190:9193   */\n      0x00\n        /* \"#utility.yul\":9218:9257   */\n      tag_290\n        /* \"#utility.yul\":9251:9256   */\n      dup3\n        /* \"#utility.yul\":9218:9257   */\n      tag_141\n      jump\t// in\n    tag_290:\n        /* \"#utility.yul\":9273:9344   */\n      tag_291\n        /* \"#utility.yul\":9337:9343   */\n      dup2\n        /* \"#utility.yul\":9332:9335   */\n      dup6\n        /* \"#utility.yul\":9273:9344   */\n      tag_142\n      jump\t// in\n    tag_291:\n        /* \"#utility.yul\":9266:9344   */\n      swap4\n      pop\n        /* \"#utility.yul\":9353:9418   */\n      tag_292\n        /* \"#utility.yul\":9411:9417   */\n      dup2\n        /* \"#utility.yul\":9406:9409   */\n      dup6\n        /* \"#utility.yul\":9399:9403   */\n      0x20\n        /* \"#utility.yul\":9392:9397   */\n      dup7\n        /* \"#utility.yul\":9388:9404   */\n      add\n        /* \"#utility.yul\":9353:9418   */\n      tag_143\n      jump\t// in\n    tag_292:\n        /* \"#utility.yul\":9443:9472   */\n      tag_293\n        /* \"#utility.yul\":9465:9471   */\n      dup2\n        /* \"#utility.yul\":9443:9472   */\n      tag_122\n      jump\t// in\n    tag_293:\n        /* \"#utility.yul\":9438:9441   */\n      dup5\n        /* \"#utility.yul\":9434:9473   */\n      add\n        /* \"#utility.yul\":9427:9473   */\n      swap2\n      pop\n        /* \"#utility.yul\":9194:9479   */\n      pop\n        /* \"#utility.yul\":9102:9479   */\n      swap3\n      swap2\n      pop\n      pop\n      jump\t// out\n        /* \"#utility.yul\":9485:9896   */\n    tag_39:\n        /* \"#utility.yul\":9620:9624   */\n      0x00\n        /* \"#utility.yul\":9658:9660   */\n      0x40\n        /* \"#utility.yul\":9647:9656   */\n      dup3\n        /* \"#utility.yul\":9643:9661   */\n      add\n        /* \"#utility.yul\":9635:9661   */\n      swap1\n      pop\n        /* \"#utility.yul\":9707:9716   */\n      dup2\n        /* \"#utility.yul\":9701:9705   */\n      dup2\n        /* \"#utility.yul\":9697:9717   */\n      sub\n        /* \"#utility.yul\":9693:9694   */\n      0x00\n        /* \"#utility.yul\":9682:9691   */\n      dup4\n        /* \"#utility.yul\":9678:9695   */\n      add\n        /* \"#utility.yul\":9671:9718   */\n      mstore\n        /* \"#utility.yul\":9735:9813   */\n      tag_295\n        /* \"#utility.yul\":9808:9812   */\n      dup2\n        /* \"#utility.yul\":9799:9805   */\n      dup6\n        /* \"#utility.yul\":9735:9813   */\n      tag_144\n      jump\t// in\n    tag_295:\n        /* \"#utility.yul\":9727:9813   */\n      swap1\n      pop\n        /* \"#utility.yul\":9823:9889   */\n      tag_296\n        /* \"#utility.yul\":9885:9887   */\n      0x20\n        /* \"#utility.yul\":9874:9883   */\n      dup4\n        /* \"#utility.yul\":9870:9888   */\n      add\n        /* \"#utility.yul\":9861:9867   */\n      dup5\n        /* \"#utility.yul\":9823:9889   */\n      tag_131\n      jump\t// in\n    tag_296:\n        /* \"#utility.yul\":9485:9896   */\n      swap4\n      swap3\n      pop\n      pop\n      pop\n      jump\t// out\n        /* \"#utility.yul\":9902:10123   */\n    tag_145:\n        /* \"#utility.yul\":10042:10076   */\n      0x506f6c6c20646f6573206e6f74206578697374206f7220697320696e61637469\n        /* \"#utility.yul\":10038:10039   */\n      0x00\n        /* \"#utility.yul\":10030:10036   */\n      dup3\n        /* \"#utility.yul\":10026:10040   */\n      add\n        /* \"#utility.yul\":10019:10077   */\n      mstore\n        /* \"#utility.yul\":10111:10115   */\n      0x7665000000000000000000000000000000000000000000000000000000000000\n        /* \"#utility.yul\":10106:10108   */\n      0x20\n        /* \"#utility.yul\":10098:10104   */\n      dup3\n        /* \"#utility.yul\":10094:10109   */\n      add\n        /* \"#utility.yul\":10087:10116   */\n      mstore\n        /* \"#utility.yul\":9902:10123   */\n      pop\n      jump\t// out\n        /* \"#utility.yul\":10129:10495   */\n    tag_146:\n        /* \"#utility.yul\":10271:10274   */\n      0x00\n        /* \"#utility.yul\":10292:10359   */\n      tag_299\n        /* \"#utility.yul\":10356:10358   */\n      0x22\n        /* \"#utility.yul\":10351:10354   */\n      dup4\n        /* \"#utility.yul\":10292:10359   */\n      tag_142\n      jump\t// in\n    tag_299:\n        /* \"#utility.yul\":10285:10359   */\n      swap2\n      pop\n        /* \"#utility.yul\":10368:10461   */\n      tag_300\n        /* \"#utility.yul\":10457:10460   */\n      dup3\n        /* \"#utility.yul\":10368:10461   */\n      tag_145\n      jump\t// in\n    tag_300:\n        /* \"#utility.yul\":10486:10488   */\n      0x40\n        /* \"#utility.yul\":10481:10484   */\n      dup3\n        /* \"#utility.yul\":10477:10489   */\n      add\n        /* \"#utility.yul\":10470:10489   */\n      swap1\n      pop\n        /* \"#utility.yul\":10129:10495   */\n      swap2\n      swap1\n      pop\n      jump\t// out\n        /* \"#utility.yul\":10501:10920   */\n    tag_48:\n        /* \"#utility.yul\":10667:10671   */\n      0x00\n        /* \"#utility.yul\":10705:10707   */\n      0x20\n        /* \"#utility.yul\":10694:10703   */\n      dup3\n        /* \"#utility.yul\":10690:10708   */\n      add\n        /* \"#utility.yul\":10682:10708   */\n      swap1\n      pop\n        /* \"#utility.yul\":10754:10763   */\n      dup2\n        /* \"#utility.yul\":10748:10752   */\n      dup2\n        /* \"#utility.yul\":10744:10764   */\n      sub\n        /* \"#utility.yul\":10740:10741   */\n      0x00\n        /* \"#utility.yul\":10729:10738   */\n      dup4\n        /* \"#utility.yul\":10725:10742   */\n      add\n        /* \"#utility.yul\":10718:10765   */\n      mstore\n        /* \"#utility.yul\":10782:10913   */\n      tag_302\n        /* \"#utility.yul\":10908:10912   */\n      dup2\n        /* \"#utility.yul\":10782:10913   */\n      tag_146\n      jump\t// in\n    tag_302:\n        /* \"#utility.yul\":10774:10913   */\n      swap1\n      pop\n        /* \"#utility.yul\":10501:10920   */\n      swap2\n      swap1\n      pop\n      jump\t// out\n        /* \"#utility.yul\":10926:11099   */\n    tag_147:\n        /* \"#utility.yul\":11066:11091   */\n      0x566f7465722068617320616c726561647920766f746564000000000000000000\n        /* \"#utility.yul\":11062:11063   */\n      0x00\n        /* \"#utility.yul\":11054:11060   */\n      dup3\n        /* \"#utility.yul\":11050:11064   */\n      add\n        /* \"#utility.yul\":11043:11092   */\n      mstore\n        /* \"#utility.yul\":10926:11099   */\n      pop\n      jump\t// out\n        /* \"#utility.yul\":11105:11471   */\n    tag_148:\n        /* \"#utility.yul\":11247:11250   */\n      0x00\n        /* \"#utility.yul\":11268:11335   */\n      tag_305\n        /* \"#utility.yul\":11332:11334   */\n      0x17\n        /* \"#utility.yul\":11327:11330   */\n      dup4\n        /* \"#utility.yul\":11268:11335   */\n      tag_142\n      jump\t// in\n    tag_305:\n        /* \"#utility.yul\":11261:11335   */\n      swap2\n      pop\n        /* \"#utility.yul\":11344:11437   */\n      tag_306\n        /* \"#utility.yul\":11433:11436   */\n      dup3\n        /* \"#utility.yul\":11344:11437   */\n      tag_147\n      jump\t// in\n    tag_306:\n        /* \"#utility.yul\":11462:11464   */\n      0x20\n        /* \"#utility.yul\":11457:11460   */\n      dup3\n        /* \"#utility.yul\":11453:11465   */\n      add\n        /* \"#utility.yul\":11446:11465   */\n      swap1\n      pop\n        /* \"#utility.yul\":11105:11471   */\n      swap2\n      swap1\n      pop\n      jump\t// out\n        /* \"#utility.yul\":11477:11896   */\n    tag_51:\n        /* \"#utility.yul\":11643:11647   */\n      0x00\n        /* \"#utility.yul\":11681:11683   */\n      0x20\n        /* \"#utility.yul\":11670:11679   */\n      dup3\n        /* \"#utility.yul\":11666:11684   */\n      add\n        /* \"#utility.yul\":11658:11684   */\n      swap1\n      pop\n        /* \"#utility.yul\":11730:11739   */\n      dup2\n        /* \"#utility.yul\":11724:11728   */\n      dup2\n        /* \"#utility.yul\":11720:11740   */\n      sub\n        /* \"#utility.yul\":11716:11717   */\n      0x00\n        /* \"#utility.yul\":11705:11714   */\n      dup4\n        /* \"#utility.yul\":11701:11718   */\n      add\n        /* \"#utility.yul\":11694:11741   */\n      mstore\n        /* \"#utility.yul\":11758:11889   */\n      tag_308\n        /* \"#utility.yul\":11884:11888   */\n      dup2\n        /* \"#utility.yul\":11758:11889   */\n      tag_148\n      jump\t// in\n    tag_308:\n        /* \"#utility.yul\":11750:11889   */\n      swap1\n      pop\n        /* \"#utility.yul\":11477:11896   */\n      swap2\n      swap1\n      pop\n      jump\t// out\n        /* \"#utility.yul\":11902:12066   */\n    tag_149:\n        /* \"#utility.yul\":12042:12058   */\n      0x496e76616c6964206f7074696f6e000000000000000000000000000000000000\n        /* \"#utility.yul\":12038:12039   */\n      0x00\n        /* \"#utility.yul\":12030:12036   */\n      dup3\n        /* \"#utility.yul\":12026:12040   */\n      add\n        /* \"#utility.yul\":12019:12059   */\n      mstore\n        /* \"#utility.yul\":11902:12066   */\n      pop\n      jump\t// out\n        /* \"#utility.yul\":12072:12438   */\n    tag_150:\n        /* \"#utility.yul\":12214:12217   */\n      0x00\n        /* \"#utility.yul\":12235:12302   */\n      tag_311\n        /* \"#utility.yul\":12299:12301   */\n      0x0e\n        /* \"#utility.yul\":12294:12297   */\n      dup4\n        /* \"#utility.yul\":12235:12302   */\n      tag_142\n      jump\t// in\n    tag_311:\n        /* \"#utility.yul\":12228:12302   */\n      swap2\n      pop\n        /* \"#utility.yul\":12311:12404   */\n      tag_312\n        /* \"#utility.yul\":12400:12403   */\n      dup3\n        /* \"#utility.yul\":12311:12404   */\n      tag_149\n      jump\t// in\n    tag_312:\n        /* \"#utility.yul\":12429:12431   */\n      0x20\n        /* \"#utility.yul\":12424:12427   */\n      dup3\n        /* \"#utility.yul\":12420:12432   */\n      add\n        /* \"#utility.yul\":12413:12432   */\n      swap1\n      pop\n        /* \"#utility.yul\":12072:12438   */\n      swap2\n      swap1\n      pop\n      jump\t// out\n        /* \"#utility.yul\":12444:12863   */\n    tag_55:\n        /* \"#utility.yul\":12610:12614   */\n      0x00\n        /* \"#utility.yul\":12648:12650   */\n      0x20\n        /* \"#utility.yul\":12637:12646   */\n      dup3\n        /* \"#utility.yul\":12633:12651   */\n      add\n        /* \"#utility.yul\":12625:12651   */\n      swap1\n      pop\n        /* \"#utility.yul\":12697:12706   */\n      dup2\n        /* \"#utility.yul\":12691:12695   */\n      dup2\n        /* \"#utility.yul\":12687:12707   */\n      sub\n        /* \"#utility.yul\":12683:12684   */\n      0x00\n        /* \"#utility.yul\":12672:12681   */\n      dup4\n        /* \"#utility.yul\":12668:12685   */\n      add\n        /* \"#utility.yul\":12661:12708   */\n      mstore\n        /* \"#utility.yul\":12725:12856   */\n      tag_314\n        /* \"#utility.yul\":12851:12855   */\n      dup2\n        /* \"#utility.yul\":12725:12856   */\n      tag_150\n      jump\t// in\n    tag_314:\n        /* \"#utility.yul\":12717:12856   */\n      swap1\n      pop\n        /* \"#utility.yul\":12444:12863   */\n      swap2\n      swap1\n      pop\n      jump\t// out\n        /* \"#utility.yul\":12869:13017   */\n    tag_151:\n        /* \"#utility.yul\":12971:12982   */\n      0x00\n        /* \"#utility.yul\":13008:13011   */\n      dup2\n        /* \"#utility.yul\":12993:13011   */\n      swap1\n      pop\n        /* \"#utility.yul\":12869:13017   */\n      swap3\n      swap2\n      pop\n      pop\n      jump\t// out\n        /* \"#utility.yul\":13023:13413   */\n    tag_152:\n        /* \"#utility.yul\":13129:13132   */\n      0x00\n        /* \"#utility.yul\":13157:13196   */\n      tag_317\n        /* \"#utility.yul\":13190:13195   */\n      dup3\n        /* \"#utility.yul\":13157:13196   */\n      tag_141\n      jump\t// in\n    tag_317:\n        /* \"#utility.yul\":13212:13301   */\n      tag_318\n        /* \"#utility.yul\":13294:13300   */\n      dup2\n        /* \"#utility.yul\":13289:13292   */\n      dup6\n        /* \"#utility.yul\":13212:13301   */\n      tag_151\n      jump\t// in\n    tag_318:\n        /* \"#utility.yul\":13205:13301   */\n      swap4\n      pop\n        /* \"#utility.yul\":13310:13375   */\n      tag_319\n        /* \"#utility.yul\":13368:13374   */\n      dup2\n        /* \"#utility.yul\":13363:13366   */\n      dup6\n        /* \"#utility.yul\":13356:13360   */\n      0x20\n        /* \"#utility.yul\":13349:13354   */\n      dup7\n        /* \"#utility.yul\":13345:13361   */\n      add\n        /* \"#utility.yul\":13310:13375   */\n      tag_143\n      jump\t// in\n    tag_319:\n        /* \"#utility.yul\":13400:13406   */\n      dup1\n        /* \"#utility.yul\":13395:13398   */\n      dup5\n        /* \"#utility.yul\":13391:13407   */\n      add\n        /* \"#utility.yul\":13384:13407   */\n      swap2\n      pop\n        /* \"#utility.yul\":13133:13413   */\n      pop\n        /* \"#utility.yul\":13023:13413   */\n      swap3\n      swap2\n      pop\n      pop\n      jump\t// out\n        /* \"#utility.yul\":13419:13694   */\n    tag_57:\n        /* \"#utility.yul\":13551:13554   */\n      0x00\n        /* \"#utility.yul\":13573:13668   */\n      tag_321\n        /* \"#utility.yul\":13664:13667   */\n      dup3\n        /* \"#utility.yul\":13655:13661   */\n      dup5\n        /* \"#utility.yul\":13573:13668   */\n      tag_152\n      jump\t// in\n    tag_321:\n        /* \"#utility.yul\":13566:13668   */\n      swap2\n      pop\n        /* \"#utility.yul\":13685:13688   */\n      dup2\n        /* \"#utility.yul\":13678:13688   */\n      swap1\n      pop\n        /* \"#utility.yul\":13419:13694   */\n      swap3\n      swap2\n      pop\n      pop\n      jump\t// out\n        /* \"#utility.yul\":13700:13880   */\n    tag_153:\n        /* \"#utility.yul\":13748:13825   */\n      0x4e487b7100000000000000000000000000000000000000000000000000000000\n        /* \"#utility.yul\":13745:13746   */\n      0x00\n        /* \"#utility.yul\":13738:13826   */\n      mstore\n        /* \"#utility.yul\":13845:13849   */\n      0x11\n        /* \"#utility.yul\":13842:13843   */\n      0x04\n        /* \"#utility.yul\":13835:13850   */\n      mstore\n        /* \"#utility.yul\":13869:13873   */\n      0x24\n        /* \"#utility.yul\":13866:13867   */\n      0x00\n        /* \"#utility.yul\":13859:13874   */\n      revert\n        /* \"#utility.yul\":13886:14119   */\n    tag_59:\n        /* \"#utility.yul\":13925:13928   */\n      0x00\n        /* \"#utility.yul\":13948:13972   */\n      tag_324\n        /* \"#utility.yul\":13966:13971   */\n      dup3\n        /* \"#utility.yul\":13948:13972   */\n      tag_117\n      jump\t// in\n    tag_324:\n        /* \"#utility.yul\":13939:13972   */\n      swap2\n      pop\n        /* \"#utility.yul\":13994:14060   */\n      0xffffffffffffffffffffffffffffffffffffffffffffffffffffffffffffffff\n        /* \"#utility.yul\":13987:13992   */\n      dup3\n        /* \"#utility.yul\":13984:14061   */\n      sub\n        /* \"#utility.yul\":13981:14084   */\n      tag_325\n      jumpi\n        /* \"#utility.yul\":14064:14082   */\n      tag_326\n      tag_153\n      jump\t// in\n    tag_326:\n        /* \"#utility.yul\":13981:14084   */\n    tag_325:\n        /* \"#utility.yul\":14111:14112   */\n      0x01\n        /* \"#utility.yul\":14104:14109   */\n      dup3\n        /* \"#utility.yul\":14100:14113   */\n      add\n        /* \"#utility.yul\":14093:14113   */\n      swap1\n      pop\n        /* \"#utility.yul\":13886:14119   */\n      swap2\n      swap1\n      pop\n      jump\t// out\n        /* \"#utility.yul\":14125:14243   */\n    tag_154:\n        /* \"#utility.yul\":14212:14236   */\n      tag_328\n        /* \"#utility.yul\":14230:14235   */\n      dup2\n        /* \"#utility.yul\":14212:14236   */\n      tag_138\n      jump\t// in\n    tag_328:\n        /* \"#utility.yul\":14207:14210   */\n      dup3\n        /* \"#utility.yul\":14200:14237   */\n      mstore\n        /* \"#utility.yul\":14125:14243   */\n      pop\n      pop\n      jump\t// out\n        /* \"#utility.yul\":14249:14782   */\n    tag_61:\n        /* \"#utility.yul\":14418:14422   */\n      0x00\n        /* \"#utility.yul\":14456:14458   */\n      0x60\n        /* \"#utility.yul\":14445:14454   */\n      dup3\n        /* \"#utility.yul\":14441:14459   */\n      add\n        /* \"#utility.yul\":14433:14459   */\n      swap1\n      pop\n        /* \"#utility.yul\":14469:14540   */\n      tag_330\n        /* \"#utility.yul\":14537:14538   */\n      0x00\n        /* \"#utility.yul\":14526:14535   */\n      dup4\n        /* \"#utility.yul\":14522:14539   */\n      add\n        /* \"#utility.yul\":14513:14519   */\n      dup7\n        /* \"#utility.yul\":14469:14540   */\n      tag_154\n      jump\t// in\n    tag_330:\n        /* \"#utility.yul\":14550:14622   */\n      tag_331\n        /* \"#utility.yul\":14618:14620   */\n      0x20\n        /* \"#utility.yul\":14607:14616   */\n      dup4\n        /* \"#utility.yul\":14603:14621   */\n      add\n        /* \"#utility.yul\":14594:14600   */\n      dup6\n        /* \"#utility.yul\":14550:14622   */\n      tag_136\n      jump\t// in\n    tag_331:\n        /* \"#utility.yul\":14669:14678   */\n      dup2\n        /* \"#utility.yul\":14663:14667   */\n      dup2\n        /* \"#utility.yul\":14659:14679   */\n      sub\n        /* \"#utility.yul\":14654:14656   */\n      0x40\n        /* \"#utility.yul\":14643:14652   */\n      dup4\n        /* \"#utility.yul\":14639:14657   */\n      add\n        /* \"#utility.yul\":14632:14680   */\n      mstore\n        /* \"#utility.yul\":14697:14775   */\n      tag_332\n        /* \"#utility.yul\":14770:14774   */\n      dup2\n        /* \"#utility.yul\":14761:14767   */\n      dup5\n        /* \"#utility.yul\":14697:14775   */\n      tag_144\n      jump\t// in\n    tag_332:\n        /* \"#utility.yul\":14689:14775   */\n      swap1\n      pop\n        /* \"#utility.yul\":14249:14782   */\n      swap5\n      swap4\n      pop\n      pop\n      pop\n      pop\n      jump\t// out\n        /* \"#utility.yul\":14788:14968   */\n    tag_68:\n        /* \"#utility.yul\":14836:14913   */\n      0x4e487b7100000000000000000000000000000000000000000000000000000000\n        /* \"#utility.yul\":14833:14834   */\n      0x00\n        /* \"#utility.yul\":14826:14914   */\n      mstore\n        /* \"#utility.yul\":14933:14937   */\n      0x32\n        /* \"#utility.yul\":14930:14931   */\n      0x04\n        /* \"#utility.yul\":14923:14938   */\n      mstore\n        /* \"#utility.yul\":14957:14961   */\n      0x24\n        /* \"#utility.yul\":14954:14955   */\n      0x00\n        /* \"#utility.yul\":14947:14962   */\n      revert\n        /* \"#utility.yul\":14974:15154   */\n    tag_155:\n        /* \"#utility.yul\":15022:15099   */\n      0x4e487b7100000000000000000000000000000000000000000000000000000000\n        /* \"#utility.yul\":15019:15020   */\n      0x00\n        /* \"#utility.yul\":15012:15100   */\n      mstore\n        /* \"#utility.yul\":15119:15123   */\n      0x22\n        /* \"#utility.yul\":15116:15117   */\n      0x04\n        /* \"#utility.yul\":15109:15124   */\n      mstore\n        /* \"#utility.yul\":15143:15147   */\n      0x24\n        /* \"#utility.yul\":15140:15141   */\n      0x00\n        /* \"#utility.yul\":15133:15148   */\n      revert\n        /* \"#utility.yul\":15160:15480   */\n    tag_83:\n        /* \"#utility.yul\":15204:15210   */\n      0x00\n        /* \"#utility.yul\":15241:15242   */\n      0x02\n        /* \"#utility.yul\":15235:15239   */\n      dup3\n        /* \"#utility.yul\":15231:15243   */\n      div\n        /* \"#utility.yul\":15221:15243   */\n      swap1\n      pop\n        /* \"#utility.yul\":15288:15289   */\n      0x01\n        /* \"#utility.yul\":15282:15286   */\n      dup3\n        /* \"#utility.yul\":15278:15290   */\n      and\n        /* \"#utility.yul\":15309:15327   */\n      dup1\n        /* \"#utility.yul\":15299:15380   */\n      tag_336\n      jumpi\n        /* \"#utility.yul\":15365:15369   */\n      0x7f\n        /* \"#utility.yul\":15357:15363   */\n      dup3\n        /* \"#utility.yul\":15353:15370   */\n      and\n        /* \"#utility.yul\":15343:15370   */\n      swap2\n      pop\n        /* \"#utility.yul\":15299:15380   */\n    tag_336:\n        /* \"#utility.yul\":15427:15429   */\n      0x20\n        /* \"#utility.yul\":15419:15425   */\n      dup3\n        /* \"#utility.yul\":15416:15430   */\n      lt\n        /* \"#utility.yul\":15396:15414   */\n      dup2\n        /* \"#utility.yul\":15393:15431   */\n      sub\n        /* \"#utility.yul\":15390:15474   */\n      tag_337\n      jumpi\n        /* \"#utility.yul\":15446:15464   */\n      tag_338\n      tag_155\n      jump\t// in\n    tag_338:\n        /* \"#utility.yul\":15390:15474   */\n    tag_337:\n        /* \"#utility.yul\":15211:15480   */\n      pop\n        /* \"#utility.yul\":15160:15480   */\n      swap2\n      swap1\n      pop\n      jump\t// out\n        /* \"#utility.yul\":15486:15633   */\n    tag_156:\n        /* \"#utility.yul\":15587:15598   */\n      0x00\n        /* \"#utility.yul\":15624:15627   */\n      dup2\n        /* \"#utility.yul\":15609:15627   */\n      swap1\n      pop\n        /* \"#utility.yul\":15486:15633   */\n      swap3\n      swap2\n      pop\n      pop\n      jump\t// out\n        /* \"#utility.yul\":15639:15783   */\n    tag_157:\n        /* \"#utility.yul\":15691:15695   */\n      0x00\n        /* \"#utility.yul\":15714:15717   */\n      dup2\n        /* \"#utility.yul\":15706:15717   */\n      swap1\n      pop\n        /* \"#utility.yul\":15737:15740   */\n      dup2\n        /* \"#utility.yul\":15734:15735   */\n      0x00\n        /* \"#utility.yul\":15727:15741   */\n      mstore\n        /* \"#utility.yul\":15771:15775   */\n      0x20\n        /* \"#utility.yul\":15768:15769   */\n      0x00\n        /* \"#utility.yul\":15758:15776   */\n      keccak256\n        /* \"#utility.yul\":15750:15776   */\n      swap1\n      pop\n        /* \"#utility.yul\":15639:15783   */\n      swap2\n      swap1\n      pop\n      jump\t// out\n        /* \"#utility.yul\":15811:16689   */\n    tag_158:\n        /* \"#utility.yul\":15916:15919   */\n      0x00\n        /* \"#utility.yul\":15953:15958   */\n      dup2\n        /* \"#utility.yul\":15947:15959   */\n      sload\n        /* \"#utility.yul\":15982:16018   */\n      tag_342\n        /* \"#utility.yul\":16008:16017   */\n      dup2\n        /* \"#utility.yul\":15982:16018   */\n      tag_83\n      jump\t// in\n    tag_342:\n        /* \"#utility.yul\":16034:16122   */\n      tag_343\n        /* \"#utility.yul\":16115:16121   */\n      dup2\n        /* \"#utility.yul\":16110:16113   */\n      dup7\n        /* \"#utility.yul\":16034:16122   */\n      tag_156\n      jump\t// in\n    tag_343:\n        /* \"#utility.yul\":16027:16122   */\n      swap5\n      pop\n        /* \"#utility.yul\":16153:16154   */\n      0x01\n        /* \"#utility.yul\":16142:16151   */\n      dup3\n        /* \"#utility.yul\":16138:16155   */\n      and\n        /* \"#utility.yul\":16169:16170   */\n      0x00\n        /* \"#utility.yul\":16164:16330   */\n      dup2\n      eq\n      tag_345\n      jumpi\n        /* \"#utility.yul\":16344:16345   */\n      0x01\n        /* \"#utility.yul\":16339:16683   */\n      dup2\n      eq\n      tag_346\n      jumpi\n        /* \"#utility.yul\":16131:16683   */\n      jump(tag_344)\n        /* \"#utility.yul\":16164:16330   */\n    tag_345:\n        /* \"#utility.yul\":16248:16252   */\n      0xff\n        /* \"#utility.yul\":16244:16253   */\n      not\n        /* \"#utility.yul\":16233:16242   */\n      dup4\n        /* \"#utility.yul\":16229:16254   */\n      and\n        /* \"#utility.yul\":16224:16227   */\n      dup7\n        /* \"#utility.yul\":16217:16255   */\n      mstore\n        /* \"#utility.yul\":16310:16316   */\n      dup2\n        /* \"#utility.yul\":16303:16317   */\n      iszero\n        /* \"#utility.yul\":16296:16318   */\n      iszero\n        /* \"#utility.yul\":16288:16294   */\n      dup3\n        /* \"#utility.yul\":16284:16319   */\n      mul\n        /* \"#utility.yul\":16279:16282   */\n      dup7\n        /* \"#utility.yul\":16275:16320   */\n      add\n        /* \"#utility.yul\":16268:16320   */\n      swap4\n      pop\n        /* \"#utility.yul\":16164:16330   */\n      jump(tag_344)\n        /* \"#utility.yul\":16339:16683   */\n    tag_346:\n        /* \"#utility.yul\":16406:16447   */\n      tag_347\n        /* \"#utility.yul\":16441:16446   */\n      dup6\n        /* \"#utility.yul\":16406:16447   */\n      tag_157\n      jump\t// in\n    tag_347:\n        /* \"#utility.yul\":16469:16470   */\n      0x00\n        /* \"#utility.yul\":16483:16637   */\n    tag_348:\n        /* \"#utility.yul\":16497:16503   */\n      dup4\n        /* \"#utility.yul\":16494:16495   */\n      dup2\n        /* \"#utility.yul\":16491:16504   */\n      lt\n        /* \"#utility.yul\":16483:16637   */\n      iszero\n      tag_350\n      jumpi\n        /* \"#utility.yul\":16571:16578   */\n      dup2\n        /* \"#utility.yul\":16565:16579   */\n      sload\n        /* \"#utility.yul\":16561:16562   */\n      dup2\n        /* \"#utility.yul\":16556:16559   */\n      dup10\n        /* \"#utility.yul\":16552:16563   */\n      add\n        /* \"#utility.yul\":16545:16580   */\n      mstore\n        /* \"#utility.yul\":16621:16622   */\n      0x01\n        /* \"#utility.yul\":16612:16619   */\n      dup3\n        /* \"#utility.yul\":16608:16623   */\n      add\n        /* \"#utility.yul\":16597:16623   */\n      swap2\n      pop\n        /* \"#utility.yul\":16519:16523   */\n      0x20\n        /* \"#utility.yul\":16516:16517   */\n      dup2\n        /* \"#utility.yul\":16512:16524   */\n      add\n        /* \"#utility.yul\":16507:16524   */\n      swap1\n      pop\n        /* \"#utility.yul\":16483:16637   */\n      jump(tag_348)\n    tag_350:\n        /* \"#utility.yul\":16666:16672   */\n      dup4\n        /* \"#utility.yul\":16661:16664   */\n      dup9\n        /* \"#utility.yul\":16657:16673   */\n      add\n        /* \"#utility.yul\":16650:16673   */\n      swap6\n      pop\n        /* \"#utility.yul\":16346:16683   */\n      pop\n      pop\n        /* \"#utility.yul\":16131:16683   */\n    tag_344:\n      pop\n        /* \"#utility.yul\":15920:16689   */\n      pop\n      pop\n        /* \"#utility.yul\":15811:16689   */\n      swap3\n      swap2\n      pop\n      pop\n      jump\t// out\n        /* \"#utility.yul\":16695:16968   */\n    tag_71:\n        /* \"#utility.yul\":16826:16829   */\n      0x00\n        /* \"#utility.yul\":16848:16942   */\n      tag_352\n        /* \"#utility.yul\":16938:16941   */\n      dup3\n        /* \"#utility.yul\":16929:16935   */\n      dup5\n        /* \"#utility.yul\":16848:16942   */\n      tag_158\n      jump\t// in\n    tag_352:\n        /* \"#utility.yul\":16841:16942   */\n      swap2\n      pop\n        /* \"#utility.yul\":16959:16962   */\n      dup2\n        /* \"#utility.yul\":16952:16962   */\n      swap1\n      pop\n        /* \"#utility.yul\":16695:16968   */\n      swap3\n      swap2\n      pop\n      pop\n      jump\t// out\n        /* \"#utility.yul\":16974:17115   */\n    tag_159:\n        /* \"#utility.yul\":17023:17027   */\n      0x00\n        /* \"#utility.yul\":17046:17049   */\n      dup2\n        /* \"#utility.yul\":17038:17049   */\n      swap1\n      pop\n        /* \"#utility.yul\":17069:17072   */\n      dup2\n        /* \"#utility.yul\":17066:17067   */\n      0x00\n        /* \"#utility.yul\":17059:17073   */\n      mstore\n        /* \"#utility.yul\":17103:17107   */\n      0x20\n        /* \"#utility.yul\":17100:17101   */\n      0x00\n        /* \"#utility.yul\":17090:17108   */\n      keccak256\n        /* \"#utility.yul\":17082:17108   */\n      swap1\n      pop\n        /* \"#utility.yul\":16974:17115   */\n      swap2\n      swap1\n      pop\n      jump\t// out\n        /* \"#utility.yul\":17121:17214   */\n    tag_160:\n        /* \"#utility.yul\":17158:17164   */\n      0x00\n        /* \"#utility.yul\":17205:17207   */\n      0x20\n        /* \"#utility.yul\":17200:17202   */\n      0x1f\n        /* \"#utility.yul\":17193:17198   */\n      dup4\n        /* \"#utility.yul\":17189:17203   */\n      add\n        /* \"#utility.yul\":17185:17208   */\n      div\n        /* \"#utility.yul\":17175:17208   */\n      swap1\n      pop\n        /* \"#utility.yul\":17121:17214   */\n      swap2\n      swap1\n      pop\n      jump\t// out\n        /* \"#utility.yul\":17220:17327   */\n    tag_161:\n        /* \"#utility.yul\":17264:17272   */\n      0x00\n        /* \"#utility.yul\":17314:17319   */\n      dup3\n        /* \"#utility.yul\":17308:17312   */\n      dup3\n        /* \"#utility.yul\":17304:17320   */\n      shl\n        /* \"#utility.yul\":17283:17320   */\n      swap1\n      pop\n        /* \"#utility.yul\":17220:17327   */\n      swap3\n      swap2\n      pop\n      pop\n      jump\t// out\n        /* \"#utility.yul\":17333:17726   */\n    tag_162:\n        /* \"#utility.yul\":17402:17408   */\n      0x00\n        /* \"#utility.yul\":17452:17453   */\n      0x08\n        /* \"#utility.yul\":17440:17450   */\n      dup4\n        /* \"#utility.yul\":17436:17454   */\n      mul\n        /* \"#utility.yul\":17475:17572   */\n      tag_357\n        /* \"#utility.yul\":17505:17571   */\n      0xffffffffffffffffffffffffffffffffffffffffffffffffffffffffffffffff\n        /* \"#utility.yul\":17494:17503   */\n      dup3\n        /* \"#utility.yul\":17475:17572   */\n      tag_161\n      jump\t// in\n    tag_357:\n        /* \"#utility.yul\":17593:17632   */\n      tag_358\n        /* \"#utility.yul\":17623:17631   */\n      dup7\n        /* \"#utility.yul\":17612:17621   */\n      dup4\n        /* \"#utility.yul\":17593:17632   */\n      tag_161\n      jump\t// in\n    tag_358:\n        /* \"#utility.yul\":17581:17632   */\n      swap6\n      pop\n        /* \"#utility.yul\":17665:17669   */\n      dup1\n        /* \"#utility.yul\":17661:17670   */\n      not\n        /* \"#utility.yul\":17654:17659   */\n      dup5\n        /* \"#utility.yul\":17650:17671   */\n      and\n        /* \"#utility.yul\":17641:17671   */\n      swap4\n      pop\n        /* \"#utility.yul\":17714:17718   */\n      dup1\n        /* \"#utility.yul\":17704:17712   */\n      dup7\n        /* \"#utility.yul\":17700:17719   */\n      and\n        /* \"#utility.yul\":17693:17698   */\n      dup5\n        /* \"#utility.yul\":17690:17720   */\n      or\n        /* \"#utility.yul\":17680:17720   */\n      swap3\n      pop\n        /* \"#utility.yul\":17409:17726   */\n      pop\n      pop\n        /* \"#utility.yul\":17333:17726   */\n      swap4\n      swap3\n      pop\n      pop\n      pop\n      jump\t// out\n        /* \"#utility.yul\":17732:17792   */\n    tag_163:\n        /* \"#utility.yul\":17760:17763   */\n      0x00\n        /* \"#utility.yul\":17781:17786   */\n      dup2\n        /* \"#utility.yul\":17774:17786   */\n      swap1\n      pop\n        /* \"#utility.yul\":17732:17792   */\n      swap2\n      swap1\n      pop\n      jump\t// out\n        /* \"#utility.yul\":17798:17940   */\n    tag_164:\n        /* \"#utility.yul\":17848:17857   */\n      0x00\n        /* \"#utility.yul\":17881:17934   */\n      tag_361\n        /* \"#utility.yul\":17899:17933   */\n      tag_362\n        /* \"#utility.yul\":17908:17932   */\n      tag_363\n        /* \"#utility.yul\":17926:17931   */\n      dup5\n        /* \"#utility.yul\":17908:17932   */\n      tag_117\n      jump\t// in\n    tag_363:\n        /* \"#utility.yul\":17899:17933   */\n      tag_163\n      jump\t// in\n    tag_362:\n        /* \"#utility.yul\":17881:17934   */\n      tag_117\n      jump\t// in\n    tag_361:\n        /* \"#utility.yul\":17868:17934   */\n      swap1\n      pop\n        /* \"#utility.yul\":17798:17940   */\n      swap2\n      swap1\n      pop\n      jump\t// out\n        /* \"#utility.yul\":17946:18021   */\n    tag_165:\n        /* \"#utility.yul\":17989:17992   */\n      0x00\n        /* \"#utility.yul\":18010:18015   */\n      dup2\n        /* \"#utility.yul\":18003:18015   */\n      swap1\n      pop\n        /* \"#utility.yul\":17946:18021   */\n      swap2\n      swap1\n      pop\n      jump\t// out\n        /* \"#utility.yul\":18027:18296   */\n    tag_166:\n        /* \"#utility.yul\":18137:18176   */\n      tag_366\n        /* \"#utility.yul\":18168:18175   */\n      dup4\n        /* \"#utility.yul\":18137:18176   */\n      tag_164\n      jump\t// in\n    tag_366:\n        /* \"#utility.yul\":18198:18289   */\n      tag_367\n        /* \"#utility.yul\":18247:18288   */\n      tag_368\n        /* \"#utility.yul\":18271:18287   */\n      dup3\n        /* \"#utility.yul\":18247:18288   */\n      tag_165\n      jump\t// in\n    tag_368:\n        /* \"#utility.yul\":18239:18245   */\n      dup5\n        /* \"#utility.yul\":18232:18236   */\n      dup5\n        /* \"#utility.yul\":18226:18237   */\n      sload\n        /* \"#utility.yul\":18198:18289   */\n      tag_162\n      jump\t// in\n    tag_367:\n        /* \"#utility.yul\":18192:18196   */\n      dup3\n        /* \"#utility.yul\":18185:18290   */\n      sstore\n        /* \"#utility.yul\":18103:18296   */\n      pop\n        /* \"#utility.yul\":18027:18296   */\n      pop\n      pop\n      pop\n      jump\t// out\n        /* \"#utility.yul\":18302:18375   */\n    tag_167:\n        /* \"#utility.yul\":18347:18350   */\n      0x00\n        /* \"#utility.yul\":18302:18375   */\n      swap1\n      jump\t// out\n        /* \"#utility.yul\":18381:18570   */\n    tag_168:\n        /* \"#utility.yul\":18458:18490   */\n      tag_371\n      tag_167\n      jump\t// in\n    tag_371:\n        /* \"#utility.yul\":18499:18564   */\n      tag_372\n        /* \"#utility.yul\":18557:18563   */\n      dup2\n        /* \"#utility.yul\":18549:18555   */\n      dup5\n        /* \"#utility.yul\":18543:18547   */\n      dup5\n        /* \"#utility.yul\":18499:18564   */\n      tag_166\n      jump\t// in\n    tag_372:\n        /* \"#utility.yul\":18434:18570   */\n      pop\n        /* \"#utility.yul\":18381:18570   */\n      pop\n      pop\n      jump\t// out\n        /* \"#utility.yul\":18576:18762   */\n    tag_169:\n        /* \"#utility.yul\":18636:18756   */\n    tag_374:\n        /* \"#utility.yul\":18653:18656   */\n      dup2\n        /* \"#utility.yul\":18646:18651   */\n      dup2\n        /* \"#utility.yul\":18643:18657   */\n      lt\n        /* \"#utility.yul\":18636:18756   */\n      iszero\n      tag_376\n      jumpi\n        /* \"#utility.yul\":18707:18746   */\n      tag_377\n        /* \"#utility.yul\":18744:18745   */\n      0x00\n        /* \"#utility.yul\":18737:18742   */\n      dup3\n        /* \"#utility.yul\":18707:18746   */\n      tag_168\n      jump\t// in\n    tag_377:\n        /* \"#utility.yul\":18680:18681   */\n      0x01\n        /* \"#utility.yul\":18673:18678   */\n      dup2\n        /* \"#utility.yul\":18669:18682   */\n      add\n        /* \"#utility.yul\":18660:18682   */\n      swap1\n      pop\n        /* \"#utility.yul\":18636:18756   */\n      jump(tag_374)\n    tag_376:\n        /* \"#utility.yul\":18576:18762   */\n      pop\n      pop\n      jump\t// out\n        /* \"#utility.yul\":18768:19311   */\n    tag_170:\n        /* \"#utility.yul\":18869:18871   */\n      0x1f\n        /* \"#utility.yul\":18864:18867   */\n      dup3\n        /* \"#utility.yul\":18861:18872   */\n      gt\n        /* \"#utility.yul\":18858:19304   */\n      iszero\n      tag_379\n      jumpi\n        /* \"#utility.yul\":18903:18941   */\n      tag_380\n        /* \"#utility.yul\":18935:18940   */\n      dup2\n        /* \"#utility.yul\":18903:18941   */\n      tag_159\n      jump\t// in\n    tag_380:\n        /* \"#utility.yul\":18987:19016   */\n      tag_381\n        /* \"#utility.yul\":19005:19015   */\n      dup5\n        /* \"#utility.yul\":18987:19016   */\n      tag_160\n      jump\t// in\n    tag_381:\n        /* \"#utility.yul\":18977:18985   */\n      dup2\n        /* \"#utility.yul\":18973:19017   */\n      add\n        /* \"#utility.yul\":19170:19172   */\n      0x20\n        /* \"#utility.yul\":19158:19168   */\n      dup6\n        /* \"#utility.yul\":19155:19173   */\n      lt\n        /* \"#utility.yul\":19152:19201   */\n      iszero\n      tag_382\n      jumpi\n        /* \"#utility.yul\":19191:19199   */\n      dup2\n        /* \"#utility.yul\":19176:19199   */\n      swap1\n      pop\n        /* \"#utility.yul\":19152:19201   */\n    tag_382:\n        /* \"#utility.yul\":19214:19294   */\n      tag_383\n        /* \"#utility.yul\":19270:19292   */\n      tag_384\n        /* \"#utility.yul\":19288:19291   */\n      dup6\n        /* \"#utility.yul\":19270:19292   */\n      tag_160\n      jump\t// in\n    tag_384:\n        /* \"#utility.yul\":19260:19268   */\n      dup4\n        /* \"#utility.yul\":19256:19293   */\n      add\n        /* \"#utility.yul\":19243:19254   */\n      dup3\n        /* \"#utility.yul\":19214:19294   */\n      tag_169\n      jump\t// in\n    tag_383:\n        /* \"#utility.yul\":18873:19304   */\n      pop\n      pop\n        /* \"#utility.yul\":18858:19304   */\n    tag_379:\n        /* \"#utility.yul\":18768:19311   */\n      pop\n      pop\n      pop\n      jump\t// out\n        /* \"#utility.yul\":19317:19434   */\n    tag_171:\n        /* \"#utility.yul\":19371:19379   */\n      0x00\n        /* \"#utility.yul\":19421:19426   */\n      dup3\n        /* \"#utility.yul\":19415:19419   */\n      dup3\n        /* \"#utility.yul\":19411:19427   */\n      shr\n        /* \"#utility.yul\":19390:19427   */\n      swap1\n      pop\n        /* \"#utility.yul\":19317:19434   */\n      swap3\n      swap2\n      pop\n      pop\n      jump\t// out\n        /* \"#utility.yul\":19440:19609   */\n    tag_172:\n        /* \"#utility.yul\":19484:19490   */\n      0x00\n        /* \"#utility.yul\":19517:19568   */\n      tag_387\n        /* \"#utility.yul\":19565:19566   */\n      0x00\n        /* \"#utility.yul\":19561:19567   */\n      not\n        /* \"#utility.yul\":19553:19558   */\n      dup5\n        /* \"#utility.yul\":19550:19551   */\n      0x08\n        /* \"#utility.yul\":19546:19559   */\n      mul\n        /* \"#utility.yul\":19517:19568   */\n      tag_171\n      jump\t// in\n    tag_387:\n        /* \"#utility.yul\":19513:19569   */\n      not\n        /* \"#utility.yul\":19598:19602   */\n      dup1\n        /* \"#utility.yul\":19592:19596   */\n      dup4\n        /* \"#utility.yul\":19588:19603   */\n      and\n        /* \"#utility.yul\":19578:19603   */\n      swap2\n      pop\n        /* \"#utility.yul\":19491:19609   */\n      pop\n        /* \"#utility.yul\":19440:19609   */\n      swap3\n      swap2\n      pop\n      pop\n      jump\t// out\n        /* \"#utility.yul\":19614:19909   */\n    tag_173:\n        /* \"#utility.yul\":19690:19694   */\n      0x00\n        /* \"#utility.yul\":19836:19865   */\n      tag_389\n        /* \"#utility.yul\":19861:19864   */\n      dup4\n        /* \"#utility.yul\":19855:19859   */\n      dup4\n        /* \"#utility.yul\":19836:19865   */\n      tag_172\n      jump\t// in\n    tag_389:\n        /* \"#utility.yul\":19828:19865   */\n      swap2\n      pop\n        /* \"#utility.yul\":19898:19901   */\n      dup3\n        /* \"#utility.yul\":19895:19896   */\n      0x02\n        /* \"#utility.yul\":19891:19902   */\n      mul\n        /* \"#utility.yul\":19885:19889   */\n      dup3\n        /* \"#utility.yul\":19882:19903   */\n      or\n        /* \"#utility.yul\":19874:19903   */\n      swap1\n      pop\n        /* \"#utility.yul\":19614:19909   */\n      swap3\n      swap2\n      pop\n      pop\n      jump\t// out\n        /* \"#utility.yul\":19914:21309   */\n    tag_77:\n        /* \"#utility.yul\":20031:20068   */\n      tag_391\n        /* \"#utility.yul\":20064:20067   */\n      dup3\n        /* \"#utility.yul\":20031:20068   */\n      tag_141\n      jump\t// in\n    tag_391:\n        /* \"#utility.yul\":20133:20151   */\n      0xffffffffffffffff\n        /* \"#utility.yul\":20125:20131   */\n      dup2\n        /* \"#utility.yul\":20122:20152   */\n      gt\n        /* \"#utility.yul\":20119:20175   */\n      iszero\n      tag_392\n      jumpi\n        /* \"#utility.yul\":20155:20173   */\n      tag_393\n      tag_123\n      jump\t// in\n    tag_393:\n        /* \"#utility.yul\":20119:20175   */\n    tag_392:\n        /* \"#utility.yul\":20199:20237   */\n      tag_394\n        /* \"#utility.yul\":20231:20235   */\n      dup3\n        /* \"#utility.yul\":20225:20236   */\n      sload\n        /* \"#utility.yul\":20199:20237   */\n      tag_83\n      jump\t// in\n    tag_394:\n        /* \"#utility.yul\":20284:20351   */\n      tag_395\n        /* \"#utility.yul\":20344:20350   */\n      dup3\n        /* \"#utility.yul\":20336:20342   */\n      dup3\n        /* \"#utility.yul\":20330:20334   */\n      dup6\n        /* \"#utility.yul\":20284:20351   */\n      tag_170\n      jump\t// in\n    tag_395:\n        /* \"#utility.yul\":20378:20379   */\n      0x00\n        /* \"#utility.yul\":20402:20406   */\n      0x20\n        /* \"#utility.yul\":20389:20406   */\n      swap1\n      pop\n        /* \"#utility.yul\":20434:20436   */\n      0x1f\n        /* \"#utility.yul\":20426:20432   */\n      dup4\n        /* \"#utility.yul\":20423:20437   */\n      gt\n        /* \"#utility.yul\":20451:20452   */\n      0x01\n        /* \"#utility.yul\":20446:21064   */\n      dup2\n      eq\n      tag_397\n      jumpi\n        /* \"#utility.yul\":21108:21109   */\n      0x00\n        /* \"#utility.yul\":21125:21131   */\n      dup5\n        /* \"#utility.yul\":21122:21199   */\n      iszero\n      tag_398\n      jumpi\n        /* \"#utility.yul\":21174:21183   */\n      dup3\n        /* \"#utility.yul\":21169:21172   */\n      dup8\n        /* \"#utility.yul\":21165:21184   */\n      add\n        /* \"#utility.yul\":21159:21185   */\n      mload\n        /* \"#utility.yul\":21150:21185   */\n      swap1\n      pop\n        /* \"#utility.yul\":21122:21199   */\n    tag_398:\n        /* \"#utility.yul\":21225:21292   */\n      tag_399\n        /* \"#utility.yul\":21285:21291   */\n      dup6\n        /* \"#utility.yul\":21278:21283   */\n      dup3\n        /* \"#utility.yul\":21225:21292   */\n      tag_173\n      jump\t// in\n    tag_399:\n        /* \"#utility.yul\":21219:21223   */\n      dup7\n        /* \"#utility.yul\":21212:21293   */\n      sstore\n        /* \"#utility.yul\":21081:21303   */\n      pop\n        /* \"#utility.yul\":20416:21303   */\n      jump(tag_396)\n        /* \"#utility.yul\":20446:21064   */\n    tag_397:\n        /* \"#utility.yul\":20498:20502   */\n      0x1f\n        /* \"#utility.yul\":20494:20503   */\n      not\n        /* \"#utility.yul\":20486:20492   */\n      dup5\n        /* \"#utility.yul\":20482:20504   */\n      and\n        /* \"#utility.yul\":20532:20569   */\n      tag_400\n        /* \"#utility.yul\":20564:20568   */\n      dup7\n        /* \"#utility.yul\":20532:20569   */\n      tag_159\n      jump\t// in\n    tag_400:\n        /* \"#utility.yul\":20591:20592   */\n      0x00\n        /* \"#utility.yul\":20605:20813   */\n    tag_401:\n        /* \"#utility.yul\":20619:20626   */\n      dup3\n        /* \"#utility.yul\":20616:20617   */\n      dup2\n        /* \"#utility.yul\":20613:20627   */\n      lt\n        /* \"#utility.yul\":20605:20813   */\n      iszero\n      tag_403\n      jumpi\n        /* \"#utility.yul\":20698:20707   */\n      dup5\n        /* \"#utility.yul\":20693:20696   */\n      dup10\n        /* \"#utility.yul\":20689:20708   */\n      add\n        /* \"#utility.yul\":20683:20709   */\n      mload\n        /* \"#utility.yul\":20675:20681   */\n      dup3\n        /* \"#utility.yul\":20668:20710   */\n      sstore\n        /* \"#utility.yul\":20749:20750   */\n      0x01\n        /* \"#utility.yul\":20741:20747   */\n      dup3\n        /* \"#utility.yul\":20737:20751   */\n      add\n        /* \"#utility.yul\":20727:20751   */\n      swap2\n      pop\n        /* \"#utility.yul\":20796:20798   */\n      0x20\n        /* \"#utility.yul\":20785:20794   */\n      dup6\n        /* \"#utility.yul\":20781:20799   */\n      add\n        /* \"#utility.yul\":20768:20799   */\n      swap5\n      pop\n        /* \"#utility.yul\":20642:20646   */\n      0x20\n        /* \"#utility.yul\":20639:20640   */\n      dup2\n        /* \"#utility.yul\":20635:20647   */\n      add\n        /* \"#utility.yul\":20630:20647   */\n      swap1\n      pop\n        /* \"#utility.yul\":20605:20813   */\n      jump(tag_401)\n    tag_403:\n        /* \"#utility.yul\":20841:20847   */\n      dup7\n        /* \"#utility.yul\":20832:20839   */\n      dup4\n        /* \"#utility.yul\":20829:20848   */\n      lt\n        /* \"#utility.yul\":20826:21005   */\n      iszero\n      tag_404\n      jumpi\n        /* \"#utility.yul\":20899:20908   */\n      dup5\n        /* \"#utility.yul\":20894:20897   */\n      dup10\n        /* \"#utility.yul\":20890:20909   */\n      add\n        /* \"#utility.yul\":20884:20910   */\n      mload\n        /* \"#utility.yul\":20942:20990   */\n      tag_405\n        /* \"#utility.yul\":20984:20988   */\n      0x1f\n        /* \"#utility.yul\":20976:20982   */\n      dup10\n        /* \"#utility.yul\":20972:20989   */\n      and\n        /* \"#utility.yul\":20961:20970   */\n      dup3\n        /* \"#utility.yul\":20942:20990   */\n      tag_172\n      jump\t// in\n    tag_405:\n        /* \"#utility.yul\":20934:20940   */\n      dup4\n        /* \"#utility.yul\":20927:20991   */\n      sstore\n        /* \"#utility.yul\":20849:21005   */\n      pop\n        /* \"#utility.yul\":20826:21005   */\n    tag_404:\n        /* \"#utility.yul\":21051:21052   */\n      0x01\n        /* \"#utility.yul\":21047:21048   */\n      0x02\n        /* \"#utility.yul\":21039:21045   */\n      dup9\n        /* \"#utility.yul\":21035:21049   */\n      mul\n        /* \"#utility.yul\":21031:21053   */\n      add\n        /* \"#utility.yul\":21025:21029   */\n      dup9\n        /* \"#utility.yul\":21018:21054   */\n      sstore\n        /* \"#utility.yul\":20453:21064   */\n      pop\n      pop\n      pop\n        /* \"#utility.yul\":20416:21303   */\n    tag_396:\n      pop\n        /* \"#utility.yul\":20006:21309   */\n      pop\n      pop\n      pop\n        /* \"#utility.yul\":19914:21309   */\n      pop\n      pop\n      jump\t// out\n        /* \"#utility.yul\":21315:21439   */\n    tag_174:\n        /* \"#utility.yul\":21392:21398   */\n      0x00\n        /* \"#utility.yul\":21426:21431   */\n      dup2\n        /* \"#utility.yul\":21420:21432   */\n      mload\n        /* \"#utility.yul\":21410:21432   */\n      swap1\n      pop\n        /* \"#utility.yul\":21315:21439   */\n      swap2\n      swap1\n      pop\n      jump\t// out\n        /* \"#utility.yul\":21445:21639   */\n    tag_175:\n        /* \"#utility.yul\":21554:21565   */\n      0x00\n        /* \"#utility.yul\":21588:21594   */\n      dup3\n        /* \"#utility.yul\":21583:21586   */\n      dup3\n        /* \"#utility.yul\":21576:21595   */\n      mstore\n        /* \"#utility.yul\":21628:21632   */\n      0x20\n        /* \"#utility.yul\":21623:21626   */\n      dup3\n        /* \"#utility.yul\":21619:21633   */\n      add\n        /* \"#utility.yul\":21604:21633   */\n      swap1\n      pop\n        /* \"#utility.yul\":21445:21639   */\n      swap3\n      swap2\n      pop\n      pop\n      jump\t// out\n        /* \"#utility.yul\":21645:21787   */\n    tag_176:\n        /* \"#utility.yul\":21722:21726   */\n      0x00\n        /* \"#utility.yul\":21745:21748   */\n      dup2\n        /* \"#utility.yul\":21737:21748   */\n      swap1\n      pop\n        /* \"#utility.yul\":21775:21779   */\n      0x20\n        /* \"#utility.yul\":21770:21773   */\n      dup3\n        /* \"#utility.yul\":21766:21780   */\n      add\n        /* \"#utility.yul\":21758:21780   */\n      swap1\n      pop\n        /* \"#utility.yul\":21645:21787   */\n      swap2\n      swap1\n      pop\n      jump\t// out\n        /* \"#utility.yul\":21793:21952   */\n    tag_177:\n        /* \"#utility.yul\":21867:21878   */\n      0x00\n        /* \"#utility.yul\":21901:21907   */\n      dup3\n        /* \"#utility.yul\":21896:21899   */\n      dup3\n        /* \"#utility.yul\":21889:21908   */\n      mstore\n        /* \"#utility.yul\":21941:21945   */\n      0x20\n        /* \"#utility.yul\":21936:21939   */\n      dup3\n        /* \"#utility.yul\":21932:21946   */\n      add\n        /* \"#utility.yul\":21917:21946   */\n      swap1\n      pop\n        /* \"#utility.yul\":21793:21952   */\n      swap3\n      swap2\n      pop\n      pop\n      jump\t// out\n        /* \"#utility.yul\":21958:22315   */\n    tag_178:\n        /* \"#utility.yul\":22036:22039   */\n      0x00\n        /* \"#utility.yul\":22064:22103   */\n      tag_411\n        /* \"#utility.yul\":22097:22102   */\n      dup3\n        /* \"#utility.yul\":22064:22103   */\n      tag_141\n      jump\t// in\n    tag_411:\n        /* \"#utility.yul\":22119:22180   */\n      tag_412\n        /* \"#utility.yul\":22173:22179   */\n      dup2\n        /* \"#utility.yul\":22168:22171   */\n      dup6\n        /* \"#utility.yul\":22119:22180   */\n      tag_177\n      jump\t// in\n    tag_412:\n        /* \"#utility.yul\":22112:22180   */\n      swap4\n      pop\n        /* \"#utility.yul\":22189:22254   */\n      tag_413\n        /* \"#utility.yul\":22247:22253   */\n      dup2\n        /* \"#utility.yul\":22242:22245   */\n      dup6\n        /* \"#utility.yul\":22235:22239   */\n      0x20\n        /* \"#utility.yul\":22228:22233   */\n      dup7\n        /* \"#utility.yul\":22224:22240   */\n      add\n        /* \"#utility.yul\":22189:22254   */\n      tag_143\n      jump\t// in\n    tag_413:\n        /* \"#utility.yul\":22279:22308   */\n      tag_414\n        /* \"#utility.yul\":22301:22307   */\n      dup2\n        /* \"#utility.yul\":22279:22308   */\n      tag_122\n      jump\t// in\n    tag_414:\n        /* \"#utility.yul\":22274:22277   */\n      dup5\n        /* \"#utility.yul\":22270:22309   */\n      add\n        /* \"#utility.yul\":22263:22309   */\n      swap2\n      pop\n        /* \"#utility.yul\":22040:22315   */\n      pop\n        /* \"#utility.yul\":21958:22315   */\n      swap3\n      swap2\n      pop\n      pop\n      jump\t// out\n        /* \"#utility.yul\":22321:22517   */\n    tag_179:\n        /* \"#utility.yul\":22410:22420   */\n      0x00\n        /* \"#utility.yul\":22445:22511   */\n      tag_416\n        /* \"#utility.yul\":22507:22510   */\n      dup4\n        /* \"#utility.yul\":22499:22505   */\n      dup4\n        /* \"#utility.yul\":22445:22511   */\n      tag_178\n      jump\t// in\n    tag_416:\n        /* \"#utility.yul\":22431:22511   */\n      swap1\n      pop\n        /* \"#utility.yul\":22321:22517   */\n      swap3\n      swap2\n      pop\n      pop\n      jump\t// out\n        /* \"#utility.yul\":22523:22646   */\n    tag_180:\n        /* \"#utility.yul\":22603:22607   */\n      0x00\n        /* \"#utility.yul\":22635:22639   */\n      0x20\n        /* \"#utility.yul\":22630:22633   */\n      dup3\n        /* \"#utility.yul\":22626:22640   */\n      add\n        /* \"#utility.yul\":22618:22640   */\n      swap1\n      pop\n        /* \"#utility.yul\":22523:22646   */\n      swap2\n      swap1\n      pop\n      jump\t// out\n        /* \"#utility.yul\":22680:23671   */\n    tag_181:\n        /* \"#utility.yul\":22819:22822   */\n      0x00\n        /* \"#utility.yul\":22848:22912   */\n      tag_419\n        /* \"#utility.yul\":22906:22911   */\n      dup3\n        /* \"#utility.yul\":22848:22912   */\n      tag_174\n      jump\t// in\n    tag_419:\n        /* \"#utility.yul\":22928:23024   */\n      tag_420\n        /* \"#utility.yul\":23017:23023   */\n      dup2\n        /* \"#utility.yul\":23012:23015   */\n      dup6\n        /* \"#utility.yul\":22928:23024   */\n      tag_175\n      jump\t// in\n    tag_420:\n        /* \"#utility.yul\":22921:23024   */\n      swap4\n      pop\n        /* \"#utility.yul\":23050:23053   */\n      dup4\n        /* \"#utility.yul\":23095:23099   */\n      0x20\n        /* \"#utility.yul\":23087:23093   */\n      dup3\n        /* \"#utility.yul\":23083:23100   */\n      mul\n        /* \"#utility.yul\":23078:23081   */\n      dup6\n        /* \"#utility.yul\":23074:23101   */\n      add\n        /* \"#utility.yul\":23125:23191   */\n      tag_421\n        /* \"#utility.yul\":23185:23190   */\n      dup6\n        /* \"#utility.yul\":23125:23191   */\n      tag_176\n      jump\t// in\n    tag_421:\n        /* \"#utility.yul\":23214:23221   */\n      dup1\n        /* \"#utility.yul\":23245:23246   */\n      0x00\n        /* \"#utility.yul\":23230:23626   */\n    tag_422:\n        /* \"#utility.yul\":23255:23261   */\n      dup6\n        /* \"#utility.yul\":23252:23253   */\n      dup2\n        /* \"#utility.yul\":23249:23262   */\n      lt\n        /* \"#utility.yul\":23230:23626   */\n      iszero\n      tag_424\n      jumpi\n        /* \"#utility.yul\":23326:23335   */\n      dup5\n        /* \"#utility.yul\":23320:23324   */\n      dup5\n        /* \"#utility.yul\":23316:23336   */\n      sub\n        /* \"#utility.yul\":23311:23314   */\n      dup10\n        /* \"#utility.yul\":23304:23337   */\n      mstore\n        /* \"#utility.yul\":23377:23383   */\n      dup2\n        /* \"#utility.yul\":23371:23384   */\n      mload\n        /* \"#utility.yul\":23405:23489   */\n      tag_425\n        /* \"#utility.yul\":23484:23488   */\n      dup6\n        /* \"#utility.yul\":23469:23482   */\n      dup3\n        /* \"#utility.yul\":23405:23489   */\n      tag_179\n      jump\t// in\n    tag_425:\n        /* \"#utility.yul\":23397:23489   */\n      swap5\n      pop\n        /* \"#utility.yul\":23512:23582   */\n      tag_426\n        /* \"#utility.yul\":23575:23581   */\n      dup4\n        /* \"#utility.yul\":23512:23582   */\n      tag_180\n      jump\t// in\n    tag_426:\n        /* \"#utility.yul\":23502:23582   */\n      swap3\n      pop\n        /* \"#utility.yul\":23611:23615   */\n      0x20\n        /* \"#utility.yul\":23606:23609   */\n      dup11\n        /* \"#utility.yul\":23602:23616   */\n      add\n        /* \"#utility.yul\":23595:23616   */\n      swap10\n      pop\n        /* \"#utility.yul\":23290:23626   */\n      pop\n        /* \"#utility.yul\":23277:23278   */\n      0x01\n        /* \"#utility.yul\":23274:23275   */\n      dup2\n        /* \"#utility.yul\":23270:23279   */\n      add\n        /* \"#utility.yul\":23265:23279   */\n      swap1\n      pop\n        /* \"#utility.yul\":23230:23626   */\n      jump(tag_422)\n    tag_424:\n        /* \"#utility.yul\":23234:23248   */\n      pop\n        /* \"#utility.yul\":23642:23646   */\n      dup3\n        /* \"#utility.yul\":23635:23646   */\n      swap8\n      pop\n        /* \"#utility.yul\":23662:23665   */\n      dup8\n        /* \"#utility.yul\":23655:23665   */\n      swap6\n      pop\n        /* \"#utility.yul\":22824:23671   */\n      pop\n      pop\n      pop\n      pop\n      pop\n        /* \"#utility.yul\":22680:23671   */\n      swap3\n      swap2\n      pop\n      pop\n      jump\t// out\n        /* \"#utility.yul\":23677:24401   */\n    tag_81:\n        /* \"#utility.yul\":23916:23920   */\n      0x00\n        /* \"#utility.yul\":23954:23956   */\n      0x60\n        /* \"#utility.yul\":23943:23952   */\n      dup3\n        /* \"#utility.yul\":23939:23957   */\n      add\n        /* \"#utility.yul\":23931:23957   */\n      swap1\n      pop\n        /* \"#utility.yul\":23967:24038   */\n      tag_428\n        /* \"#utility.yul\":24035:24036   */\n      0x00\n        /* \"#utility.yul\":24024:24033   */\n      dup4\n        /* \"#utility.yul\":24020:24037   */\n      add\n        /* \"#utility.yul\":24011:24017   */\n      dup7\n        /* \"#utility.yul\":23967:24038   */\n      tag_136\n      jump\t// in\n    tag_428:\n        /* \"#utility.yul\":24085:24094   */\n      dup2\n        /* \"#utility.yul\":24079:24083   */\n      dup2\n        /* \"#utility.yul\":24075:24095   */\n      sub\n        /* \"#utility.yul\":24070:24072   */\n      0x20\n        /* \"#utility.yul\":24059:24068   */\n      dup4\n        /* \"#utility.yul\":24055:24073   */\n      add\n        /* \"#utility.yul\":24048:24096   */\n      mstore\n        /* \"#utility.yul\":24113:24191   */\n      tag_429\n        /* \"#utility.yul\":24186:24190   */\n      dup2\n        /* \"#utility.yul\":24177:24183   */\n      dup6\n        /* \"#utility.yul\":24113:24191   */\n      tag_144\n      jump\t// in\n    tag_429:\n        /* \"#utility.yul\":24105:24191   */\n      swap1\n      pop\n        /* \"#utility.yul\":24238:24247   */\n      dup2\n        /* \"#utility.yul\":24232:24236   */\n      dup2\n        /* \"#utility.yul\":24228:24248   */\n      sub\n        /* \"#utility.yul\":24223:24225   */\n      0x40\n        /* \"#utility.yul\":24212:24221   */\n      dup4\n        /* \"#utility.yul\":24208:24226   */\n      add\n        /* \"#utility.yul\":24201:24249   */\n      mstore\n        /* \"#utility.yul\":24266:24394   */\n      tag_430\n        /* \"#utility.yul\":24389:24393   */\n      dup2\n        /* \"#utility.yul\":24380:24386   */\n      dup5\n        /* \"#utility.yul\":24266:24394   */\n      tag_181\n      jump\t// in\n    tag_430:\n        /* \"#utility.yul\":24258:24394   */\n      swap1\n      pop\n        /* \"#utility.yul\":23677:24401   */\n      swap5\n      swap4\n      pop\n      pop\n      pop\n      pop\n      jump\t// out\n        /* \"#utility.yul\":24407:24589   */\n    tag_182:\n        /* \"#utility.yul\":24547:24581   */\n      0x506f6c6c20646f6573206e6f74206578697374206f7220697320616374697665\n        /* \"#utility.yul\":24543:24544   */\n      0x00\n        /* \"#utility.yul\":24535:24541   */\n      dup3\n        /* \"#utility.yul\":24531:24545   */\n      add\n        /* \"#utility.yul\":24524:24582   */\n      mstore\n        /* \"#utility.yul\":24407:24589   */\n      pop\n      jump\t// out\n        /* \"#utility.yul\":24595:24961   */\n    tag_183:\n        /* \"#utility.yul\":24737:24740   */\n      0x00\n        /* \"#utility.yul\":24758:24825   */\n      tag_433\n        /* \"#utility.yul\":24822:24824   */\n      0x20\n        /* \"#utility.yul\":24817:24820   */\n      dup4\n        /* \"#utility.yul\":24758:24825   */\n      tag_142\n      jump\t// in\n    tag_433:\n        /* \"#utility.yul\":24751:24825   */\n      swap2\n      pop\n        /* \"#utility.yul\":24834:24927   */\n      tag_434\n        /* \"#utility.yul\":24923:24926   */\n      dup3\n        /* \"#utility.yul\":24834:24927   */\n      tag_182\n      jump\t// in\n    tag_434:\n        /* \"#utility.yul\":24952:24954   */\n      0x20\n        /* \"#utility.yul\":24947:24950   */\n      dup3\n        /* \"#utility.yul\":24943:24955   */\n      add\n        /* \"#utility.yul\":24936:24955   */\n      swap1\n      pop\n        /* \"#utility.yul\":24595:24961   */\n      swap2\n      swap1\n      pop\n      jump\t// out\n        /* \"#utility.yul\":24967:25386   */\n    tag_92:\n        /* \"#utility.yul\":25133:25137   */\n      0x00\n        /* \"#utility.yul\":25171:25173   */\n      0x20\n        /* \"#utility.yul\":25160:25169   */\n      dup3\n        /* \"#utility.yul\":25156:25174   */\n      add\n        /* \"#utility.yul\":25148:25174   */\n      swap1\n      pop\n        /* \"#utility.yul\":25220:25229   */\n      dup2\n        /* \"#utility.yul\":25214:25218   */\n      dup2\n        /* \"#utility.yul\":25210:25230   */\n      sub\n        /* \"#utility.yul\":25206:25207   */\n      0x00\n        /* \"#utility.yul\":25195:25204   */\n      dup4\n        /* \"#utility.yul\":25191:25208   */\n      add\n        /* \"#utility.yul\":25184:25231   */\n      mstore\n        /* \"#utility.yul\":25248:25379   */\n      tag_436\n        /* \"#utility.yul\":25374:25378   */\n      dup2\n        /* \"#utility.yul\":25248:25379   */\n      tag_183\n      jump\t// in\n    tag_436:\n        /* \"#utility.yul\":25240:25379   */\n      swap1\n      pop\n        /* \"#utility.yul\":24967:25386   */\n      swap2\n      swap1\n      pop\n      jump\t// out\n\n    auxdata: 0xa2646970667358221220657f6deb8053d375cf8939bd1fd2c3cd9eac90bd79e563a4c4ebedb9dd2e624e64736f6c63430008120033\n}\n",
				"bytecode": {
					"linkReferences": {},
					"object": "608060405234801561001057600080fd5b506115df806100206000396000f3fe608060405234801561001057600080fd5b506004361061007d5760003560e01c8063842ff2bd1161005b578063842ff2bd146100ea578063a3ec138d14610108578063ac2f007414610139578063e76d28ad1461016a5761007d565b806324108475146100825780632d957d341461009e5780637e3d71c3146100ce575b600080fd5b61009c600480360381019061009791906109fa565b61019a565b005b6100b860048036038101906100b391906109fa565b61041f565b6040516100c59190610a71565b60405180910390f35b6100e860048036038101906100e39190610b72565b6104c3565b005b6100f261059d565b6040516100ff9190610bf9565b60405180910390f35b610122600480360381019061011d9190610c72565b6105a3565b604051610130929190610c9f565b60405180910390f35b610153600480360381019061014e9190610cc8565b6105d4565b604051610161929190610d74565b60405180910390f35b610184600480360381019061017f91906109fa565b61068d565b6040516101919190610bf9565b60405180910390f35b60015482111580156101d257506001151560008084815260200190815260200160002060030160009054906101000a900460ff161515145b610211576040517f08c379a000000000000000000000000000000000000000000000000000000000815260040161020890610e16565b60405180910390fd5b60001515600260003373ffffffffffffffffffffffffffffffffffffffff1673ffffffffffffffffffffffffffffffffffffffff16815260200190815260200160002060000160009054906101000a900460ff161515146102a7576040517f08c379a000000000000000000000000000000000000000000000000000000000815260040161029e90610e82565b60405180910390fd5b600115156102b5838361041f565b1515146102f7576040517f08c379a00000000000000000000000000000000000000000000000000000000081526004016102ee90610eee565b60405180910390fd5b6000808381526020019081526020016000206002018160405161031a9190610f4a565b9081526020016040518091039020600081548092919061033990610f90565b91905055506001600260003373ffffffffffffffffffffffffffffffffffffffff1673ffffffffffffffffffffffffffffffffffffffff16815260200190815260200160002060000160006101000a81548160ff02191690831515021790555081600260003373ffffffffffffffffffffffffffffffffffffffff1673ffffffffffffffffffffffffffffffffffffffff168152602001908152602001600020600101819055507fd84a1de55e5258fa81e1531bee8ef292ee5b61ae20b274cce4006b79fa4b642e33838360405161041393929190610fe7565b60405180910390a15050565b600080600090505b600080858152602001908152602001600020600101805490508110156104b7578280519060200120600080868152602001908152602001600020600101828154811061047657610475611025565b5b9060005260206000200160405161048d9190611157565b6040518091039020036104a45760019150506104bd565b80806104af90610f90565b915050610427565b50600090505b92915050565b600160008154809291906104d690610f90565b919050555081600080600154815260200190815260200160002060000190816104ff919061131a565b50806000806001548152602001908152602001600020600101908051906020019061052b929190610790565b506001600080600154815260200190815260200160002060030160006101000a81548160ff0219169083151502179055507f4be3f505bf50604bde92e6940e2df40c36f90cb362640413d520080ca12eabb26001548383604051610591939291906114f8565b60405180910390a15050565b60015481565b60026020528060005260406000206000915090508060000160009054906101000a900460ff16908060010154905082565b60006020528060005260406000206000915090508060000180546105f790611083565b80601f016020809104026020016040519081016040528092919081815260200182805461062390611083565b80156106705780601f1061064557610100808354040283529160200191610670565b820191906000526020600020905b81548152906001019060200180831161065357829003601f168201915b5050505050908060030160009054906101000a900460ff16905082565b600060015483111580156106c757506000151560008085815260200190815260200160002060030160009054906101000a900460ff161515145b610706576040517f08c379a00000000000000000000000000000000000000000000000000000000081526004016106fd90611589565b60405180910390fd5b60011515610714848461041f565b151514610756576040517f08c379a000000000000000000000000000000000000000000000000000000000815260040161074d90610eee565b60405180910390fd5b600080848152602001908152602001600020600201826040516107799190610f4a565b908152602001604051809103902054905092915050565b8280548282559060005260206000209081019282156107d8579160200282015b828111156107d75782518290816107c7919061131a565b50916020019190600101906107b0565b5b5090506107e591906107e9565b5090565b5b808211156108095760008181610800919061080d565b506001016107ea565b5090565b50805461081990611083565b6000825580601f1061082b575061084a565b601f016020900490600052602060002090810190610849919061084d565b5b50565b5b8082111561086657600081600090555060010161084e565b5090565b6000604051905090565b600080fd5b600080fd5b6000819050919050565b6108918161087e565b811461089c57600080fd5b50565b6000813590506108ae81610888565b92915050565b600080fd5b600080fd5b6000601f19601f8301169050919050565b7f4e487b7100000000000000000000000000000000000000000000000000000000600052604160045260246000fd5b610907826108be565b810181811067ffffffffffffffff82111715610926576109256108cf565b5b80604052505050565b600061093961086a565b905061094582826108fe565b919050565b600067ffffffffffffffff821115610965576109646108cf565b5b61096e826108be565b9050602081019050919050565b82818337600083830152505050565b600061099d6109988461094a565b61092f565b9050828152602081018484840111156109b9576109b86108b9565b5b6109c484828561097b565b509392505050565b600082601f8301126109e1576109e06108b4565b5b81356109f184826020860161098a565b91505092915050565b60008060408385031215610a1157610a10610874565b5b6000610a1f8582860161089f565b925050602083013567ffffffffffffffff811115610a4057610a3f610879565b5b610a4c858286016109cc565b9150509250929050565b60008115159050919050565b610a6b81610a56565b82525050565b6000602082019050610a866000830184610a62565b92915050565b600067ffffffffffffffff821115610aa757610aa66108cf565b5b602082029050602081019050919050565b600080fd5b6000610ad0610acb84610a8c565b61092f565b90508083825260208201905060208402830185811115610af357610af2610ab8565b5b835b81811015610b3a57803567ffffffffffffffff811115610b1857610b176108b4565b5b808601610b2589826109cc565b85526020850194505050602081019050610af5565b5050509392505050565b600082601f830112610b5957610b586108b4565b5b8135610b69848260208601610abd565b91505092915050565b60008060408385031215610b8957610b88610874565b5b600083013567ffffffffffffffff811115610ba757610ba6610879565b5b610bb3858286016109cc565b925050602083013567ffffffffffffffff811115610bd457610bd3610879565b5b610be085828601610b44565b9150509250929050565b610bf38161087e565b82525050565b6000602082019050610c0e6000830184610bea565b92915050565b600073ffffffffffffffffffffffffffffffffffffffff82169050919050565b6000610c3f82610c14565b9050919050565b610c4f81610c34565b8114610c5a57600080fd5b50565b600081359050610c6c81610c46565b92915050565b600060208284031215610c8857610c87610874565b5b6000610c9684828501610c5d565b91505092915050565b6000604082019050610cb46000830185610a62565b610cc16020830184610bea565b9392505050565b600060208284031215610cde57610cdd610874565b5b6000610cec8482850161089f565b91505092915050565b600081519050919050565b600082825260208201905092915050565b60005b83811015610d2f578082015181840152602081019050610d14565b60008484015250505050565b6000610d4682610cf5565b610d508185610d00565b9350610d60818560208601610d11565b610d69816108be565b840191505092915050565b60006040820190508181036000830152610d8e8185610d3b565b9050610d9d6020830184610a62565b9392505050565b7f506f6c6c20646f6573206e6f74206578697374206f7220697320696e6163746960008201527f7665000000000000000000000000000000000000000000000000000000000000602082015250565b6000610e00602283610d00565b9150610e0b82610da4565b604082019050919050565b60006020820190508181036000830152610e2f81610df3565b9050919050565b7f566f7465722068617320616c726561647920766f746564000000000000000000600082015250565b6000610e6c601783610d00565b9150610e7782610e36565b602082019050919050565b60006020820190508181036000830152610e9b81610e5f565b9050919050565b7f496e76616c6964206f7074696f6e000000000000000000000000000000000000600082015250565b6000610ed8600e83610d00565b9150610ee382610ea2565b602082019050919050565b60006020820190508181036000830152610f0781610ecb565b9050919050565b600081905092915050565b6000610f2482610cf5565b610f2e8185610f0e565b9350610f3e818560208601610d11565b80840191505092915050565b6000610f568284610f19565b915081905092915050565b7f4e487b7100000000000000000000000000000000000000000000000000000000600052601160045260246000fd5b6000610f9b8261087e565b91507fffffffffffffffffffffffffffffffffffffffffffffffffffffffffffffffff8203610fcd57610fcc610f61565b5b600182019050919050565b610fe181610c34565b82525050565b6000606082019050610ffc6000830186610fd8565b6110096020830185610bea565b818103604083015261101b8184610d3b565b9050949350505050565b7f4e487b7100000000000000000000000000000000000000000000000000000000600052603260045260246000fd5b7f4e487b7100000000000000000000000000000000000000000000000000000000600052602260045260246000fd5b6000600282049050600182168061109b57607f821691505b6020821081036110ae576110ad611054565b5b50919050565b600081905092915050565b60008190508160005260206000209050919050565b600081546110e181611083565b6110eb81866110b4565b94506001821660008114611106576001811461111b5761114e565b60ff198316865281151582028601935061114e565b611124856110bf565b60005b8381101561114657815481890152600182019150602081019050611127565b838801955050505b50505092915050565b600061116382846110d4565b915081905092915050565b60008190508160005260206000209050919050565b60006020601f8301049050919050565b600082821b905092915050565b6000600883026111d07fffffffffffffffffffffffffffffffffffffffffffffffffffffffffffffffff82611193565b6111da8683611193565b95508019841693508086168417925050509392505050565b6000819050919050565b600061121761121261120d8461087e565b6111f2565b61087e565b9050919050565b6000819050919050565b611231836111fc565b61124561123d8261121e565b8484546111a0565b825550505050565b600090565b61125a61124d565b611265818484611228565b505050565b5b818110156112895761127e600082611252565b60018101905061126b565b5050565b601f8211156112ce5761129f8161116e565b6112a884611183565b810160208510156112b7578190505b6112cb6112c385611183565b83018261126a565b50505b505050565b600082821c905092915050565b60006112f1600019846008026112d3565b1980831691505092915050565b600061130a83836112e0565b9150826002028217905092915050565b61132382610cf5565b67ffffffffffffffff81111561133c5761133b6108cf565b5b6113468254611083565b61135182828561128d565b600060209050601f8311600181146113845760008415611372578287015190505b61137c85826112fe565b8655506113e4565b601f1984166113928661116e565b60005b828110156113ba57848901518255600182019150602085019450602081019050611395565b868310156113d757848901516113d3601f8916826112e0565b8355505b6001600288020188555050505b505050505050565b600081519050919050565b600082825260208201905092915050565b6000819050602082019050919050565b600082825260208201905092915050565b600061143482610cf5565b61143e8185611418565b935061144e818560208601610d11565b611457816108be565b840191505092915050565b600061146e8383611429565b905092915050565b6000602082019050919050565b600061148e826113ec565b61149881856113f7565b9350836020820285016114aa85611408565b8060005b858110156114e657848403895281516114c78582611462565b94506114d283611476565b925060208a019950506001810190506114ae565b50829750879550505050505092915050565b600060608201905061150d6000830186610bea565b818103602083015261151f8185610d3b565b905081810360408301526115338184611483565b9050949350505050565b7f506f6c6c20646f6573206e6f74206578697374206f7220697320616374697665600082015250565b6000611573602083610d00565b915061157e8261153d565b602082019050919050565b600060208201905081810360008301526115a281611566565b905091905056fea2646970667358221220657f6deb8053d375cf8939bd1fd2c3cd9eac90bd79e563a4c4ebedb9dd2e624e64736f6c63430008120033",
					"opcodes": "PUSH1 0x80 PUSH1 0x40 MSTORE CALLVALUE DUP1 ISZERO PUSH2 0x10 JUMPI PUSH1 0x0 DUP1 REVERT JUMPDEST POP PUSH2 0x15DF DUP1 PUSH2 0x20 PUSH1 0x0 CODECOPY PUSH1 0x0 RETURN INVALID PUSH1 0x80 PUSH1 0x40 MSTORE CALLVALUE DUP1 ISZERO PUSH2 0x10 JUMPI PUSH1 0x0 DUP1 REVERT JUMPDEST POP PUSH1 0x4 CALLDATASIZE LT PUSH2 0x7D JUMPI PUSH1 0x0 CALLDATALOAD PUSH1 0xE0 SHR DUP1 PUSH4 0x842FF2BD GT PUSH2 0x5B JUMPI DUP1 PUSH4 0x842FF2BD EQ PUSH2 0xEA JUMPI DUP1 PUSH4 0xA3EC138D EQ PUSH2 0x108 JUMPI DUP1 PUSH4 0xAC2F0074 EQ PUSH2 0x139 JUMPI DUP1 PUSH4 0xE76D28AD EQ PUSH2 0x16A JUMPI PUSH2 0x7D JUMP JUMPDEST DUP1 PUSH4 0x24108475 EQ PUSH2 0x82 JUMPI DUP1 PUSH4 0x2D957D34 EQ PUSH2 0x9E JUMPI DUP1 PUSH4 0x7E3D71C3 EQ PUSH2 0xCE JUMPI JUMPDEST PUSH1 0x0 DUP1 REVERT JUMPDEST PUSH2 0x9C PUSH1 0x4 DUP1 CALLDATASIZE SUB DUP2 ADD SWAP1 PUSH2 0x97 SWAP2 SWAP1 PUSH2 0x9FA JUMP JUMPDEST PUSH2 0x19A JUMP JUMPDEST STOP JUMPDEST PUSH2 0xB8 PUSH1 0x4 DUP1 CALLDATASIZE SUB DUP2 ADD SWAP1 PUSH2 0xB3 SWAP2 SWAP1 PUSH2 0x9FA JUMP JUMPDEST PUSH2 0x41F JUMP JUMPDEST PUSH1 0x40 MLOAD PUSH2 0xC5 SWAP2 SWAP1 PUSH2 0xA71 JUMP JUMPDEST PUSH1 0x40 MLOAD DUP1 SWAP2 SUB SWAP1 RETURN JUMPDEST PUSH2 0xE8 PUSH1 0x4 DUP1 CALLDATASIZE SUB DUP2 ADD SWAP1 PUSH2 0xE3 SWAP2 SWAP1 PUSH2 0xB72 JUMP JUMPDEST PUSH2 0x4C3 JUMP JUMPDEST STOP JUMPDEST PUSH2 0xF2 PUSH2 0x59D JUMP JUMPDEST PUSH1 0x40 MLOAD PUSH2 0xFF SWAP2 SWAP1 PUSH2 0xBF9 JUMP JUMPDEST PUSH1 0x40 MLOAD DUP1 SWAP2 SUB SWAP1 RETURN JUMPDEST PUSH2 0x122 PUSH1 0x4 DUP1 CALLDATASIZE SUB DUP2 ADD SWAP1 PUSH2 0x11D SWAP2 SWAP1 PUSH2 0xC72 JUMP JUMPDEST PUSH2 0x5A3 JUMP JUMPDEST PUSH1 0x40 MLOAD PUSH2 0x130 SWAP3 SWAP2 SWAP1 PUSH2 0xC9F JUMP JUMPDEST PUSH1 0x40 MLOAD DUP1 SWAP2 SUB SWAP1 RETURN JUMPDEST PUSH2 0x153 PUSH1 0x4 DUP1 CALLDATASIZE SUB DUP2 ADD SWAP1 PUSH2 0x14E SWAP2 SWAP1 PUSH2 0xCC8 JUMP JUMPDEST PUSH2 0x5D4 JUMP JUMPDEST PUSH1 0x40 MLOAD PUSH2 0x161 SWAP3 SWAP2 SWAP1 PUSH2 0xD74 JUMP JUMPDEST PUSH1 0x40 MLOAD DUP1 SWAP2 SUB SWAP1 RETURN JUMPDEST PUSH2 0x184 PUSH1 0x4 DUP1 CALLDATASIZE SUB DUP2 ADD SWAP1 PUSH2 0x17F SWAP2 SWAP1 PUSH2 0x9FA JUMP JUMPDEST PUSH2 0x68D JUMP JUMPDEST PUSH1 0x40 MLOAD PUSH2 0x191 SWAP2 SWAP1 PUSH2 0xBF9 JUMP JUMPDEST PUSH1 0x40 MLOAD DUP1 SWAP2 SUB SWAP1 RETURN JUMPDEST PUSH1 0x1 SLOAD DUP3 GT ISZERO DUP1 ISZERO PUSH2 0x1D2 JUMPI POP PUSH1 0x1 ISZERO ISZERO PUSH1 0x0 DUP1 DUP5 DUP2 MSTORE PUSH1 0x20 ADD SWAP1 DUP2 MSTORE PUSH1 0x20 ADD PUSH1 0x0 KECCAK256 PUSH1 0x3 ADD PUSH1 0x0 SWAP1 SLOAD SWAP1 PUSH2 0x100 EXP SWAP1 DIV PUSH1 0xFF AND ISZERO ISZERO EQ JUMPDEST PUSH2 0x211 JUMPI PUSH1 0x40 MLOAD PUSH32 0x8C379A000000000000000000000000000000000000000000000000000000000 DUP2 MSTORE PUSH1 0x4 ADD PUSH2 0x208 SWAP1 PUSH2 0xE16 JUMP JUMPDEST PUSH1 0x40 MLOAD DUP1 SWAP2 SUB SWAP1 REVERT JUMPDEST PUSH1 0x0 ISZERO ISZERO PUSH1 0x2 PUSH1 0x0 CALLER PUSH20 0xFFFFFFFFFFFFFFFFFFFFFFFFFFFFFFFFFFFFFFFF AND PUSH20 0xFFFFFFFFFFFFFFFFFFFFFFFFFFFFFFFFFFFFFFFF AND DUP2 MSTORE PUSH1 0x20 ADD SWAP1 DUP2 MSTORE PUSH1 0x20 ADD PUSH1 0x0 KECCAK256 PUSH1 0x0 ADD PUSH1 0x0 SWAP1 SLOAD SWAP1 PUSH2 0x100 EXP SWAP1 DIV PUSH1 0xFF AND ISZERO ISZERO EQ PUSH2 0x2A7 JUMPI PUSH1 0x40 MLOAD PUSH32 0x8C379A000000000000000000000000000000000000000000000000000000000 DUP2 MSTORE PUSH1 0x4 ADD PUSH2 0x29E SWAP1 PUSH2 0xE82 JUMP JUMPDEST PUSH1 0x40 MLOAD DUP1 SWAP2 SUB SWAP1 REVERT JUMPDEST PUSH1 0x1 ISZERO ISZERO PUSH2 0x2B5 DUP4 DUP4 PUSH2 0x41F JUMP JUMPDEST ISZERO ISZERO EQ PUSH2 0x2F7 JUMPI PUSH1 0x40 MLOAD PUSH32 0x8C379A000000000000000000000000000000000000000000000000000000000 DUP2 MSTORE PUSH1 0x4 ADD PUSH2 0x2EE SWAP1 PUSH2 0xEEE JUMP JUMPDEST PUSH1 0x40 MLOAD DUP1 SWAP2 SUB SWAP1 REVERT JUMPDEST PUSH1 0x0 DUP1 DUP4 DUP2 MSTORE PUSH1 0x20 ADD SWAP1 DUP2 MSTORE PUSH1 0x20 ADD PUSH1 0x0 KECCAK256 PUSH1 0x2 ADD DUP2 PUSH1 0x40 MLOAD PUSH2 0x31A SWAP2 SWAP1 PUSH2 0xF4A JUMP JUMPDEST SWAP1 DUP2 MSTORE PUSH1 0x20 ADD PUSH1 0x40 MLOAD DUP1 SWAP2 SUB SWAP1 KECCAK256 PUSH1 0x0 DUP2 SLOAD DUP1 SWAP3 SWAP2 SWAP1 PUSH2 0x339 SWAP1 PUSH2 0xF90 JUMP JUMPDEST SWAP2 SWAP1 POP SSTORE POP PUSH1 0x1 PUSH1 0x2 PUSH1 0x0 CALLER PUSH20 0xFFFFFFFFFFFFFFFFFFFFFFFFFFFFFFFFFFFFFFFF AND PUSH20 0xFFFFFFFFFFFFFFFFFFFFFFFFFFFFFFFFFFFFFFFF AND DUP2 MSTORE PUSH1 0x20 ADD SWAP1 DUP2 MSTORE PUSH1 0x20 ADD PUSH1 0x0 KECCAK256 PUSH1 0x0 ADD PUSH1 0x0 PUSH2 0x100 EXP DUP2 SLOAD DUP2 PUSH1 0xFF MUL NOT AND SWAP1 DUP4 ISZERO ISZERO MUL OR SWAP1 SSTORE POP DUP2 PUSH1 0x2 PUSH1 0x0 CALLER PUSH20 0xFFFFFFFFFFFFFFFFFFFFFFFFFFFFFFFFFFFFFFFF AND PUSH20 0xFFFFFFFFFFFFFFFFFFFFFFFFFFFFFFFFFFFFFFFF AND DUP2 MSTORE PUSH1 0x20 ADD SWAP1 DUP2 MSTORE PUSH1 0x20 ADD PUSH1 0x0 KECCAK256 PUSH1 0x1 ADD DUP2 SWAP1 SSTORE POP PUSH32 0xD84A1DE55E5258FA81E1531BEE8EF292EE5B61AE20B274CCE4006B79FA4B642E CALLER DUP4 DUP4 PUSH1 0x40 MLOAD PUSH2 0x413 SWAP4 SWAP3 SWAP2 SWAP1 PUSH2 0xFE7 JUMP JUMPDEST PUSH1 0x40 MLOAD DUP1 SWAP2 SUB SWAP1 LOG1 POP POP JUMP JUMPDEST PUSH1 0x0 DUP1 PUSH1 0x0 SWAP1 POP JUMPDEST PUSH1 0x0 DUP1 DUP6 DUP2 MSTORE PUSH1 0x20 ADD SWAP1 DUP2 MSTORE PUSH1 0x20 ADD PUSH1 0x0 KECCAK256 PUSH1 0x1 ADD DUP1 SLOAD SWAP1 POP DUP2 LT ISZERO PUSH2 0x4B7 JUMPI DUP3 DUP1 MLOAD SWAP1 PUSH1 0x20 ADD KECCAK256 PUSH1 0x0 DUP1 DUP7 DUP2 MSTORE PUSH1 0x20 ADD SWAP1 DUP2 MSTORE PUSH1 0x20 ADD PUSH1 0x0 KECCAK256 PUSH1 0x1 ADD DUP3 DUP2 SLOAD DUP2 LT PUSH2 0x476 JUMPI PUSH2 0x475 PUSH2 0x1025 JUMP JUMPDEST JUMPDEST SWAP1 PUSH1 0x0 MSTORE PUSH1 0x20 PUSH1 0x0 KECCAK256 ADD PUSH1 0x40 MLOAD PUSH2 0x48D SWAP2 SWAP1 PUSH2 0x1157 JUMP JUMPDEST PUSH1 0x40 MLOAD DUP1 SWAP2 SUB SWAP1 KECCAK256 SUB PUSH2 0x4A4 JUMPI PUSH1 0x1 SWAP2 POP POP PUSH2 0x4BD JUMP JUMPDEST DUP1 DUP1 PUSH2 0x4AF SWAP1 PUSH2 0xF90 JUMP JUMPDEST SWAP2 POP POP PUSH2 0x427 JUMP JUMPDEST POP PUSH1 0x0 SWAP1 POP JUMPDEST SWAP3 SWAP2 POP POP JUMP JUMPDEST PUSH1 0x1 PUSH1 0x0 DUP2 SLOAD DUP1 SWAP3 SWAP2 SWAP1 PUSH2 0x4D6 SWAP1 PUSH2 0xF90 JUMP JUMPDEST SWAP2 SWAP1 POP SSTORE POP DUP2 PUSH1 0x0 DUP1 PUSH1 0x1 SLOAD DUP2 MSTORE PUSH1 0x20 ADD SWAP1 DUP2 MSTORE PUSH1 0x20 ADD PUSH1 0x0 KECCAK256 PUSH1 0x0 ADD SWAP1 DUP2 PUSH2 0x4FF SWAP2 SWAP1 PUSH2 0x131A JUMP JUMPDEST POP DUP1 PUSH1 0x0 DUP1 PUSH1 0x1 SLOAD DUP2 MSTORE PUSH1 0x20 ADD SWAP1 DUP2 MSTORE PUSH1 0x20 ADD PUSH1 0x0 KECCAK256 PUSH1 0x1 ADD SWAP1 DUP1 MLOAD SWAP1 PUSH1 0x20 ADD SWAP1 PUSH2 0x52B SWAP3 SWAP2 SWAP1 PUSH2 0x790 JUMP JUMPDEST POP PUSH1 0x1 PUSH1 0x0 DUP1 PUSH1 0x1 SLOAD DUP2 MSTORE PUSH1 0x20 ADD SWAP1 DUP2 MSTORE PUSH1 0x20 ADD PUSH1 0x0 KECCAK256 PUSH1 0x3 ADD PUSH1 0x0 PUSH2 0x100 EXP DUP2 SLOAD DUP2 PUSH1 0xFF MUL NOT AND SWAP1 DUP4 ISZERO ISZERO MUL OR SWAP1 SSTORE POP PUSH32 0x4BE3F505BF50604BDE92E6940E2DF40C36F90CB362640413D520080CA12EABB2 PUSH1 0x1 SLOAD DUP4 DUP4 PUSH1 0x40 MLOAD PUSH2 0x591 SWAP4 SWAP3 SWAP2 SWAP1 PUSH2 0x14F8 JUMP JUMPDEST PUSH1 0x40 MLOAD DUP1 SWAP2 SUB SWAP1 LOG1 POP POP JUMP JUMPDEST PUSH1 0x1 SLOAD DUP2 JUMP JUMPDEST PUSH1 0x2 PUSH1 0x20 MSTORE DUP1 PUSH1 0x0 MSTORE PUSH1 0x40 PUSH1 0x0 KECCAK256 PUSH1 0x0 SWAP2 POP SWAP1 POP DUP1 PUSH1 0x0 ADD PUSH1 0x0 SWAP1 SLOAD SWAP1 PUSH2 0x100 EXP SWAP1 DIV PUSH1 0xFF AND SWAP1 DUP1 PUSH1 0x1 ADD SLOAD SWAP1 POP DUP3 JUMP JUMPDEST PUSH1 0x0 PUSH1 0x20 MSTORE DUP1 PUSH1 0x0 MSTORE PUSH1 0x40 PUSH1 0x0 KECCAK256 PUSH1 0x0 SWAP2 POP SWAP1 POP DUP1 PUSH1 0x0 ADD DUP1 SLOAD PUSH2 0x5F7 SWAP1 PUSH2 0x1083 JUMP JUMPDEST DUP1 PUSH1 0x1F ADD PUSH1 0x20 DUP1 SWAP2 DIV MUL PUSH1 0x20 ADD PUSH1 0x40 MLOAD SWAP1 DUP2 ADD PUSH1 0x40 MSTORE DUP1 SWAP3 SWAP2 SWAP1 DUP2 DUP2 MSTORE PUSH1 0x20 ADD DUP3 DUP1 SLOAD PUSH2 0x623 SWAP1 PUSH2 0x1083 JUMP JUMPDEST DUP1 ISZERO PUSH2 0x670 JUMPI DUP1 PUSH1 0x1F LT PUSH2 0x645 JUMPI PUSH2 0x100 DUP1 DUP4 SLOAD DIV MUL DUP4 MSTORE SWAP2 PUSH1 0x20 ADD SWAP2 PUSH2 0x670 JUMP JUMPDEST DUP3 ADD SWAP2 SWAP1 PUSH1 0x0 MSTORE PUSH1 0x20 PUSH1 0x0 KECCAK256 SWAP1 JUMPDEST DUP2 SLOAD DUP2 MSTORE SWAP1 PUSH1 0x1 ADD SWAP1 PUSH1 0x20 ADD DUP1 DUP4 GT PUSH2 0x653 JUMPI DUP3 SWAP1 SUB PUSH1 0x1F AND DUP3 ADD SWAP2 JUMPDEST POP POP POP POP POP SWAP1 DUP1 PUSH1 0x3 ADD PUSH1 0x0 SWAP1 SLOAD SWAP1 PUSH2 0x100 EXP SWAP1 DIV PUSH1 0xFF AND SWAP1 POP DUP3 JUMP JUMPDEST PUSH1 0x0 PUSH1 0x1 SLOAD DUP4 GT ISZERO DUP1 ISZERO PUSH2 0x6C7 JUMPI POP PUSH1 0x0 ISZERO ISZERO PUSH1 0x0 DUP1 DUP6 DUP2 MSTORE PUSH1 0x20 ADD SWAP1 DUP2 MSTORE PUSH1 0x20 ADD PUSH1 0x0 KECCAK256 PUSH1 0x3 ADD PUSH1 0x0 SWAP1 SLOAD SWAP1 PUSH2 0x100 EXP SWAP1 DIV PUSH1 0xFF AND ISZERO ISZERO EQ JUMPDEST PUSH2 0x706 JUMPI PUSH1 0x40 MLOAD PUSH32 0x8C379A000000000000000000000000000000000000000000000000000000000 DUP2 MSTORE PUSH1 0x4 ADD PUSH2 0x6FD SWAP1 PUSH2 0x1589 JUMP JUMPDEST PUSH1 0x40 MLOAD DUP1 SWAP2 SUB SWAP1 REVERT JUMPDEST PUSH1 0x1 ISZERO ISZERO PUSH2 0x714 DUP5 DUP5 PUSH2 0x41F JUMP JUMPDEST ISZERO ISZERO EQ PUSH2 0x756 JUMPI PUSH1 0x40 MLOAD PUSH32 0x8C379A000000000000000000000000000000000000000000000000000000000 DUP2 MSTORE PUSH1 0x4 ADD PUSH2 0x74D SWAP1 PUSH2 0xEEE JUMP JUMPDEST PUSH1 0x40 MLOAD DUP1 SWAP2 SUB SWAP1 REVERT JUMPDEST PUSH1 0x0 DUP1 DUP5 DUP2 MSTORE PUSH1 0x20 ADD SWAP1 DUP2 MSTORE PUSH1 0x20 ADD PUSH1 0x0 KECCAK256 PUSH1 0x2 ADD DUP3 PUSH1 0x40 MLOAD PUSH2 0x779 SWAP2 SWAP1 PUSH2 0xF4A JUMP JUMPDEST SWAP1 DUP2 MSTORE PUSH1 0x20 ADD PUSH1 0x40 MLOAD DUP1 SWAP2 SUB SWAP1 KECCAK256 SLOAD SWAP1 POP SWAP3 SWAP2 POP POP JUMP JUMPDEST DUP3 DUP1 SLOAD DUP3 DUP3 SSTORE SWAP1 PUSH1 0x0 MSTORE PUSH1 0x20 PUSH1 0x0 KECCAK256 SWAP1 DUP2 ADD SWAP3 DUP3 ISZERO PUSH2 0x7D8 JUMPI SWAP2 PUSH1 0x20 MUL DUP3 ADD JUMPDEST DUP3 DUP2 GT ISZERO PUSH2 0x7D7 JUMPI DUP3 MLOAD DUP3 SWAP1 DUP2 PUSH2 0x7C7 SWAP2 SWAP1 PUSH2 0x131A JUMP JUMPDEST POP SWAP2 PUSH1 0x20 ADD SWAP2 SWAP1 PUSH1 0x1 ADD SWAP1 PUSH2 0x7B0 JUMP JUMPDEST JUMPDEST POP SWAP1 POP PUSH2 0x7E5 SWAP2 SWAP1 PUSH2 0x7E9 JUMP JUMPDEST POP SWAP1 JUMP JUMPDEST JUMPDEST DUP1 DUP3 GT ISZERO PUSH2 0x809 JUMPI PUSH1 0x0 DUP2 DUP2 PUSH2 0x800 SWAP2 SWAP1 PUSH2 0x80D JUMP JUMPDEST POP PUSH1 0x1 ADD PUSH2 0x7EA JUMP JUMPDEST POP SWAP1 JUMP JUMPDEST POP DUP1 SLOAD PUSH2 0x819 SWAP1 PUSH2 0x1083 JUMP JUMPDEST PUSH1 0x0 DUP3 SSTORE DUP1 PUSH1 0x1F LT PUSH2 0x82B JUMPI POP PUSH2 0x84A JUMP JUMPDEST PUSH1 0x1F ADD PUSH1 0x20 SWAP1 DIV SWAP1 PUSH1 0x0 MSTORE PUSH1 0x20 PUSH1 0x0 KECCAK256 SWAP1 DUP2 ADD SWAP1 PUSH2 0x849 SWAP2 SWAP1 PUSH2 0x84D JUMP JUMPDEST JUMPDEST POP JUMP JUMPDEST JUMPDEST DUP1 DUP3 GT ISZERO PUSH2 0x866 JUMPI PUSH1 0x0 DUP2 PUSH1 0x0 SWAP1 SSTORE POP PUSH1 0x1 ADD PUSH2 0x84E JUMP JUMPDEST POP SWAP1 JUMP JUMPDEST PUSH1 0x0 PUSH1 0x40 MLOAD SWAP1 POP SWAP1 JUMP JUMPDEST PUSH1 0x0 DUP1 REVERT JUMPDEST PUSH1 0x0 DUP1 REVERT JUMPDEST PUSH1 0x0 DUP2 SWAP1 POP SWAP2 SWAP1 POP JUMP JUMPDEST PUSH2 0x891 DUP2 PUSH2 0x87E JUMP JUMPDEST DUP2 EQ PUSH2 0x89C JUMPI PUSH1 0x0 DUP1 REVERT JUMPDEST POP JUMP JUMPDEST PUSH1 0x0 DUP2 CALLDATALOAD SWAP1 POP PUSH2 0x8AE DUP2 PUSH2 0x888 JUMP JUMPDEST SWAP3 SWAP2 POP POP JUMP JUMPDEST PUSH1 0x0 DUP1 REVERT JUMPDEST PUSH1 0x0 DUP1 REVERT JUMPDEST PUSH1 0x0 PUSH1 0x1F NOT PUSH1 0x1F DUP4 ADD AND SWAP1 POP SWAP2 SWAP1 POP JUMP JUMPDEST PUSH32 0x4E487B7100000000000000000000000000000000000000000000000000000000 PUSH1 0x0 MSTORE PUSH1 0x41 PUSH1 0x4 MSTORE PUSH1 0x24 PUSH1 0x0 REVERT JUMPDEST PUSH2 0x907 DUP3 PUSH2 0x8BE JUMP JUMPDEST DUP2 ADD DUP2 DUP2 LT PUSH8 0xFFFFFFFFFFFFFFFF DUP3 GT OR ISZERO PUSH2 0x926 JUMPI PUSH2 0x925 PUSH2 0x8CF JUMP JUMPDEST JUMPDEST DUP1 PUSH1 0x40 MSTORE POP POP POP JUMP JUMPDEST PUSH1 0x0 PUSH2 0x939 PUSH2 0x86A JUMP JUMPDEST SWAP1 POP PUSH2 0x945 DUP3 DUP3 PUSH2 0x8FE JUMP JUMPDEST SWAP2 SWAP1 POP JUMP JUMPDEST PUSH1 0x0 PUSH8 0xFFFFFFFFFFFFFFFF DUP3 GT ISZERO PUSH2 0x965 JUMPI PUSH2 0x964 PUSH2 0x8CF JUMP JUMPDEST JUMPDEST PUSH2 0x96E DUP3 PUSH2 0x8BE JUMP JUMPDEST SWAP1 POP PUSH1 0x20 DUP2 ADD SWAP1 POP SWAP2 SWAP1 POP JUMP JUMPDEST DUP3 DUP2 DUP4 CALLDATACOPY PUSH1 0x0 DUP4 DUP4 ADD MSTORE POP POP POP JUMP JUMPDEST PUSH1 0x0 PUSH2 0x99D PUSH2 0x998 DUP5 PUSH2 0x94A JUMP JUMPDEST PUSH2 0x92F JUMP JUMPDEST SWAP1 POP DUP3 DUP2 MSTORE PUSH1 0x20 DUP2 ADD DUP5 DUP5 DUP5 ADD GT ISZERO PUSH2 0x9B9 JUMPI PUSH2 0x9B8 PUSH2 0x8B9 JUMP JUMPDEST JUMPDEST PUSH2 0x9C4 DUP5 DUP3 DUP6 PUSH2 0x97B JUMP JUMPDEST POP SWAP4 SWAP3 POP POP POP JUMP JUMPDEST PUSH1 0x0 DUP3 PUSH1 0x1F DUP4 ADD SLT PUSH2 0x9E1 JUMPI PUSH2 0x9E0 PUSH2 0x8B4 JUMP JUMPDEST JUMPDEST DUP2 CALLDATALOAD PUSH2 0x9F1 DUP5 DUP3 PUSH1 0x20 DUP7 ADD PUSH2 0x98A JUMP JUMPDEST SWAP2 POP POP SWAP3 SWAP2 POP POP JUMP JUMPDEST PUSH1 0x0 DUP1 PUSH1 0x40 DUP4 DUP6 SUB SLT ISZERO PUSH2 0xA11 JUMPI PUSH2 0xA10 PUSH2 0x874 JUMP JUMPDEST JUMPDEST PUSH1 0x0 PUSH2 0xA1F DUP6 DUP3 DUP7 ADD PUSH2 0x89F JUMP JUMPDEST SWAP3 POP POP PUSH1 0x20 DUP4 ADD CALLDATALOAD PUSH8 0xFFFFFFFFFFFFFFFF DUP2 GT ISZERO PUSH2 0xA40 JUMPI PUSH2 0xA3F PUSH2 0x879 JUMP JUMPDEST JUMPDEST PUSH2 0xA4C DUP6 DUP3 DUP7 ADD PUSH2 0x9CC JUMP JUMPDEST SWAP2 POP POP SWAP3 POP SWAP3 SWAP1 POP JUMP JUMPDEST PUSH1 0x0 DUP2 ISZERO ISZERO SWAP1 POP SWAP2 SWAP1 POP JUMP JUMPDEST PUSH2 0xA6B DUP2 PUSH2 0xA56 JUMP JUMPDEST DUP3 MSTORE POP POP JUMP JUMPDEST PUSH1 0x0 PUSH1 0x20 DUP3 ADD SWAP1 POP PUSH2 0xA86 PUSH1 0x0 DUP4 ADD DUP5 PUSH2 0xA62 JUMP JUMPDEST SWAP3 SWAP2 POP POP JUMP JUMPDEST PUSH1 0x0 PUSH8 0xFFFFFFFFFFFFFFFF DUP3 GT ISZERO PUSH2 0xAA7 JUMPI PUSH2 0xAA6 PUSH2 0x8CF JUMP JUMPDEST JUMPDEST PUSH1 0x20 DUP3 MUL SWAP1 POP PUSH1 0x20 DUP2 ADD SWAP1 POP SWAP2 SWAP1 POP JUMP JUMPDEST PUSH1 0x0 DUP1 REVERT JUMPDEST PUSH1 0x0 PUSH2 0xAD0 PUSH2 0xACB DUP5 PUSH2 0xA8C JUMP JUMPDEST PUSH2 0x92F JUMP JUMPDEST SWAP1 POP DUP1 DUP4 DUP3 MSTORE PUSH1 0x20 DUP3 ADD SWAP1 POP PUSH1 0x20 DUP5 MUL DUP4 ADD DUP6 DUP2 GT ISZERO PUSH2 0xAF3 JUMPI PUSH2 0xAF2 PUSH2 0xAB8 JUMP JUMPDEST JUMPDEST DUP4 JUMPDEST DUP2 DUP2 LT ISZERO PUSH2 0xB3A JUMPI DUP1 CALLDATALOAD PUSH8 0xFFFFFFFFFFFFFFFF DUP2 GT ISZERO PUSH2 0xB18 JUMPI PUSH2 0xB17 PUSH2 0x8B4 JUMP JUMPDEST JUMPDEST DUP1 DUP7 ADD PUSH2 0xB25 DUP10 DUP3 PUSH2 0x9CC JUMP JUMPDEST DUP6 MSTORE PUSH1 0x20 DUP6 ADD SWAP5 POP POP POP PUSH1 0x20 DUP2 ADD SWAP1 POP PUSH2 0xAF5 JUMP JUMPDEST POP POP POP SWAP4 SWAP3 POP POP POP JUMP JUMPDEST PUSH1 0x0 DUP3 PUSH1 0x1F DUP4 ADD SLT PUSH2 0xB59 JUMPI PUSH2 0xB58 PUSH2 0x8B4 JUMP JUMPDEST JUMPDEST DUP2 CALLDATALOAD PUSH2 0xB69 DUP5 DUP3 PUSH1 0x20 DUP7 ADD PUSH2 0xABD JUMP JUMPDEST SWAP2 POP POP SWAP3 SWAP2 POP POP JUMP JUMPDEST PUSH1 0x0 DUP1 PUSH1 0x40 DUP4 DUP6 SUB SLT ISZERO PUSH2 0xB89 JUMPI PUSH2 0xB88 PUSH2 0x874 JUMP JUMPDEST JUMPDEST PUSH1 0x0 DUP4 ADD CALLDATALOAD PUSH8 0xFFFFFFFFFFFFFFFF DUP2 GT ISZERO PUSH2 0xBA7 JUMPI PUSH2 0xBA6 PUSH2 0x879 JUMP JUMPDEST JUMPDEST PUSH2 0xBB3 DUP6 DUP3 DUP7 ADD PUSH2 0x9CC JUMP JUMPDEST SWAP3 POP POP PUSH1 0x20 DUP4 ADD CALLDATALOAD PUSH8 0xFFFFFFFFFFFFFFFF DUP2 GT ISZERO PUSH2 0xBD4 JUMPI PUSH2 0xBD3 PUSH2 0x879 JUMP JUMPDEST JUMPDEST PUSH2 0xBE0 DUP6 DUP3 DUP7 ADD PUSH2 0xB44 JUMP JUMPDEST SWAP2 POP POP SWAP3 POP SWAP3 SWAP1 POP JUMP JUMPDEST PUSH2 0xBF3 DUP2 PUSH2 0x87E JUMP JUMPDEST DUP3 MSTORE POP POP JUMP JUMPDEST PUSH1 0x0 PUSH1 0x20 DUP3 ADD SWAP1 POP PUSH2 0xC0E PUSH1 0x0 DUP4 ADD DUP5 PUSH2 0xBEA JUMP JUMPDEST SWAP3 SWAP2 POP POP JUMP JUMPDEST PUSH1 0x0 PUSH20 0xFFFFFFFFFFFFFFFFFFFFFFFFFFFFFFFFFFFFFFFF DUP3 AND SWAP1 POP SWAP2 SWAP1 POP JUMP JUMPDEST PUSH1 0x0 PUSH2 0xC3F DUP3 PUSH2 0xC14 JUMP JUMPDEST SWAP1 POP SWAP2 SWAP1 POP JUMP JUMPDEST PUSH2 0xC4F DUP2 PUSH2 0xC34 JUMP JUMPDEST DUP2 EQ PUSH2 0xC5A JUMPI PUSH1 0x0 DUP1 REVERT JUMPDEST POP JUMP JUMPDEST PUSH1 0x0 DUP2 CALLDATALOAD SWAP1 POP PUSH2 0xC6C DUP2 PUSH2 0xC46 JUMP JUMPDEST SWAP3 SWAP2 POP POP JUMP JUMPDEST PUSH1 0x0 PUSH1 0x20 DUP3 DUP5 SUB SLT ISZERO PUSH2 0xC88 JUMPI PUSH2 0xC87 PUSH2 0x874 JUMP JUMPDEST JUMPDEST PUSH1 0x0 PUSH2 0xC96 DUP5 DUP3 DUP6 ADD PUSH2 0xC5D JUMP JUMPDEST SWAP2 POP POP SWAP3 SWAP2 POP POP JUMP JUMPDEST PUSH1 0x0 PUSH1 0x40 DUP3 ADD SWAP1 POP PUSH2 0xCB4 PUSH1 0x0 DUP4 ADD DUP6 PUSH2 0xA62 JUMP JUMPDEST PUSH2 0xCC1 PUSH1 0x20 DUP4 ADD DUP5 PUSH2 0xBEA JUMP JUMPDEST SWAP4 SWAP3 POP POP POP JUMP JUMPDEST PUSH1 0x0 PUSH1 0x20 DUP3 DUP5 SUB SLT ISZERO PUSH2 0xCDE JUMPI PUSH2 0xCDD PUSH2 0x874 JUMP JUMPDEST JUMPDEST PUSH1 0x0 PUSH2 0xCEC DUP5 DUP3 DUP6 ADD PUSH2 0x89F JUMP JUMPDEST SWAP2 POP POP SWAP3 SWAP2 POP POP JUMP JUMPDEST PUSH1 0x0 DUP2 MLOAD SWAP1 POP SWAP2 SWAP1 POP JUMP JUMPDEST PUSH1 0x0 DUP3 DUP3 MSTORE PUSH1 0x20 DUP3 ADD SWAP1 POP SWAP3 SWAP2 POP POP JUMP JUMPDEST PUSH1 0x0 JUMPDEST DUP4 DUP2 LT ISZERO PUSH2 0xD2F JUMPI DUP1 DUP3 ADD MLOAD DUP2 DUP5 ADD MSTORE PUSH1 0x20 DUP2 ADD SWAP1 POP PUSH2 0xD14 JUMP JUMPDEST PUSH1 0x0 DUP5 DUP5 ADD MSTORE POP POP POP POP JUMP JUMPDEST PUSH1 0x0 PUSH2 0xD46 DUP3 PUSH2 0xCF5 JUMP JUMPDEST PUSH2 0xD50 DUP2 DUP6 PUSH2 0xD00 JUMP JUMPDEST SWAP4 POP PUSH2 0xD60 DUP2 DUP6 PUSH1 0x20 DUP7 ADD PUSH2 0xD11 JUMP JUMPDEST PUSH2 0xD69 DUP2 PUSH2 0x8BE JUMP JUMPDEST DUP5 ADD SWAP2 POP POP SWAP3 SWAP2 POP POP JUMP JUMPDEST PUSH1 0x0 PUSH1 0x40 DUP3 ADD SWAP1 POP DUP2 DUP2 SUB PUSH1 0x0 DUP4 ADD MSTORE PUSH2 0xD8E DUP2 DUP6 PUSH2 0xD3B JUMP JUMPDEST SWAP1 POP PUSH2 0xD9D PUSH1 0x20 DUP4 ADD DUP5 PUSH2 0xA62 JUMP JUMPDEST SWAP4 SWAP3 POP POP POP JUMP JUMPDEST PUSH32 0x506F6C6C20646F6573206E6F74206578697374206F7220697320696E61637469 PUSH1 0x0 DUP3 ADD MSTORE PUSH32 0x7665000000000000000000000000000000000000000000000000000000000000 PUSH1 0x20 DUP3 ADD MSTORE POP JUMP JUMPDEST PUSH1 0x0 PUSH2 0xE00 PUSH1 0x22 DUP4 PUSH2 0xD00 JUMP JUMPDEST SWAP2 POP PUSH2 0xE0B DUP3 PUSH2 0xDA4 JUMP JUMPDEST PUSH1 0x40 DUP3 ADD SWAP1 POP SWAP2 SWAP1 POP JUMP JUMPDEST PUSH1 0x0 PUSH1 0x20 DUP3 ADD SWAP1 POP DUP2 DUP2 SUB PUSH1 0x0 DUP4 ADD MSTORE PUSH2 0xE2F DUP2 PUSH2 0xDF3 JUMP JUMPDEST SWAP1 POP SWAP2 SWAP1 POP JUMP JUMPDEST PUSH32 0x566F7465722068617320616C726561647920766F746564000000000000000000 PUSH1 0x0 DUP3 ADD MSTORE POP JUMP JUMPDEST PUSH1 0x0 PUSH2 0xE6C PUSH1 0x17 DUP4 PUSH2 0xD00 JUMP JUMPDEST SWAP2 POP PUSH2 0xE77 DUP3 PUSH2 0xE36 JUMP JUMPDEST PUSH1 0x20 DUP3 ADD SWAP1 POP SWAP2 SWAP1 POP JUMP JUMPDEST PUSH1 0x0 PUSH1 0x20 DUP3 ADD SWAP1 POP DUP2 DUP2 SUB PUSH1 0x0 DUP4 ADD MSTORE PUSH2 0xE9B DUP2 PUSH2 0xE5F JUMP JUMPDEST SWAP1 POP SWAP2 SWAP1 POP JUMP JUMPDEST PUSH32 0x496E76616C6964206F7074696F6E000000000000000000000000000000000000 PUSH1 0x0 DUP3 ADD MSTORE POP JUMP JUMPDEST PUSH1 0x0 PUSH2 0xED8 PUSH1 0xE DUP4 PUSH2 0xD00 JUMP JUMPDEST SWAP2 POP PUSH2 0xEE3 DUP3 PUSH2 0xEA2 JUMP JUMPDEST PUSH1 0x20 DUP3 ADD SWAP1 POP SWAP2 SWAP1 POP JUMP JUMPDEST PUSH1 0x0 PUSH1 0x20 DUP3 ADD SWAP1 POP DUP2 DUP2 SUB PUSH1 0x0 DUP4 ADD MSTORE PUSH2 0xF07 DUP2 PUSH2 0xECB JUMP JUMPDEST SWAP1 POP SWAP2 SWAP1 POP JUMP JUMPDEST PUSH1 0x0 DUP2 SWAP1 POP SWAP3 SWAP2 POP POP JUMP JUMPDEST PUSH1 0x0 PUSH2 0xF24 DUP3 PUSH2 0xCF5 JUMP JUMPDEST PUSH2 0xF2E DUP2 DUP6 PUSH2 0xF0E JUMP JUMPDEST SWAP4 POP PUSH2 0xF3E DUP2 DUP6 PUSH1 0x20 DUP7 ADD PUSH2 0xD11 JUMP JUMPDEST DUP1 DUP5 ADD SWAP2 POP POP SWAP3 SWAP2 POP POP JUMP JUMPDEST PUSH1 0x0 PUSH2 0xF56 DUP3 DUP5 PUSH2 0xF19 JUMP JUMPDEST SWAP2 POP DUP2 SWAP1 POP SWAP3 SWAP2 POP POP JUMP JUMPDEST PUSH32 0x4E487B7100000000000000000000000000000000000000000000000000000000 PUSH1 0x0 MSTORE PUSH1 0x11 PUSH1 0x4 MSTORE PUSH1 0x24 PUSH1 0x0 REVERT JUMPDEST PUSH1 0x0 PUSH2 0xF9B DUP3 PUSH2 0x87E JUMP JUMPDEST SWAP2 POP PUSH32 0xFFFFFFFFFFFFFFFFFFFFFFFFFFFFFFFFFFFFFFFFFFFFFFFFFFFFFFFFFFFFFFFF DUP3 SUB PUSH2 0xFCD JUMPI PUSH2 0xFCC PUSH2 0xF61 JUMP JUMPDEST JUMPDEST PUSH1 0x1 DUP3 ADD SWAP1 POP SWAP2 SWAP1 POP JUMP JUMPDEST PUSH2 0xFE1 DUP2 PUSH2 0xC34 JUMP JUMPDEST DUP3 MSTORE POP POP JUMP JUMPDEST PUSH1 0x0 PUSH1 0x60 DUP3 ADD SWAP1 POP PUSH2 0xFFC PUSH1 0x0 DUP4 ADD DUP7 PUSH2 0xFD8 JUMP JUMPDEST PUSH2 0x1009 PUSH1 0x20 DUP4 ADD DUP6 PUSH2 0xBEA JUMP JUMPDEST DUP2 DUP2 SUB PUSH1 0x40 DUP4 ADD MSTORE PUSH2 0x101B DUP2 DUP5 PUSH2 0xD3B JUMP JUMPDEST SWAP1 POP SWAP5 SWAP4 POP POP POP POP JUMP JUMPDEST PUSH32 0x4E487B7100000000000000000000000000000000000000000000000000000000 PUSH1 0x0 MSTORE PUSH1 0x32 PUSH1 0x4 MSTORE PUSH1 0x24 PUSH1 0x0 REVERT JUMPDEST PUSH32 0x4E487B7100000000000000000000000000000000000000000000000000000000 PUSH1 0x0 MSTORE PUSH1 0x22 PUSH1 0x4 MSTORE PUSH1 0x24 PUSH1 0x0 REVERT JUMPDEST PUSH1 0x0 PUSH1 0x2 DUP3 DIV SWAP1 POP PUSH1 0x1 DUP3 AND DUP1 PUSH2 0x109B JUMPI PUSH1 0x7F DUP3 AND SWAP2 POP JUMPDEST PUSH1 0x20 DUP3 LT DUP2 SUB PUSH2 0x10AE JUMPI PUSH2 0x10AD PUSH2 0x1054 JUMP JUMPDEST JUMPDEST POP SWAP2 SWAP1 POP JUMP JUMPDEST PUSH1 0x0 DUP2 SWAP1 POP SWAP3 SWAP2 POP POP JUMP JUMPDEST PUSH1 0x0 DUP2 SWAP1 POP DUP2 PUSH1 0x0 MSTORE PUSH1 0x20 PUSH1 0x0 KECCAK256 SWAP1 POP SWAP2 SWAP1 POP JUMP JUMPDEST PUSH1 0x0 DUP2 SLOAD PUSH2 0x10E1 DUP2 PUSH2 0x1083 JUMP JUMPDEST PUSH2 0x10EB DUP2 DUP7 PUSH2 0x10B4 JUMP JUMPDEST SWAP5 POP PUSH1 0x1 DUP3 AND PUSH1 0x0 DUP2 EQ PUSH2 0x1106 JUMPI PUSH1 0x1 DUP2 EQ PUSH2 0x111B JUMPI PUSH2 0x114E JUMP JUMPDEST PUSH1 0xFF NOT DUP4 AND DUP7 MSTORE DUP2 ISZERO ISZERO DUP3 MUL DUP7 ADD SWAP4 POP PUSH2 0x114E JUMP JUMPDEST PUSH2 0x1124 DUP6 PUSH2 0x10BF JUMP JUMPDEST PUSH1 0x0 JUMPDEST DUP4 DUP2 LT ISZERO PUSH2 0x1146 JUMPI DUP2 SLOAD DUP2 DUP10 ADD MSTORE PUSH1 0x1 DUP3 ADD SWAP2 POP PUSH1 0x20 DUP2 ADD SWAP1 POP PUSH2 0x1127 JUMP JUMPDEST DUP4 DUP9 ADD SWAP6 POP POP POP JUMPDEST POP POP POP SWAP3 SWAP2 POP POP JUMP JUMPDEST PUSH1 0x0 PUSH2 0x1163 DUP3 DUP5 PUSH2 0x10D4 JUMP JUMPDEST SWAP2 POP DUP2 SWAP1 POP SWAP3 SWAP2 POP POP JUMP JUMPDEST PUSH1 0x0 DUP2 SWAP1 POP DUP2 PUSH1 0x0 MSTORE PUSH1 0x20 PUSH1 0x0 KECCAK256 SWAP1 POP SWAP2 SWAP1 POP JUMP JUMPDEST PUSH1 0x0 PUSH1 0x20 PUSH1 0x1F DUP4 ADD DIV SWAP1 POP SWAP2 SWAP1 POP JUMP JUMPDEST PUSH1 0x0 DUP3 DUP3 SHL SWAP1 POP SWAP3 SWAP2 POP POP JUMP JUMPDEST PUSH1 0x0 PUSH1 0x8 DUP4 MUL PUSH2 0x11D0 PUSH32 0xFFFFFFFFFFFFFFFFFFFFFFFFFFFFFFFFFFFFFFFFFFFFFFFFFFFFFFFFFFFFFFFF DUP3 PUSH2 0x1193 JUMP JUMPDEST PUSH2 0x11DA DUP7 DUP4 PUSH2 0x1193 JUMP JUMPDEST SWAP6 POP DUP1 NOT DUP5 AND SWAP4 POP DUP1 DUP7 AND DUP5 OR SWAP3 POP POP POP SWAP4 SWAP3 POP POP POP JUMP JUMPDEST PUSH1 0x0 DUP2 SWAP1 POP SWAP2 SWAP1 POP JUMP JUMPDEST PUSH1 0x0 PUSH2 0x1217 PUSH2 0x1212 PUSH2 0x120D DUP5 PUSH2 0x87E JUMP JUMPDEST PUSH2 0x11F2 JUMP JUMPDEST PUSH2 0x87E JUMP JUMPDEST SWAP1 POP SWAP2 SWAP1 POP JUMP JUMPDEST PUSH1 0x0 DUP2 SWAP1 POP SWAP2 SWAP1 POP JUMP JUMPDEST PUSH2 0x1231 DUP4 PUSH2 0x11FC JUMP JUMPDEST PUSH2 0x1245 PUSH2 0x123D DUP3 PUSH2 0x121E JUMP JUMPDEST DUP5 DUP5 SLOAD PUSH2 0x11A0 JUMP JUMPDEST DUP3 SSTORE POP POP POP POP JUMP JUMPDEST PUSH1 0x0 SWAP1 JUMP JUMPDEST PUSH2 0x125A PUSH2 0x124D JUMP JUMPDEST PUSH2 0x1265 DUP2 DUP5 DUP5 PUSH2 0x1228 JUMP JUMPDEST POP POP POP JUMP JUMPDEST JUMPDEST DUP2 DUP2 LT ISZERO PUSH2 0x1289 JUMPI PUSH2 0x127E PUSH1 0x0 DUP3 PUSH2 0x1252 JUMP JUMPDEST PUSH1 0x1 DUP2 ADD SWAP1 POP PUSH2 0x126B JUMP JUMPDEST POP POP JUMP JUMPDEST PUSH1 0x1F DUP3 GT ISZERO PUSH2 0x12CE JUMPI PUSH2 0x129F DUP2 PUSH2 0x116E JUMP JUMPDEST PUSH2 0x12A8 DUP5 PUSH2 0x1183 JUMP JUMPDEST DUP2 ADD PUSH1 0x20 DUP6 LT ISZERO PUSH2 0x12B7 JUMPI DUP2 SWAP1 POP JUMPDEST PUSH2 0x12CB PUSH2 0x12C3 DUP6 PUSH2 0x1183 JUMP JUMPDEST DUP4 ADD DUP3 PUSH2 0x126A JUMP JUMPDEST POP POP JUMPDEST POP POP POP JUMP JUMPDEST PUSH1 0x0 DUP3 DUP3 SHR SWAP1 POP SWAP3 SWAP2 POP POP JUMP JUMPDEST PUSH1 0x0 PUSH2 0x12F1 PUSH1 0x0 NOT DUP5 PUSH1 0x8 MUL PUSH2 0x12D3 JUMP JUMPDEST NOT DUP1 DUP4 AND SWAP2 POP POP SWAP3 SWAP2 POP POP JUMP JUMPDEST PUSH1 0x0 PUSH2 0x130A DUP4 DUP4 PUSH2 0x12E0 JUMP JUMPDEST SWAP2 POP DUP3 PUSH1 0x2 MUL DUP3 OR SWAP1 POP SWAP3 SWAP2 POP POP JUMP JUMPDEST PUSH2 0x1323 DUP3 PUSH2 0xCF5 JUMP JUMPDEST PUSH8 0xFFFFFFFFFFFFFFFF DUP2 GT ISZERO PUSH2 0x133C JUMPI PUSH2 0x133B PUSH2 0x8CF JUMP JUMPDEST JUMPDEST PUSH2 0x1346 DUP3 SLOAD PUSH2 0x1083 JUMP JUMPDEST PUSH2 0x1351 DUP3 DUP3 DUP6 PUSH2 0x128D JUMP JUMPDEST PUSH1 0x0 PUSH1 0x20 SWAP1 POP PUSH1 0x1F DUP4 GT PUSH1 0x1 DUP2 EQ PUSH2 0x1384 JUMPI PUSH1 0x0 DUP5 ISZERO PUSH2 0x1372 JUMPI DUP3 DUP8 ADD MLOAD SWAP1 POP JUMPDEST PUSH2 0x137C DUP6 DUP3 PUSH2 0x12FE JUMP JUMPDEST DUP7 SSTORE POP PUSH2 0x13E4 JUMP JUMPDEST PUSH1 0x1F NOT DUP5 AND PUSH2 0x1392 DUP7 PUSH2 0x116E JUMP JUMPDEST PUSH1 0x0 JUMPDEST DUP3 DUP2 LT ISZERO PUSH2 0x13BA JUMPI DUP5 DUP10 ADD MLOAD DUP3 SSTORE PUSH1 0x1 DUP3 ADD SWAP2 POP PUSH1 0x20 DUP6 ADD SWAP5 POP PUSH1 0x20 DUP2 ADD SWAP1 POP PUSH2 0x1395 JUMP JUMPDEST DUP7 DUP4 LT ISZERO PUSH2 0x13D7 JUMPI DUP5 DUP10 ADD MLOAD PUSH2 0x13D3 PUSH1 0x1F DUP10 AND DUP3 PUSH2 0x12E0 JUMP JUMPDEST DUP4 SSTORE POP JUMPDEST PUSH1 0x1 PUSH1 0x2 DUP9 MUL ADD DUP9 SSTORE POP POP POP JUMPDEST POP POP POP POP POP POP JUMP JUMPDEST PUSH1 0x0 DUP2 MLOAD SWAP1 POP SWAP2 SWAP1 POP JUMP JUMPDEST PUSH1 0x0 DUP3 DUP3 MSTORE PUSH1 0x20 DUP3 ADD SWAP1 POP SWAP3 SWAP2 POP POP JUMP JUMPDEST PUSH1 0x0 DUP2 SWAP1 POP PUSH1 0x20 DUP3 ADD SWAP1 POP SWAP2 SWAP1 POP JUMP JUMPDEST PUSH1 0x0 DUP3 DUP3 MSTORE PUSH1 0x20 DUP3 ADD SWAP1 POP SWAP3 SWAP2 POP POP JUMP JUMPDEST PUSH1 0x0 PUSH2 0x1434 DUP3 PUSH2 0xCF5 JUMP JUMPDEST PUSH2 0x143E DUP2 DUP6 PUSH2 0x1418 JUMP JUMPDEST SWAP4 POP PUSH2 0x144E DUP2 DUP6 PUSH1 0x20 DUP7 ADD PUSH2 0xD11 JUMP JUMPDEST PUSH2 0x1457 DUP2 PUSH2 0x8BE JUMP JUMPDEST DUP5 ADD SWAP2 POP POP SWAP3 SWAP2 POP POP JUMP JUMPDEST PUSH1 0x0 PUSH2 0x146E DUP4 DUP4 PUSH2 0x1429 JUMP JUMPDEST SWAP1 POP SWAP3 SWAP2 POP POP JUMP JUMPDEST PUSH1 0x0 PUSH1 0x20 DUP3 ADD SWAP1 POP SWAP2 SWAP1 POP JUMP JUMPDEST PUSH1 0x0 PUSH2 0x148E DUP3 PUSH2 0x13EC JUMP JUMPDEST PUSH2 0x1498 DUP2 DUP6 PUSH2 0x13F7 JUMP JUMPDEST SWAP4 POP DUP4 PUSH1 0x20 DUP3 MUL DUP6 ADD PUSH2 0x14AA DUP6 PUSH2 0x1408 JUMP JUMPDEST DUP1 PUSH1 0x0 JUMPDEST DUP6 DUP2 LT ISZERO PUSH2 0x14E6 JUMPI DUP5 DUP5 SUB DUP10 MSTORE DUP2 MLOAD PUSH2 0x14C7 DUP6 DUP3 PUSH2 0x1462 JUMP JUMPDEST SWAP5 POP PUSH2 0x14D2 DUP4 PUSH2 0x1476 JUMP JUMPDEST SWAP3 POP PUSH1 0x20 DUP11 ADD SWAP10 POP POP PUSH1 0x1 DUP2 ADD SWAP1 POP PUSH2 0x14AE JUMP JUMPDEST POP DUP3 SWAP8 POP DUP8 SWAP6 POP POP POP POP POP POP SWAP3 SWAP2 POP POP JUMP JUMPDEST PUSH1 0x0 PUSH1 0x60 DUP3 ADD SWAP1 POP PUSH2 0x150D PUSH1 0x0 DUP4 ADD DUP7 PUSH2 0xBEA JUMP JUMPDEST DUP2 DUP2 SUB PUSH1 0x20 DUP4 ADD MSTORE PUSH2 0x151F DUP2 DUP6 PUSH2 0xD3B JUMP JUMPDEST SWAP1 POP DUP2 DUP2 SUB PUSH1 0x40 DUP4 ADD MSTORE PUSH2 0x1533 DUP2 DUP5 PUSH2 0x1483 JUMP JUMPDEST SWAP1 POP SWAP5 SWAP4 POP POP POP POP JUMP JUMPDEST PUSH32 0x506F6C6C20646F6573206E6F74206578697374206F7220697320616374697665 PUSH1 0x0 DUP3 ADD MSTORE POP JUMP JUMPDEST PUSH1 0x0 PUSH2 0x1573 PUSH1 0x20 DUP4 PUSH2 0xD00 JUMP JUMPDEST SWAP2 POP PUSH2 0x157E DUP3 PUSH2 0x153D JUMP JUMPDEST PUSH1 0x20 DUP3 ADD SWAP1 POP SWAP2 SWAP1 POP JUMP JUMPDEST PUSH1 0x0 PUSH1 0x20 DUP3 ADD SWAP1 POP DUP2 DUP2 SUB PUSH1 0x0 DUP4 ADD MSTORE PUSH2 0x15A2 DUP2 PUSH2 0x1566 JUMP JUMPDEST SWAP1 POP SWAP2 SWAP1 POP JUMP INVALID LOG2 PUSH5 0x6970667358 0x22 SLT KECCAK256 PUSH6 0x7F6DEB8053D3 PUSH22 0xCF8939BD1FD2C3CD9EAC90BD79E563A4C4EBEDB9DD2E PUSH3 0x4E6473 PUSH16 0x6C634300081200330000000000000000 "
				},
				"gasEstimates": {
					"creation": {
						"codeDepositCost": "1119800",
						"executionCost": "1160",
						"totalCost": "1120960"
					},
					"external": {
						"createPoll(string,string[])": "infinite",
						"getVotes(uint256,string)": "infinite",
						"isOptionValid(uint256,string)": "infinite",
						"numPolls()": "2429",
						"polls(uint256)": "infinite",
						"vote(uint256,string)": "infinite",
						"voters(address)": "5104"
					}
				},
				"methodIdentifiers": {
					"createPoll(string,string[])": "7e3d71c3",
					"getVotes(uint256,string)": "e76d28ad",
					"isOptionValid(uint256,string)": "2d957d34",
					"numPolls()": "842ff2bd",
					"polls(uint256)": "ac2f0074",
					"vote(uint256,string)": "24108475",
					"voters(address)": "a3ec138d"
				}
			},
			"storageLayout": {
				"storage": [
					{
						"astId": 18,
						"contract": "contracts/CollegePollingSystem.sol:CollegePollingSystem",
						"label": "polls",
						"offset": 0,
						"slot": "0",
						"type": "t_mapping(t_uint256,t_struct(Poll)13_storage)"
					},
					{
						"astId": 20,
						"contract": "contracts/CollegePollingSystem.sol:CollegePollingSystem",
						"label": "numPolls",
						"offset": 0,
						"slot": "1",
						"type": "t_uint256"
					},
					{
						"astId": 30,
						"contract": "contracts/CollegePollingSystem.sol:CollegePollingSystem",
						"label": "voters",
						"offset": 0,
						"slot": "2",
						"type": "t_mapping(t_address,t_struct(Voter)25_storage)"
					}
				],
				"types": {
					"t_address": {
						"encoding": "inplace",
						"label": "address",
						"numberOfBytes": "20"
					},
					"t_array(t_string_storage)dyn_storage": {
						"base": "t_string_storage",
						"encoding": "dynamic_array",
						"label": "string[]",
						"numberOfBytes": "32"
					},
					"t_bool": {
						"encoding": "inplace",
						"label": "bool",
						"numberOfBytes": "1"
					},
					"t_mapping(t_address,t_struct(Voter)25_storage)": {
						"encoding": "mapping",
						"key": "t_address",
						"label": "mapping(address => struct CollegePollingSystem.Voter)",
						"numberOfBytes": "32",
						"value": "t_struct(Voter)25_storage"
					},
					"t_mapping(t_string_memory_ptr,t_uint256)": {
						"encoding": "mapping",
						"key": "t_string_memory_ptr",
						"label": "mapping(string => uint256)",
						"numberOfBytes": "32",
						"value": "t_uint256"
					},
					"t_mapping(t_uint256,t_struct(Poll)13_storage)": {
						"encoding": "mapping",
						"key": "t_uint256",
						"label": "mapping(uint256 => struct CollegePollingSystem.Poll)",
						"numberOfBytes": "32",
						"value": "t_struct(Poll)13_storage"
					},
					"t_string_memory_ptr": {
						"encoding": "bytes",
						"label": "string",
						"numberOfBytes": "32"
					},
					"t_string_storage": {
						"encoding": "bytes",
						"label": "string",
						"numberOfBytes": "32"
					},
					"t_struct(Poll)13_storage": {
						"encoding": "inplace",
						"label": "struct CollegePollingSystem.Poll",
						"members": [
							{
								"astId": 3,
								"contract": "contracts/CollegePollingSystem.sol:CollegePollingSystem",
								"label": "question",
								"offset": 0,
								"slot": "0",
								"type": "t_string_storage"
							},
							{
								"astId": 6,
								"contract": "contracts/CollegePollingSystem.sol:CollegePollingSystem",
								"label": "options",
								"offset": 0,
								"slot": "1",
								"type": "t_array(t_string_storage)dyn_storage"
							},
							{
								"astId": 10,
								"contract": "contracts/CollegePollingSystem.sol:CollegePollingSystem",
								"label": "votes",
								"offset": 0,
								"slot": "2",
								"type": "t_mapping(t_string_memory_ptr,t_uint256)"
							},
							{
								"astId": 12,
								"contract": "contracts/CollegePollingSystem.sol:CollegePollingSystem",
								"label": "active",
								"offset": 0,
								"slot": "3",
								"type": "t_bool"
							}
						],
						"numberOfBytes": "128"
					},
					"t_struct(Voter)25_storage": {
						"encoding": "inplace",
						"label": "struct CollegePollingSystem.Voter",
						"members": [
							{
								"astId": 22,
								"contract": "contracts/CollegePollingSystem.sol:CollegePollingSystem",
								"label": "voted",
								"offset": 0,
								"slot": "0",
								"type": "t_bool"
							},
							{
								"astId": 24,
								"contract": "contracts/CollegePollingSystem.sol:CollegePollingSystem",
								"label": "pollIndex",
								"offset": 0,
								"slot": "1",
								"type": "t_uint256"
							}
						],
						"numberOfBytes": "64"
					},
					"t_uint256": {
						"encoding": "inplace",
						"label": "uint256",
						"numberOfBytes": "32"
					}
				}
			},
			"userdoc": {
				"kind": "user",
				"methods": {},
				"version": 1
			}
		}
	}
}